{"contracts/PokerGame.sol":{"PokerGame":{"abi":[{"inputs":[{"internalType":"address payable","name":"_paymentProcessor","type":"address"}],"stateMutability":"nonpayable","type":"constructor"},{"anonymous":false,"inputs":[{"indexed":true,"internalType":"bytes32","name":"gameId","type":"bytes32"},{"indexed":false,"internalType":"address","name":"cancelledBy","type":"address"}],"name":"GameCancelled","type":"event"},{"anonymous":false,"inputs":[{"indexed":true,"internalType":"bytes32","name":"gameId","type":"bytes32"},{"indexed":false,"internalType":"address","name":"winner","type":"address"},{"indexed":false,"internalType":"uint256","name":"prize","type":"uint256"}],"name":"GameCompleted","type":"event"},{"anonymous":false,"inputs":[{"indexed":true,"internalType":"bytes32","name":"gameId","type":"bytes32"},{"indexed":false,"internalType":"address","name":"creator","type":"address"},{"indexed":false,"internalType":"uint256","name":"buyIn","type":"uint256"},{"indexed":false,"internalType":"uint256","name":"maxPlayers","type":"uint256"}],"name":"GameCreated","type":"event"},{"anonymous":false,"inputs":[{"indexed":true,"internalType":"bytes32","name":"gameId","type":"bytes32"},{"indexed":false,"internalType":"address","name":"player","type":"address"},{"indexed":false,"internalType":"uint256","name":"amount","type":"uint256"}],"name":"PlayerJoined","type":"event"},{"anonymous":false,"inputs":[{"indexed":true,"internalType":"address","name":"player","type":"address"},{"indexed":false,"internalType":"uint256","name":"amount","type":"uint256"}],"name":"WinningsClaimed","type":"event"},{"inputs":[{"internalType":"bytes32","name":"gameId","type":"bytes32"}],"name":"cancelGame","outputs":[],"stateMutability":"nonpayable","type":"function"},{"inputs":[],"name":"claimWinnings","outputs":[],"stateMutability":"nonpayable","type":"function"},{"inputs":[{"internalType":"bytes32","name":"gameId","type":"bytes32"},{"internalType":"address","name":"winner","type":"address"}],"name":"completeGame","outputs":[],"stateMutability":"nonpayable","type":"function"},{"inputs":[{"internalType":"bytes32","name":"gameId","type":"bytes32"},{"internalType":"uint256","name":"buyIn","type":"uint256"},{"internalType":"uint256","name":"maxPlayers","type":"uint256"}],"name":"createGame","outputs":[],"stateMutability":"payable","type":"function"},{"inputs":[{"internalType":"bytes32","name":"","type":"bytes32"}],"name":"games","outputs":[{"internalType":"uint256","name":"buyIn","type":"uint256"},{"internalType":"uint256","name":"pot","type":"uint256"},{"internalType":"enum PokerGame.GameState","name":"state","type":"uint8"},{"internalType":"uint256","name":"startTime","type":"uint256"},{"internalType":"uint256","name":"maxPlayers","type":"uint256"},{"internalType":"address","name":"winner","type":"address"},{"internalType":"bytes32","name":"gameId","type":"bytes32"}],"stateMutability":"view","type":"function"},{"inputs":[{"internalType":"address","name":"","type":"address"}],"name":"gamesPlayed","outputs":[{"internalType":"uint256","name":"","type":"uint256"}],"stateMutability":"view","type":"function"},{"inputs":[],"name":"getActiveGames","outputs":[{"internalType":"bytes32[]","name":"","type":"bytes32[]"}],"stateMutability":"view","type":"function"},{"inputs":[{"internalType":"bytes32","name":"gameId","type":"bytes32"}],"name":"getGameInfo","outputs":[{"internalType":"address[]","name":"players","type":"address[]"},{"internalType":"uint256","name":"buyIn","type":"uint256"},{"internalType":"uint256","name":"pot","type":"uint256"},{"internalType":"uint256","name":"state","type":"uint256"},{"internalType":"uint256","name":"startTime","type":"uint256"},{"internalType":"uint256","name":"maxPlayers","type":"uint256"},{"internalType":"address","name":"winner","type":"address"}],"stateMutability":"view","type":"function"},{"inputs":[{"internalType":"address","name":"player","type":"address"}],"name":"getGamesPlayed","outputs":[{"internalType":"uint256","name":"","type":"uint256"}],"stateMutability":"view","type":"function"},{"inputs":[{"internalType":"address","name":"player","type":"address"}],"name":"getPlayerWinnings","outputs":[{"internalType":"uint256","name":"","type":"uint256"}],"stateMutability":"view","type":"function"},{"inputs":[{"internalType":"bytes32","name":"gameId","type":"bytes32"},{"internalType":"address","name":"player","type":"address"}],"name":"isPlayerInGame","outputs":[{"internalType":"bool","name":"","type":"bool"}],"stateMutability":"view","type":"function"},{"inputs":[{"internalType":"bytes32","name":"gameId","type":"bytes32"}],"name":"joinGame","outputs":[],"stateMutability":"payable","type":"function"},{"inputs":[],"name":"owner","outputs":[{"internalType":"address","name":"","type":"address"}],"stateMutability":"view","type":"function"},{"inputs":[],"name":"paymentProcessor","outputs":[{"internalType":"contract CasinoPaymentProcessor","name":"","type":"address"}],"stateMutability":"view","type":"function"},{"inputs":[{"internalType":"address","name":"","type":"address"}],"name":"playerWinnings","outputs":[{"internalType":"uint256","name":"","type":"uint256"}],"stateMutability":"view","type":"function"}],"evm":{"bytecode":{"linkReferences":{},"object":"608060405234801561001057600080fd5b5060405161166838038061166883398101604081905261002f91610062565b6001600081905580546001600160a01b039092166001600160a01b03199283161790556002805490911633179055610092565b60006020828403121561007457600080fd5b81516001600160a01b038116811461008b57600080fd5b9392505050565b6115c7806100a16000396000f3fe6080604052600436106100e75760003560e01c80638da5cb5b1161008a578063d26a088011610059578063d26a0880146102af578063e9df3027146102df578063f1c6bdf8146102ff578063f579f8821461031f57600080fd5b80638da5cb5b1461021c578063b2c553b214610254578063b401faf114610287578063bf4747661461029c57600080fd5b8063248c523a116100c6578063248c523a1461018d578063252f4d81146101a25780633f7121b0146101cf57806370180bc1146101ef57600080fd5b8062bc7893146100ec5780631b76929c146101355780632315bbe314610157575b600080fd5b3480156100f857600080fd5b506101226101073660046112cb565b6001600160a01b031660009081526004602052604090205490565b6040519081526020015b60405180910390f35b34801561014157600080fd5b5061014a61039d565b60405161012c91906112ed565b34801561016357600080fd5b506101226101723660046112cb565b6001600160a01b031660009081526005602052604090205490565b6101a061019b366004611331565b61052d565b005b3480156101ae57600080fd5b506101226101bd3660046112cb565b60046020526000908152604090205481565b3480156101db57600080fd5b506101a06101ea36600461135d565b61090b565b3480156101fb57600080fd5b5061012261020a3660046112cb565b60056020526000908152604090205481565b34801561022857600080fd5b5060025461023c906001600160a01b031681565b6040516001600160a01b03909116815260200161012c565b34801561026057600080fd5b5061027461026f36600461135d565b610a22565b60405161012c9796959493929190611376565b34801561029357600080fd5b506101a0610af2565b6101a06102aa36600461135d565b610c2a565b3480156102bb57600080fd5b506102cf6102ca3660046113f5565b610f71565b604051901515815260200161012c565b3480156102eb57600080fd5b506101a06102fa3660046113f5565b61101b565b34801561030b57600080fd5b5060015461023c906001600160a01b031681565b34801561032b57600080fd5b5061038a61033a36600461135d565b6003602081905260009182526040909120600181015460028201549282015460048301546005840154600685015460079095015493959460ff90931693919290916001600160a01b039091169087565b60405161012c9796959493929190611437565b60408051600a80825261016082019092526060916000919060208201610140803683370190505090506000805b600a8110156104895760008181526003602052604090205481901580159061044557506000818152600360208190526040822081015460ff169081111561041357610413611421565b148061044557506001600082815260036020819052604090912081015460ff169081111561044357610443611421565b145b15610476578084848151811061045d5761045d6114ab565b602090810291909101015282610472816114d7565b9350505b5080610481816114d7565b9150506103ca565b5060008167ffffffffffffffff8111156104a5576104a5611495565b6040519080825280602002602001820160405280156104ce578160200160208202803683370190505b50905060005b82811015610525578381815181106104ee576104ee6114ab565b6020026020010151828281518110610508576105086114ab565b60209081029190910101528061051d816114d7565b9150506104d4565b509392505050565b6105356111dc565b6000838152600360205260409020541561058c5760405162461bcd60e51b815260206004820152601360248201527247616d6520616c72656164792065786973747360681b60448201526064015b60405180910390fd5b600082116105dc5760405162461bcd60e51b815260206004820152601760248201527f4275792d696e206d75737420626520706f7369746976650000000000000000006044820152606401610583565b600281101580156105ee5750600a8111155b6106315760405162461bcd60e51b8152602060048201526014602482015273125b9d985b1a59081c1b185e595c8818dbdd5b9d60621b6044820152606401610583565b81341461067a5760405162461bcd60e51b8152602060048201526017602482015276125b98dbdc9c9958dd08189d5e4b5a5b88185b5bdd5b9d604a1b6044820152606401610583565b6001546040513060248201526000916001600160a01b031690349060440160408051601f198184030181529181526020820180516001600160e01b031663b07ce02560e01b179052516106cd91906114f0565b60006040518083038185875af1925050503d806000811461070a576040519150601f19603f3d011682016040523d82523d6000602084013e61070f565b606091505b505090508061075c5760405162461bcd60e51b815260206004820152601960248201527814185e5b595b9d081c1c9bd8d95cdcda5b99c819985a5b1959603a1b6044820152606401610583565b604080516001808252818301909252600091602080830190803683370190505090503381600081518110610792576107926114ab565b6001600160a01b0392909216602092830291909101820152604080516101008101825283815280830187905280820187905260006060820181905242608083015260a0820187905260c0820181905260e08201899052888152600384529190912081518051929391926108089284920190611235565b50602082015181600101556040820151816002015560608201518160030160006101000a81548160ff0219169083600381111561084757610847611421565b02179055506080820151600482015560a082015160058083019190915560c08301516006830180546001600160a01b0319166001600160a01b0390921691909117905560e090920151600790910155336000908152602091909152604081208054916108b2836114d7565b9091555050604080513381526020810186905290810184905285907fa704bb051af5b1db9e96f77b61081d382ff963e46371f5057868d19eef2dee359060600160405180910390a250506109066001600055565b505050565b60008181526003602052604090205481906109385760405162461bcd60e51b81526004016105839061151f565b81600080600083815260036020819052604090912081015460ff169081111561096357610963611421565b146109805760405162461bcd60e51b81526004016105839061154c565b6002546001600160a01b031633146109c65760405162461bcd60e51b81526020600482015260096024820152682737ba1037bbb732b960b91b6044820152606401610583565b600084815260036020818152604092839020808301805460ff19169093179092559151338152909186917f9b8a8869712403010131240192d2ccdcaaf3462e3d937653cbd3c5aa49821106910160405180910390a25050505050565b60008181526003602081905260408220600181015460028201548284015460609594859485948594859485948493929160ff1690811115610a6557610a65611421565b6004850154600586015460068701548654604080516020808402820181019092528281526001600160a01b0390931692918991830182828015610ad157602002820191906000526020600020905b81546001600160a01b03168152600190910190602001808311610ab3575b50505050509650975097509750975097509750975050919395979092949650565b610afa6111dc565b3360009081526004602052604090205480610b4e5760405162461bcd60e51b81526020600482015260146024820152734e6f2077696e6e696e677320746f20636c61696d60601b6044820152606401610583565b336000818152600460205260408082208290555190919083908381818185875af1925050503d8060008114610b9f576040519150601f19603f3d011682016040523d82523d6000602084013e610ba4565b606091505b5050905080610be75760405162461bcd60e51b815260206004820152600f60248201526e151c985b9cd9995c8819985a5b1959608a1b6044820152606401610583565b60405182815233907f1a31e733a172afcf46074b3106c17f0c298e226442682a03c1e99ce256139ec29060200160405180910390a25050610c286001600055565b565b610c326111dc565b6000818152600360205260409020548190610c5f5760405162461bcd60e51b81526004016105839061151f565b81600080600083815260036020819052604090912081015460ff1690811115610c8a57610c8a611421565b14610ca75760405162461bcd60e51b81526004016105839061154c565b60008481526003602052604090206005810154815410610cf55760405162461bcd60e51b815260206004820152600960248201526811d85b5948199d5b1b60ba1b6044820152606401610583565b80600101543414610d425760405162461bcd60e51b8152602060048201526017602482015276125b98dbdc9c9958dd08189d5e4b5a5b88185b5bdd5b9d604a1b6044820152606401610583565b60005b8154811015610dc95781543390839083908110610d6457610d646114ab565b6000918252602090912001546001600160a01b031603610db75760405162461bcd60e51b815260206004820152600e60248201526d105b1c9958591e481a9bda5b995960921b6044820152606401610583565b80610dc1816114d7565b915050610d45565b506001546040513060248201526000916001600160a01b031690349060440160408051601f198184030181529181526020820180516001600160e01b031663b07ce02560e01b17905251610e1d91906114f0565b60006040518083038185875af1925050503d8060008114610e5a576040519150601f19603f3d011682016040523d82523d6000602084013e610e5f565b606091505b5050905080610eac5760405162461bcd60e51b815260206004820152601960248201527814185e5b595b9d081c1c9bd8d95cdcda5b99c819985a5b1959603a1b6044820152606401610583565b815460018101835560008381526020812090910180546001600160a01b03191633179055600283018054349290610ee4908490611578565b9091555050336000908152600560205260408120805491610f04836114d7565b90915550506040805133815234602082015287917f65525cf08411b7a61d237681a43890956ad2e2ede88afd947f58eb4158c37f95910160405180910390a26005820154825403610f5f5760038201805460ff191660011790555b5050505050610f6e6001600055565b50565b6000828152600360205260408120548390610f9e5760405162461bcd60e51b81526004016105839061151f565b6000848152600360205260408120905b815481101561100d57846001600160a01b0316826000018281548110610fd657610fd66114ab565b6000918252602090912001546001600160a01b031603610ffb57600193505050611014565b80611005816114d7565b915050610fae565b5060009250505b5092915050565b60008281526003602052604090205482906110485760405162461bcd60e51b81526004016105839061151f565b82600180600083815260036020819052604090912081015460ff169081111561107357611073611421565b146110905760405162461bcd60e51b81526004016105839061154c565b6002546001600160a01b031633146110d65760405162461bcd60e51b81526020600482015260096024820152682737ba1037bbb732b960b91b6044820152606401610583565b60008581526003602052604090206110ee8686610f71565b61112f5760405162461bcd60e51b815260206004820152601260248201527157696e6e6572206e6f7420696e2067616d6560701b6044820152606401610583565b60038101805460ff191660029081179091556006820180546001600160a01b0388166001600160a01b03199091168117909155908201546000918252600460205260408220805491929091611185908490611578565b90915550506002810154604080516001600160a01b0388168152602081019290925287917fd1abccae8934d5ff9b57f5f0a1bebe781f8f34d4c1c7b20e7634381deebc8db5910160405180910390a2505050505050565b60026000540361122e5760405162461bcd60e51b815260206004820152601f60248201527f5265656e7472616e637947756172643a207265656e7472616e742063616c6c006044820152606401610583565b6002600055565b82805482825590600052602060002090810192821561128a579160200282015b8281111561128a57825182546001600160a01b0319166001600160a01b03909116178255602090920191600190910190611255565b5061129692915061129a565b5090565b5b80821115611296576000815560010161129b565b80356001600160a01b03811681146112c657600080fd5b919050565b6000602082840312156112dd57600080fd5b6112e6826112af565b9392505050565b6020808252825182820181905260009190848201906040850190845b8181101561132557835183529284019291840191600101611309565b50909695505050505050565b60008060006060848603121561134657600080fd5b505081359360208301359350604090920135919050565b60006020828403121561136f57600080fd5b5035919050565b60e08082528851908201819052600090602090610100840190828c01845b828110156113b95781516001600160a01b031684529284019290840190600101611394565b505050908301989098525060408101959095526060850193909352608084019190915260a08301526001600160a01b031660c090910152919050565b6000806040838503121561140857600080fd5b82359150611418602084016112af565b90509250929050565b634e487b7160e01b600052602160045260246000fd5b8781526020810187905260e081016004871061146357634e487b7160e01b600052602160045260246000fd5b6040820196909652606081019490945260808401929092526001600160a01b031660a083015260c09091015292915050565b634e487b7160e01b600052604160045260246000fd5b634e487b7160e01b600052603260045260246000fd5b634e487b7160e01b600052601160045260246000fd5b6000600182016114e9576114e96114c1565b5060010190565b6000825160005b8181101561151157602081860181015185830152016114f7565b506000920191825250919050565b60208082526013908201527211d85b5948191bd95cc81b9bdd08195e1a5cdd606a1b604082015260600190565b602080825260129082015271496e76616c69642067616d6520737461746560701b604082015260600190565b8082018082111561158b5761158b6114c1565b9291505056fea2646970667358221220967523d7bd441b4206b7585813419f1c3dc63a1d8ae2ea97a198c2f4b5a3c1cc64736f6c63430008130033","opcodes":"PUSH1 0x80 PUSH1 0x40 MSTORE CALLVALUE DUP1 ISZERO PUSH2 0x10 JUMPI PUSH1 0x0 DUP1 REVERT JUMPDEST POP PUSH1 0x40 MLOAD PUSH2 0x1668 CODESIZE SUB DUP1 PUSH2 0x1668 DUP4 CODECOPY DUP2 ADD PUSH1 0x40 DUP2 SWAP1 MSTORE PUSH2 0x2F SWAP2 PUSH2 0x62 JUMP JUMPDEST PUSH1 0x1 PUSH1 0x0 DUP2 SWAP1 SSTORE DUP1 SLOAD PUSH1 0x1 PUSH1 0x1 PUSH1 0xA0 SHL SUB SWAP1 SWAP3 AND PUSH1 0x1 PUSH1 0x1 PUSH1 0xA0 SHL SUB NOT SWAP3 DUP4 AND OR SWAP1 SSTORE PUSH1 0x2 DUP1 SLOAD SWAP1 SWAP2 AND CALLER OR SWAP1 SSTORE PUSH2 0x92 JUMP JUMPDEST PUSH1 0x0 PUSH1 0x20 DUP3 DUP5 SUB SLT ISZERO PUSH2 0x74 JUMPI PUSH1 0x0 DUP1 REVERT JUMPDEST DUP2 MLOAD PUSH1 0x1 PUSH1 0x1 PUSH1 0xA0 SHL SUB DUP2 AND DUP2 EQ PUSH2 0x8B JUMPI PUSH1 0x0 DUP1 REVERT JUMPDEST SWAP4 SWAP3 POP POP POP JUMP JUMPDEST PUSH2 0x15C7 DUP1 PUSH2 0xA1 PUSH1 0x0 CODECOPY PUSH1 0x0 RETURN INVALID PUSH1 0x80 PUSH1 0x40 MSTORE PUSH1 0x4 CALLDATASIZE LT PUSH2 0xE7 JUMPI PUSH1 0x0 CALLDATALOAD PUSH1 0xE0 SHR DUP1 PUSH4 0x8DA5CB5B GT PUSH2 0x8A JUMPI DUP1 PUSH4 0xD26A0880 GT PUSH2 0x59 JUMPI DUP1 PUSH4 0xD26A0880 EQ PUSH2 0x2AF JUMPI DUP1 PUSH4 0xE9DF3027 EQ PUSH2 0x2DF JUMPI DUP1 PUSH4 0xF1C6BDF8 EQ PUSH2 0x2FF JUMPI DUP1 PUSH4 0xF579F882 EQ PUSH2 0x31F JUMPI PUSH1 0x0 DUP1 REVERT JUMPDEST DUP1 PUSH4 0x8DA5CB5B EQ PUSH2 0x21C JUMPI DUP1 PUSH4 0xB2C553B2 EQ PUSH2 0x254 JUMPI DUP1 PUSH4 0xB401FAF1 EQ PUSH2 0x287 JUMPI DUP1 PUSH4 0xBF474766 EQ PUSH2 0x29C JUMPI PUSH1 0x0 DUP1 REVERT JUMPDEST DUP1 PUSH4 0x248C523A GT PUSH2 0xC6 JUMPI DUP1 PUSH4 0x248C523A EQ PUSH2 0x18D JUMPI DUP1 PUSH4 0x252F4D81 EQ PUSH2 0x1A2 JUMPI DUP1 PUSH4 0x3F7121B0 EQ PUSH2 0x1CF JUMPI DUP1 PUSH4 0x70180BC1 EQ PUSH2 0x1EF JUMPI PUSH1 0x0 DUP1 REVERT JUMPDEST DUP1 PUSH3 0xBC7893 EQ PUSH2 0xEC JUMPI DUP1 PUSH4 0x1B76929C EQ PUSH2 0x135 JUMPI DUP1 PUSH4 0x2315BBE3 EQ PUSH2 0x157 JUMPI JUMPDEST PUSH1 0x0 DUP1 REVERT JUMPDEST CALLVALUE DUP1 ISZERO PUSH2 0xF8 JUMPI PUSH1 0x0 DUP1 REVERT JUMPDEST POP PUSH2 0x122 PUSH2 0x107 CALLDATASIZE PUSH1 0x4 PUSH2 0x12CB JUMP JUMPDEST PUSH1 0x1 PUSH1 0x1 PUSH1 0xA0 SHL SUB AND PUSH1 0x0 SWAP1 DUP2 MSTORE PUSH1 0x4 PUSH1 0x20 MSTORE PUSH1 0x40 SWAP1 KECCAK256 SLOAD SWAP1 JUMP JUMPDEST PUSH1 0x40 MLOAD SWAP1 DUP2 MSTORE PUSH1 0x20 ADD JUMPDEST PUSH1 0x40 MLOAD DUP1 SWAP2 SUB SWAP1 RETURN JUMPDEST CALLVALUE DUP1 ISZERO PUSH2 0x141 JUMPI PUSH1 0x0 DUP1 REVERT JUMPDEST POP PUSH2 0x14A PUSH2 0x39D JUMP JUMPDEST PUSH1 0x40 MLOAD PUSH2 0x12C SWAP2 SWAP1 PUSH2 0x12ED JUMP JUMPDEST CALLVALUE DUP1 ISZERO PUSH2 0x163 JUMPI PUSH1 0x0 DUP1 REVERT JUMPDEST POP PUSH2 0x122 PUSH2 0x172 CALLDATASIZE PUSH1 0x4 PUSH2 0x12CB JUMP JUMPDEST PUSH1 0x1 PUSH1 0x1 PUSH1 0xA0 SHL SUB AND PUSH1 0x0 SWAP1 DUP2 MSTORE PUSH1 0x5 PUSH1 0x20 MSTORE PUSH1 0x40 SWAP1 KECCAK256 SLOAD SWAP1 JUMP JUMPDEST PUSH2 0x1A0 PUSH2 0x19B CALLDATASIZE PUSH1 0x4 PUSH2 0x1331 JUMP JUMPDEST PUSH2 0x52D JUMP JUMPDEST STOP JUMPDEST CALLVALUE DUP1 ISZERO PUSH2 0x1AE JUMPI PUSH1 0x0 DUP1 REVERT JUMPDEST POP PUSH2 0x122 PUSH2 0x1BD CALLDATASIZE PUSH1 0x4 PUSH2 0x12CB JUMP JUMPDEST PUSH1 0x4 PUSH1 0x20 MSTORE PUSH1 0x0 SWAP1 DUP2 MSTORE PUSH1 0x40 SWAP1 KECCAK256 SLOAD DUP2 JUMP JUMPDEST CALLVALUE DUP1 ISZERO PUSH2 0x1DB JUMPI PUSH1 0x0 DUP1 REVERT JUMPDEST POP PUSH2 0x1A0 PUSH2 0x1EA CALLDATASIZE PUSH1 0x4 PUSH2 0x135D JUMP JUMPDEST PUSH2 0x90B JUMP JUMPDEST CALLVALUE DUP1 ISZERO PUSH2 0x1FB JUMPI PUSH1 0x0 DUP1 REVERT JUMPDEST POP PUSH2 0x122 PUSH2 0x20A CALLDATASIZE PUSH1 0x4 PUSH2 0x12CB JUMP JUMPDEST PUSH1 0x5 PUSH1 0x20 MSTORE PUSH1 0x0 SWAP1 DUP2 MSTORE PUSH1 0x40 SWAP1 KECCAK256 SLOAD DUP2 JUMP JUMPDEST CALLVALUE DUP1 ISZERO PUSH2 0x228 JUMPI PUSH1 0x0 DUP1 REVERT JUMPDEST POP PUSH1 0x2 SLOAD PUSH2 0x23C SWAP1 PUSH1 0x1 PUSH1 0x1 PUSH1 0xA0 SHL SUB AND DUP2 JUMP JUMPDEST PUSH1 0x40 MLOAD PUSH1 0x1 PUSH1 0x1 PUSH1 0xA0 SHL SUB SWAP1 SWAP2 AND DUP2 MSTORE PUSH1 0x20 ADD PUSH2 0x12C JUMP JUMPDEST CALLVALUE DUP1 ISZERO PUSH2 0x260 JUMPI PUSH1 0x0 DUP1 REVERT JUMPDEST POP PUSH2 0x274 PUSH2 0x26F CALLDATASIZE PUSH1 0x4 PUSH2 0x135D JUMP JUMPDEST PUSH2 0xA22 JUMP JUMPDEST PUSH1 0x40 MLOAD PUSH2 0x12C SWAP8 SWAP7 SWAP6 SWAP5 SWAP4 SWAP3 SWAP2 SWAP1 PUSH2 0x1376 JUMP JUMPDEST CALLVALUE DUP1 ISZERO PUSH2 0x293 JUMPI PUSH1 0x0 DUP1 REVERT JUMPDEST POP PUSH2 0x1A0 PUSH2 0xAF2 JUMP JUMPDEST PUSH2 0x1A0 PUSH2 0x2AA CALLDATASIZE PUSH1 0x4 PUSH2 0x135D JUMP JUMPDEST PUSH2 0xC2A JUMP JUMPDEST CALLVALUE DUP1 ISZERO PUSH2 0x2BB JUMPI PUSH1 0x0 DUP1 REVERT JUMPDEST POP PUSH2 0x2CF PUSH2 0x2CA CALLDATASIZE PUSH1 0x4 PUSH2 0x13F5 JUMP JUMPDEST PUSH2 0xF71 JUMP JUMPDEST PUSH1 0x40 MLOAD SWAP1 ISZERO ISZERO DUP2 MSTORE PUSH1 0x20 ADD PUSH2 0x12C JUMP JUMPDEST CALLVALUE DUP1 ISZERO PUSH2 0x2EB JUMPI PUSH1 0x0 DUP1 REVERT JUMPDEST POP PUSH2 0x1A0 PUSH2 0x2FA CALLDATASIZE PUSH1 0x4 PUSH2 0x13F5 JUMP JUMPDEST PUSH2 0x101B JUMP JUMPDEST CALLVALUE DUP1 ISZERO PUSH2 0x30B JUMPI PUSH1 0x0 DUP1 REVERT JUMPDEST POP PUSH1 0x1 SLOAD PUSH2 0x23C SWAP1 PUSH1 0x1 PUSH1 0x1 PUSH1 0xA0 SHL SUB AND DUP2 JUMP JUMPDEST CALLVALUE DUP1 ISZERO PUSH2 0x32B JUMPI PUSH1 0x0 DUP1 REVERT JUMPDEST POP PUSH2 0x38A PUSH2 0x33A CALLDATASIZE PUSH1 0x4 PUSH2 0x135D JUMP JUMPDEST PUSH1 0x3 PUSH1 0x20 DUP2 SWAP1 MSTORE PUSH1 0x0 SWAP2 DUP3 MSTORE PUSH1 0x40 SWAP1 SWAP2 KECCAK256 PUSH1 0x1 DUP2 ADD SLOAD PUSH1 0x2 DUP3 ADD SLOAD SWAP3 DUP3 ADD SLOAD PUSH1 0x4 DUP4 ADD SLOAD PUSH1 0x5 DUP5 ADD SLOAD PUSH1 0x6 DUP6 ADD SLOAD PUSH1 0x7 SWAP1 SWAP6 ADD SLOAD SWAP4 SWAP6 SWAP5 PUSH1 0xFF SWAP1 SWAP4 AND SWAP4 SWAP2 SWAP3 SWAP1 SWAP2 PUSH1 0x1 PUSH1 0x1 PUSH1 0xA0 SHL SUB SWAP1 SWAP2 AND SWAP1 DUP8 JUMP JUMPDEST PUSH1 0x40 MLOAD PUSH2 0x12C SWAP8 SWAP7 SWAP6 SWAP5 SWAP4 SWAP3 SWAP2 SWAP1 PUSH2 0x1437 JUMP JUMPDEST PUSH1 0x40 DUP1 MLOAD PUSH1 0xA DUP1 DUP3 MSTORE PUSH2 0x160 DUP3 ADD SWAP1 SWAP3 MSTORE PUSH1 0x60 SWAP2 PUSH1 0x0 SWAP2 SWAP1 PUSH1 0x20 DUP3 ADD PUSH2 0x140 DUP1 CALLDATASIZE DUP4 CALLDATACOPY ADD SWAP1 POP POP SWAP1 POP PUSH1 0x0 DUP1 JUMPDEST PUSH1 0xA DUP2 LT ISZERO PUSH2 0x489 JUMPI PUSH1 0x0 DUP2 DUP2 MSTORE PUSH1 0x3 PUSH1 0x20 MSTORE PUSH1 0x40 SWAP1 KECCAK256 SLOAD DUP2 SWAP1 ISZERO DUP1 ISZERO SWAP1 PUSH2 0x445 JUMPI POP PUSH1 0x0 DUP2 DUP2 MSTORE PUSH1 0x3 PUSH1 0x20 DUP2 SWAP1 MSTORE PUSH1 0x40 DUP3 KECCAK256 DUP2 ADD SLOAD PUSH1 0xFF AND SWAP1 DUP2 GT ISZERO PUSH2 0x413 JUMPI PUSH2 0x413 PUSH2 0x1421 JUMP JUMPDEST EQ DUP1 PUSH2 0x445 JUMPI POP PUSH1 0x1 PUSH1 0x0 DUP3 DUP2 MSTORE PUSH1 0x3 PUSH1 0x20 DUP2 SWAP1 MSTORE PUSH1 0x40 SWAP1 SWAP2 KECCAK256 DUP2 ADD SLOAD PUSH1 0xFF AND SWAP1 DUP2 GT ISZERO PUSH2 0x443 JUMPI PUSH2 0x443 PUSH2 0x1421 JUMP JUMPDEST EQ JUMPDEST ISZERO PUSH2 0x476 JUMPI DUP1 DUP5 DUP5 DUP2 MLOAD DUP2 LT PUSH2 0x45D JUMPI PUSH2 0x45D PUSH2 0x14AB JUMP JUMPDEST PUSH1 0x20 SWAP1 DUP2 MUL SWAP2 SWAP1 SWAP2 ADD ADD MSTORE DUP3 PUSH2 0x472 DUP2 PUSH2 0x14D7 JUMP JUMPDEST SWAP4 POP POP JUMPDEST POP DUP1 PUSH2 0x481 DUP2 PUSH2 0x14D7 JUMP JUMPDEST SWAP2 POP POP PUSH2 0x3CA JUMP JUMPDEST POP PUSH1 0x0 DUP2 PUSH8 0xFFFFFFFFFFFFFFFF DUP2 GT ISZERO PUSH2 0x4A5 JUMPI PUSH2 0x4A5 PUSH2 0x1495 JUMP JUMPDEST PUSH1 0x40 MLOAD SWAP1 DUP1 DUP3 MSTORE DUP1 PUSH1 0x20 MUL PUSH1 0x20 ADD DUP3 ADD PUSH1 0x40 MSTORE DUP1 ISZERO PUSH2 0x4CE JUMPI DUP2 PUSH1 0x20 ADD PUSH1 0x20 DUP3 MUL DUP1 CALLDATASIZE DUP4 CALLDATACOPY ADD SWAP1 POP JUMPDEST POP SWAP1 POP PUSH1 0x0 JUMPDEST DUP3 DUP2 LT ISZERO PUSH2 0x525 JUMPI DUP4 DUP2 DUP2 MLOAD DUP2 LT PUSH2 0x4EE JUMPI PUSH2 0x4EE PUSH2 0x14AB JUMP JUMPDEST PUSH1 0x20 MUL PUSH1 0x20 ADD ADD MLOAD DUP3 DUP3 DUP2 MLOAD DUP2 LT PUSH2 0x508 JUMPI PUSH2 0x508 PUSH2 0x14AB JUMP JUMPDEST PUSH1 0x20 SWAP1 DUP2 MUL SWAP2 SWAP1 SWAP2 ADD ADD MSTORE DUP1 PUSH2 0x51D DUP2 PUSH2 0x14D7 JUMP JUMPDEST SWAP2 POP POP PUSH2 0x4D4 JUMP JUMPDEST POP SWAP4 SWAP3 POP POP POP JUMP JUMPDEST PUSH2 0x535 PUSH2 0x11DC JUMP JUMPDEST PUSH1 0x0 DUP4 DUP2 MSTORE PUSH1 0x3 PUSH1 0x20 MSTORE PUSH1 0x40 SWAP1 KECCAK256 SLOAD ISZERO PUSH2 0x58C JUMPI PUSH1 0x40 MLOAD PUSH3 0x461BCD PUSH1 0xE5 SHL DUP2 MSTORE PUSH1 0x20 PUSH1 0x4 DUP3 ADD MSTORE PUSH1 0x13 PUSH1 0x24 DUP3 ADD MSTORE PUSH19 0x47616D6520616C726561647920657869737473 PUSH1 0x68 SHL PUSH1 0x44 DUP3 ADD MSTORE PUSH1 0x64 ADD JUMPDEST PUSH1 0x40 MLOAD DUP1 SWAP2 SUB SWAP1 REVERT JUMPDEST PUSH1 0x0 DUP3 GT PUSH2 0x5DC JUMPI PUSH1 0x40 MLOAD PUSH3 0x461BCD PUSH1 0xE5 SHL DUP2 MSTORE PUSH1 0x20 PUSH1 0x4 DUP3 ADD MSTORE PUSH1 0x17 PUSH1 0x24 DUP3 ADD MSTORE PUSH32 0x4275792D696E206D75737420626520706F736974697665000000000000000000 PUSH1 0x44 DUP3 ADD MSTORE PUSH1 0x64 ADD PUSH2 0x583 JUMP JUMPDEST PUSH1 0x2 DUP2 LT ISZERO DUP1 ISZERO PUSH2 0x5EE JUMPI POP PUSH1 0xA DUP2 GT ISZERO JUMPDEST PUSH2 0x631 JUMPI PUSH1 0x40 MLOAD PUSH3 0x461BCD PUSH1 0xE5 SHL DUP2 MSTORE PUSH1 0x20 PUSH1 0x4 DUP3 ADD MSTORE PUSH1 0x14 PUSH1 0x24 DUP3 ADD MSTORE PUSH20 0x125B9D985B1A59081C1B185E595C8818DBDD5B9D PUSH1 0x62 SHL PUSH1 0x44 DUP3 ADD MSTORE PUSH1 0x64 ADD PUSH2 0x583 JUMP JUMPDEST DUP2 CALLVALUE EQ PUSH2 0x67A JUMPI PUSH1 0x40 MLOAD PUSH3 0x461BCD PUSH1 0xE5 SHL DUP2 MSTORE PUSH1 0x20 PUSH1 0x4 DUP3 ADD MSTORE PUSH1 0x17 PUSH1 0x24 DUP3 ADD MSTORE PUSH23 0x125B98DBDC9C9958DD08189D5E4B5A5B88185B5BDD5B9D PUSH1 0x4A SHL PUSH1 0x44 DUP3 ADD MSTORE PUSH1 0x64 ADD PUSH2 0x583 JUMP JUMPDEST PUSH1 0x1 SLOAD PUSH1 0x40 MLOAD ADDRESS PUSH1 0x24 DUP3 ADD MSTORE PUSH1 0x0 SWAP2 PUSH1 0x1 PUSH1 0x1 PUSH1 0xA0 SHL SUB AND SWAP1 CALLVALUE SWAP1 PUSH1 0x44 ADD PUSH1 0x40 DUP1 MLOAD PUSH1 0x1F NOT DUP2 DUP5 SUB ADD DUP2 MSTORE SWAP2 DUP2 MSTORE PUSH1 0x20 DUP3 ADD DUP1 MLOAD PUSH1 0x1 PUSH1 0x1 PUSH1 0xE0 SHL SUB AND PUSH4 0xB07CE025 PUSH1 0xE0 SHL OR SWAP1 MSTORE MLOAD PUSH2 0x6CD SWAP2 SWAP1 PUSH2 0x14F0 JUMP JUMPDEST PUSH1 0x0 PUSH1 0x40 MLOAD DUP1 DUP4 SUB DUP2 DUP6 DUP8 GAS CALL SWAP3 POP POP POP RETURNDATASIZE DUP1 PUSH1 0x0 DUP2 EQ PUSH2 0x70A JUMPI PUSH1 0x40 MLOAD SWAP2 POP PUSH1 0x1F NOT PUSH1 0x3F RETURNDATASIZE ADD AND DUP3 ADD PUSH1 0x40 MSTORE RETURNDATASIZE DUP3 MSTORE RETURNDATASIZE PUSH1 0x0 PUSH1 0x20 DUP5 ADD RETURNDATACOPY PUSH2 0x70F JUMP JUMPDEST PUSH1 0x60 SWAP2 POP JUMPDEST POP POP SWAP1 POP DUP1 PUSH2 0x75C JUMPI PUSH1 0x40 MLOAD PUSH3 0x461BCD PUSH1 0xE5 SHL DUP2 MSTORE PUSH1 0x20 PUSH1 0x4 DUP3 ADD MSTORE PUSH1 0x19 PUSH1 0x24 DUP3 ADD MSTORE PUSH25 0x14185E5B595B9D081C1C9BD8D95CDCDA5B99C819985A5B1959 PUSH1 0x3A SHL PUSH1 0x44 DUP3 ADD MSTORE PUSH1 0x64 ADD PUSH2 0x583 JUMP JUMPDEST PUSH1 0x40 DUP1 MLOAD PUSH1 0x1 DUP1 DUP3 MSTORE DUP2 DUP4 ADD SWAP1 SWAP3 MSTORE PUSH1 0x0 SWAP2 PUSH1 0x20 DUP1 DUP4 ADD SWAP1 DUP1 CALLDATASIZE DUP4 CALLDATACOPY ADD SWAP1 POP POP SWAP1 POP CALLER DUP2 PUSH1 0x0 DUP2 MLOAD DUP2 LT PUSH2 0x792 JUMPI PUSH2 0x792 PUSH2 0x14AB JUMP JUMPDEST PUSH1 0x1 PUSH1 0x1 PUSH1 0xA0 SHL SUB SWAP3 SWAP1 SWAP3 AND PUSH1 0x20 SWAP3 DUP4 MUL SWAP2 SWAP1 SWAP2 ADD DUP3 ADD MSTORE PUSH1 0x40 DUP1 MLOAD PUSH2 0x100 DUP2 ADD DUP3 MSTORE DUP4 DUP2 MSTORE DUP1 DUP4 ADD DUP8 SWAP1 MSTORE DUP1 DUP3 ADD DUP8 SWAP1 MSTORE PUSH1 0x0 PUSH1 0x60 DUP3 ADD DUP2 SWAP1 MSTORE TIMESTAMP PUSH1 0x80 DUP4 ADD MSTORE PUSH1 0xA0 DUP3 ADD DUP8 SWAP1 MSTORE PUSH1 0xC0 DUP3 ADD DUP2 SWAP1 MSTORE PUSH1 0xE0 DUP3 ADD DUP10 SWAP1 MSTORE DUP9 DUP2 MSTORE PUSH1 0x3 DUP5 MSTORE SWAP2 SWAP1 SWAP2 KECCAK256 DUP2 MLOAD DUP1 MLOAD SWAP3 SWAP4 SWAP2 SWAP3 PUSH2 0x808 SWAP3 DUP5 SWAP3 ADD SWAP1 PUSH2 0x1235 JUMP JUMPDEST POP PUSH1 0x20 DUP3 ADD MLOAD DUP2 PUSH1 0x1 ADD SSTORE PUSH1 0x40 DUP3 ADD MLOAD DUP2 PUSH1 0x2 ADD SSTORE PUSH1 0x60 DUP3 ADD MLOAD DUP2 PUSH1 0x3 ADD PUSH1 0x0 PUSH2 0x100 EXP DUP2 SLOAD DUP2 PUSH1 0xFF MUL NOT AND SWAP1 DUP4 PUSH1 0x3 DUP2 GT ISZERO PUSH2 0x847 JUMPI PUSH2 0x847 PUSH2 0x1421 JUMP JUMPDEST MUL OR SWAP1 SSTORE POP PUSH1 0x80 DUP3 ADD MLOAD PUSH1 0x4 DUP3 ADD SSTORE PUSH1 0xA0 DUP3 ADD MLOAD PUSH1 0x5 DUP1 DUP4 ADD SWAP2 SWAP1 SWAP2 SSTORE PUSH1 0xC0 DUP4 ADD MLOAD PUSH1 0x6 DUP4 ADD DUP1 SLOAD PUSH1 0x1 PUSH1 0x1 PUSH1 0xA0 SHL SUB NOT AND PUSH1 0x1 PUSH1 0x1 PUSH1 0xA0 SHL SUB SWAP1 SWAP3 AND SWAP2 SWAP1 SWAP2 OR SWAP1 SSTORE PUSH1 0xE0 SWAP1 SWAP3 ADD MLOAD PUSH1 0x7 SWAP1 SWAP2 ADD SSTORE CALLER PUSH1 0x0 SWAP1 DUP2 MSTORE PUSH1 0x20 SWAP2 SWAP1 SWAP2 MSTORE PUSH1 0x40 DUP2 KECCAK256 DUP1 SLOAD SWAP2 PUSH2 0x8B2 DUP4 PUSH2 0x14D7 JUMP JUMPDEST SWAP1 SWAP2 SSTORE POP POP PUSH1 0x40 DUP1 MLOAD CALLER DUP2 MSTORE PUSH1 0x20 DUP2 ADD DUP7 SWAP1 MSTORE SWAP1 DUP2 ADD DUP5 SWAP1 MSTORE DUP6 SWAP1 PUSH32 0xA704BB051AF5B1DB9E96F77B61081D382FF963E46371F5057868D19EEF2DEE35 SWAP1 PUSH1 0x60 ADD PUSH1 0x40 MLOAD DUP1 SWAP2 SUB SWAP1 LOG2 POP POP PUSH2 0x906 PUSH1 0x1 PUSH1 0x0 SSTORE JUMP JUMPDEST POP POP POP JUMP JUMPDEST PUSH1 0x0 DUP2 DUP2 MSTORE PUSH1 0x3 PUSH1 0x20 MSTORE PUSH1 0x40 SWAP1 KECCAK256 SLOAD DUP2 SWAP1 PUSH2 0x938 JUMPI PUSH1 0x40 MLOAD PUSH3 0x461BCD PUSH1 0xE5 SHL DUP2 MSTORE PUSH1 0x4 ADD PUSH2 0x583 SWAP1 PUSH2 0x151F JUMP JUMPDEST DUP2 PUSH1 0x0 DUP1 PUSH1 0x0 DUP4 DUP2 MSTORE PUSH1 0x3 PUSH1 0x20 DUP2 SWAP1 MSTORE PUSH1 0x40 SWAP1 SWAP2 KECCAK256 DUP2 ADD SLOAD PUSH1 0xFF AND SWAP1 DUP2 GT ISZERO PUSH2 0x963 JUMPI PUSH2 0x963 PUSH2 0x1421 JUMP JUMPDEST EQ PUSH2 0x980 JUMPI PUSH1 0x40 MLOAD PUSH3 0x461BCD PUSH1 0xE5 SHL DUP2 MSTORE PUSH1 0x4 ADD PUSH2 0x583 SWAP1 PUSH2 0x154C JUMP JUMPDEST PUSH1 0x2 SLOAD PUSH1 0x1 PUSH1 0x1 PUSH1 0xA0 SHL SUB AND CALLER EQ PUSH2 0x9C6 JUMPI PUSH1 0x40 MLOAD PUSH3 0x461BCD PUSH1 0xE5 SHL DUP2 MSTORE PUSH1 0x20 PUSH1 0x4 DUP3 ADD MSTORE PUSH1 0x9 PUSH1 0x24 DUP3 ADD MSTORE PUSH9 0x2737BA1037BBB732B9 PUSH1 0xB9 SHL PUSH1 0x44 DUP3 ADD MSTORE PUSH1 0x64 ADD PUSH2 0x583 JUMP JUMPDEST PUSH1 0x0 DUP5 DUP2 MSTORE PUSH1 0x3 PUSH1 0x20 DUP2 DUP2 MSTORE PUSH1 0x40 SWAP3 DUP4 SWAP1 KECCAK256 DUP1 DUP4 ADD DUP1 SLOAD PUSH1 0xFF NOT AND SWAP1 SWAP4 OR SWAP1 SWAP3 SSTORE SWAP2 MLOAD CALLER DUP2 MSTORE SWAP1 SWAP2 DUP7 SWAP2 PUSH32 0x9B8A8869712403010131240192D2CCDCAAF3462E3D937653CBD3C5AA49821106 SWAP2 ADD PUSH1 0x40 MLOAD DUP1 SWAP2 SUB SWAP1 LOG2 POP POP POP POP POP JUMP JUMPDEST PUSH1 0x0 DUP2 DUP2 MSTORE PUSH1 0x3 PUSH1 0x20 DUP2 SWAP1 MSTORE PUSH1 0x40 DUP3 KECCAK256 PUSH1 0x1 DUP2 ADD SLOAD PUSH1 0x2 DUP3 ADD SLOAD DUP3 DUP5 ADD SLOAD PUSH1 0x60 SWAP6 SWAP5 DUP6 SWAP5 DUP6 SWAP5 DUP6 SWAP5 DUP6 SWAP5 DUP6 SWAP5 DUP5 SWAP4 SWAP3 SWAP2 PUSH1 0xFF AND SWAP1 DUP2 GT ISZERO PUSH2 0xA65 JUMPI PUSH2 0xA65 PUSH2 0x1421 JUMP JUMPDEST PUSH1 0x4 DUP6 ADD SLOAD PUSH1 0x5 DUP7 ADD SLOAD PUSH1 0x6 DUP8 ADD SLOAD DUP7 SLOAD PUSH1 0x40 DUP1 MLOAD PUSH1 0x20 DUP1 DUP5 MUL DUP3 ADD DUP2 ADD SWAP1 SWAP3 MSTORE DUP3 DUP2 MSTORE PUSH1 0x1 PUSH1 0x1 PUSH1 0xA0 SHL SUB SWAP1 SWAP4 AND SWAP3 SWAP2 DUP10 SWAP2 DUP4 ADD DUP3 DUP3 DUP1 ISZERO PUSH2 0xAD1 JUMPI PUSH1 0x20 MUL DUP3 ADD SWAP2 SWAP1 PUSH1 0x0 MSTORE PUSH1 0x20 PUSH1 0x0 KECCAK256 SWAP1 JUMPDEST DUP2 SLOAD PUSH1 0x1 PUSH1 0x1 PUSH1 0xA0 SHL SUB AND DUP2 MSTORE PUSH1 0x1 SWAP1 SWAP2 ADD SWAP1 PUSH1 0x20 ADD DUP1 DUP4 GT PUSH2 0xAB3 JUMPI JUMPDEST POP POP POP POP POP SWAP7 POP SWAP8 POP SWAP8 POP SWAP8 POP SWAP8 POP SWAP8 POP SWAP8 POP SWAP8 POP POP SWAP2 SWAP4 SWAP6 SWAP8 SWAP1 SWAP3 SWAP5 SWAP7 POP JUMP JUMPDEST PUSH2 0xAFA PUSH2 0x11DC JUMP JUMPDEST CALLER PUSH1 0x0 SWAP1 DUP2 MSTORE PUSH1 0x4 PUSH1 0x20 MSTORE PUSH1 0x40 SWAP1 KECCAK256 SLOAD DUP1 PUSH2 0xB4E JUMPI PUSH1 0x40 MLOAD PUSH3 0x461BCD PUSH1 0xE5 SHL DUP2 MSTORE PUSH1 0x20 PUSH1 0x4 DUP3 ADD MSTORE PUSH1 0x14 PUSH1 0x24 DUP3 ADD MSTORE PUSH20 0x4E6F2077696E6E696E677320746F20636C61696D PUSH1 0x60 SHL PUSH1 0x44 DUP3 ADD MSTORE PUSH1 0x64 ADD PUSH2 0x583 JUMP JUMPDEST CALLER PUSH1 0x0 DUP2 DUP2 MSTORE PUSH1 0x4 PUSH1 0x20 MSTORE PUSH1 0x40 DUP1 DUP3 KECCAK256 DUP3 SWAP1 SSTORE MLOAD SWAP1 SWAP2 SWAP1 DUP4 SWAP1 DUP4 DUP2 DUP2 DUP2 DUP6 DUP8 GAS CALL SWAP3 POP POP POP RETURNDATASIZE DUP1 PUSH1 0x0 DUP2 EQ PUSH2 0xB9F JUMPI PUSH1 0x40 MLOAD SWAP2 POP PUSH1 0x1F NOT PUSH1 0x3F RETURNDATASIZE ADD AND DUP3 ADD PUSH1 0x40 MSTORE RETURNDATASIZE DUP3 MSTORE RETURNDATASIZE PUSH1 0x0 PUSH1 0x20 DUP5 ADD RETURNDATACOPY PUSH2 0xBA4 JUMP JUMPDEST PUSH1 0x60 SWAP2 POP JUMPDEST POP POP SWAP1 POP DUP1 PUSH2 0xBE7 JUMPI PUSH1 0x40 MLOAD PUSH3 0x461BCD PUSH1 0xE5 SHL DUP2 MSTORE PUSH1 0x20 PUSH1 0x4 DUP3 ADD MSTORE PUSH1 0xF PUSH1 0x24 DUP3 ADD MSTORE PUSH15 0x151C985B9CD9995C8819985A5B1959 PUSH1 0x8A SHL PUSH1 0x44 DUP3 ADD MSTORE PUSH1 0x64 ADD PUSH2 0x583 JUMP JUMPDEST PUSH1 0x40 MLOAD DUP3 DUP2 MSTORE CALLER SWAP1 PUSH32 0x1A31E733A172AFCF46074B3106C17F0C298E226442682A03C1E99CE256139EC2 SWAP1 PUSH1 0x20 ADD PUSH1 0x40 MLOAD DUP1 SWAP2 SUB SWAP1 LOG2 POP POP PUSH2 0xC28 PUSH1 0x1 PUSH1 0x0 SSTORE JUMP JUMPDEST JUMP JUMPDEST PUSH2 0xC32 PUSH2 0x11DC JUMP JUMPDEST PUSH1 0x0 DUP2 DUP2 MSTORE PUSH1 0x3 PUSH1 0x20 MSTORE PUSH1 0x40 SWAP1 KECCAK256 SLOAD DUP2 SWAP1 PUSH2 0xC5F JUMPI PUSH1 0x40 MLOAD PUSH3 0x461BCD PUSH1 0xE5 SHL DUP2 MSTORE PUSH1 0x4 ADD PUSH2 0x583 SWAP1 PUSH2 0x151F JUMP JUMPDEST DUP2 PUSH1 0x0 DUP1 PUSH1 0x0 DUP4 DUP2 MSTORE PUSH1 0x3 PUSH1 0x20 DUP2 SWAP1 MSTORE PUSH1 0x40 SWAP1 SWAP2 KECCAK256 DUP2 ADD SLOAD PUSH1 0xFF AND SWAP1 DUP2 GT ISZERO PUSH2 0xC8A JUMPI PUSH2 0xC8A PUSH2 0x1421 JUMP JUMPDEST EQ PUSH2 0xCA7 JUMPI PUSH1 0x40 MLOAD PUSH3 0x461BCD PUSH1 0xE5 SHL DUP2 MSTORE PUSH1 0x4 ADD PUSH2 0x583 SWAP1 PUSH2 0x154C JUMP JUMPDEST PUSH1 0x0 DUP5 DUP2 MSTORE PUSH1 0x3 PUSH1 0x20 MSTORE PUSH1 0x40 SWAP1 KECCAK256 PUSH1 0x5 DUP2 ADD SLOAD DUP2 SLOAD LT PUSH2 0xCF5 JUMPI PUSH1 0x40 MLOAD PUSH3 0x461BCD PUSH1 0xE5 SHL DUP2 MSTORE PUSH1 0x20 PUSH1 0x4 DUP3 ADD MSTORE PUSH1 0x9 PUSH1 0x24 DUP3 ADD MSTORE PUSH9 0x11D85B5948199D5B1B PUSH1 0xBA SHL PUSH1 0x44 DUP3 ADD MSTORE PUSH1 0x64 ADD PUSH2 0x583 JUMP JUMPDEST DUP1 PUSH1 0x1 ADD SLOAD CALLVALUE EQ PUSH2 0xD42 JUMPI PUSH1 0x40 MLOAD PUSH3 0x461BCD PUSH1 0xE5 SHL DUP2 MSTORE PUSH1 0x20 PUSH1 0x4 DUP3 ADD MSTORE PUSH1 0x17 PUSH1 0x24 DUP3 ADD MSTORE PUSH23 0x125B98DBDC9C9958DD08189D5E4B5A5B88185B5BDD5B9D PUSH1 0x4A SHL PUSH1 0x44 DUP3 ADD MSTORE PUSH1 0x64 ADD PUSH2 0x583 JUMP JUMPDEST PUSH1 0x0 JUMPDEST DUP2 SLOAD DUP2 LT ISZERO PUSH2 0xDC9 JUMPI DUP2 SLOAD CALLER SWAP1 DUP4 SWAP1 DUP4 SWAP1 DUP2 LT PUSH2 0xD64 JUMPI PUSH2 0xD64 PUSH2 0x14AB JUMP JUMPDEST PUSH1 0x0 SWAP2 DUP3 MSTORE PUSH1 0x20 SWAP1 SWAP2 KECCAK256 ADD SLOAD PUSH1 0x1 PUSH1 0x1 PUSH1 0xA0 SHL SUB AND SUB PUSH2 0xDB7 JUMPI PUSH1 0x40 MLOAD PUSH3 0x461BCD PUSH1 0xE5 SHL DUP2 MSTORE PUSH1 0x20 PUSH1 0x4 DUP3 ADD MSTORE PUSH1 0xE PUSH1 0x24 DUP3 ADD MSTORE PUSH14 0x105B1C9958591E481A9BDA5B9959 PUSH1 0x92 SHL PUSH1 0x44 DUP3 ADD MSTORE PUSH1 0x64 ADD PUSH2 0x583 JUMP JUMPDEST DUP1 PUSH2 0xDC1 DUP2 PUSH2 0x14D7 JUMP JUMPDEST SWAP2 POP POP PUSH2 0xD45 JUMP JUMPDEST POP PUSH1 0x1 SLOAD PUSH1 0x40 MLOAD ADDRESS PUSH1 0x24 DUP3 ADD MSTORE PUSH1 0x0 SWAP2 PUSH1 0x1 PUSH1 0x1 PUSH1 0xA0 SHL SUB AND SWAP1 CALLVALUE SWAP1 PUSH1 0x44 ADD PUSH1 0x40 DUP1 MLOAD PUSH1 0x1F NOT DUP2 DUP5 SUB ADD DUP2 MSTORE SWAP2 DUP2 MSTORE PUSH1 0x20 DUP3 ADD DUP1 MLOAD PUSH1 0x1 PUSH1 0x1 PUSH1 0xE0 SHL SUB AND PUSH4 0xB07CE025 PUSH1 0xE0 SHL OR SWAP1 MSTORE MLOAD PUSH2 0xE1D SWAP2 SWAP1 PUSH2 0x14F0 JUMP JUMPDEST PUSH1 0x0 PUSH1 0x40 MLOAD DUP1 DUP4 SUB DUP2 DUP6 DUP8 GAS CALL SWAP3 POP POP POP RETURNDATASIZE DUP1 PUSH1 0x0 DUP2 EQ PUSH2 0xE5A JUMPI PUSH1 0x40 MLOAD SWAP2 POP PUSH1 0x1F NOT PUSH1 0x3F RETURNDATASIZE ADD AND DUP3 ADD PUSH1 0x40 MSTORE RETURNDATASIZE DUP3 MSTORE RETURNDATASIZE PUSH1 0x0 PUSH1 0x20 DUP5 ADD RETURNDATACOPY PUSH2 0xE5F JUMP JUMPDEST PUSH1 0x60 SWAP2 POP JUMPDEST POP POP SWAP1 POP DUP1 PUSH2 0xEAC JUMPI PUSH1 0x40 MLOAD PUSH3 0x461BCD PUSH1 0xE5 SHL DUP2 MSTORE PUSH1 0x20 PUSH1 0x4 DUP3 ADD MSTORE PUSH1 0x19 PUSH1 0x24 DUP3 ADD MSTORE PUSH25 0x14185E5B595B9D081C1C9BD8D95CDCDA5B99C819985A5B1959 PUSH1 0x3A SHL PUSH1 0x44 DUP3 ADD MSTORE PUSH1 0x64 ADD PUSH2 0x583 JUMP JUMPDEST DUP2 SLOAD PUSH1 0x1 DUP2 ADD DUP4 SSTORE PUSH1 0x0 DUP4 DUP2 MSTORE PUSH1 0x20 DUP2 KECCAK256 SWAP1 SWAP2 ADD DUP1 SLOAD PUSH1 0x1 PUSH1 0x1 PUSH1 0xA0 SHL SUB NOT AND CALLER OR SWAP1 SSTORE PUSH1 0x2 DUP4 ADD DUP1 SLOAD CALLVALUE SWAP3 SWAP1 PUSH2 0xEE4 SWAP1 DUP5 SWAP1 PUSH2 0x1578 JUMP JUMPDEST SWAP1 SWAP2 SSTORE POP POP CALLER PUSH1 0x0 SWAP1 DUP2 MSTORE PUSH1 0x5 PUSH1 0x20 MSTORE PUSH1 0x40 DUP2 KECCAK256 DUP1 SLOAD SWAP2 PUSH2 0xF04 DUP4 PUSH2 0x14D7 JUMP JUMPDEST SWAP1 SWAP2 SSTORE POP POP PUSH1 0x40 DUP1 MLOAD CALLER DUP2 MSTORE CALLVALUE PUSH1 0x20 DUP3 ADD MSTORE DUP8 SWAP2 PUSH32 0x65525CF08411B7A61D237681A43890956AD2E2EDE88AFD947F58EB4158C37F95 SWAP2 ADD PUSH1 0x40 MLOAD DUP1 SWAP2 SUB SWAP1 LOG2 PUSH1 0x5 DUP3 ADD SLOAD DUP3 SLOAD SUB PUSH2 0xF5F JUMPI PUSH1 0x3 DUP3 ADD DUP1 SLOAD PUSH1 0xFF NOT AND PUSH1 0x1 OR SWAP1 SSTORE JUMPDEST POP POP POP POP POP PUSH2 0xF6E PUSH1 0x1 PUSH1 0x0 SSTORE JUMP JUMPDEST POP JUMP JUMPDEST PUSH1 0x0 DUP3 DUP2 MSTORE PUSH1 0x3 PUSH1 0x20 MSTORE PUSH1 0x40 DUP2 KECCAK256 SLOAD DUP4 SWAP1 PUSH2 0xF9E JUMPI PUSH1 0x40 MLOAD PUSH3 0x461BCD PUSH1 0xE5 SHL DUP2 MSTORE PUSH1 0x4 ADD PUSH2 0x583 SWAP1 PUSH2 0x151F JUMP JUMPDEST PUSH1 0x0 DUP5 DUP2 MSTORE PUSH1 0x3 PUSH1 0x20 MSTORE PUSH1 0x40 DUP2 KECCAK256 SWAP1 JUMPDEST DUP2 SLOAD DUP2 LT ISZERO PUSH2 0x100D JUMPI DUP5 PUSH1 0x1 PUSH1 0x1 PUSH1 0xA0 SHL SUB AND DUP3 PUSH1 0x0 ADD DUP3 DUP2 SLOAD DUP2 LT PUSH2 0xFD6 JUMPI PUSH2 0xFD6 PUSH2 0x14AB JUMP JUMPDEST PUSH1 0x0 SWAP2 DUP3 MSTORE PUSH1 0x20 SWAP1 SWAP2 KECCAK256 ADD SLOAD PUSH1 0x1 PUSH1 0x1 PUSH1 0xA0 SHL SUB AND SUB PUSH2 0xFFB JUMPI PUSH1 0x1 SWAP4 POP POP POP PUSH2 0x1014 JUMP JUMPDEST DUP1 PUSH2 0x1005 DUP2 PUSH2 0x14D7 JUMP JUMPDEST SWAP2 POP POP PUSH2 0xFAE JUMP JUMPDEST POP PUSH1 0x0 SWAP3 POP POP JUMPDEST POP SWAP3 SWAP2 POP POP JUMP JUMPDEST PUSH1 0x0 DUP3 DUP2 MSTORE PUSH1 0x3 PUSH1 0x20 MSTORE PUSH1 0x40 SWAP1 KECCAK256 SLOAD DUP3 SWAP1 PUSH2 0x1048 JUMPI PUSH1 0x40 MLOAD PUSH3 0x461BCD PUSH1 0xE5 SHL DUP2 MSTORE PUSH1 0x4 ADD PUSH2 0x583 SWAP1 PUSH2 0x151F JUMP JUMPDEST DUP3 PUSH1 0x1 DUP1 PUSH1 0x0 DUP4 DUP2 MSTORE PUSH1 0x3 PUSH1 0x20 DUP2 SWAP1 MSTORE PUSH1 0x40 SWAP1 SWAP2 KECCAK256 DUP2 ADD SLOAD PUSH1 0xFF AND SWAP1 DUP2 GT ISZERO PUSH2 0x1073 JUMPI PUSH2 0x1073 PUSH2 0x1421 JUMP JUMPDEST EQ PUSH2 0x1090 JUMPI PUSH1 0x40 MLOAD PUSH3 0x461BCD PUSH1 0xE5 SHL DUP2 MSTORE PUSH1 0x4 ADD PUSH2 0x583 SWAP1 PUSH2 0x154C JUMP JUMPDEST PUSH1 0x2 SLOAD PUSH1 0x1 PUSH1 0x1 PUSH1 0xA0 SHL SUB AND CALLER EQ PUSH2 0x10D6 JUMPI PUSH1 0x40 MLOAD PUSH3 0x461BCD PUSH1 0xE5 SHL DUP2 MSTORE PUSH1 0x20 PUSH1 0x4 DUP3 ADD MSTORE PUSH1 0x9 PUSH1 0x24 DUP3 ADD MSTORE PUSH9 0x2737BA1037BBB732B9 PUSH1 0xB9 SHL PUSH1 0x44 DUP3 ADD MSTORE PUSH1 0x64 ADD PUSH2 0x583 JUMP JUMPDEST PUSH1 0x0 DUP6 DUP2 MSTORE PUSH1 0x3 PUSH1 0x20 MSTORE PUSH1 0x40 SWAP1 KECCAK256 PUSH2 0x10EE DUP7 DUP7 PUSH2 0xF71 JUMP JUMPDEST PUSH2 0x112F JUMPI PUSH1 0x40 MLOAD PUSH3 0x461BCD PUSH1 0xE5 SHL DUP2 MSTORE PUSH1 0x20 PUSH1 0x4 DUP3 ADD MSTORE PUSH1 0x12 PUSH1 0x24 DUP3 ADD MSTORE PUSH18 0x57696E6E6572206E6F7420696E2067616D65 PUSH1 0x70 SHL PUSH1 0x44 DUP3 ADD MSTORE PUSH1 0x64 ADD PUSH2 0x583 JUMP JUMPDEST PUSH1 0x3 DUP2 ADD DUP1 SLOAD PUSH1 0xFF NOT AND PUSH1 0x2 SWAP1 DUP2 OR SWAP1 SWAP2 SSTORE PUSH1 0x6 DUP3 ADD DUP1 SLOAD PUSH1 0x1 PUSH1 0x1 PUSH1 0xA0 SHL SUB DUP9 AND PUSH1 0x1 PUSH1 0x1 PUSH1 0xA0 SHL SUB NOT SWAP1 SWAP2 AND DUP2 OR SWAP1 SWAP2 SSTORE SWAP1 DUP3 ADD SLOAD PUSH1 0x0 SWAP2 DUP3 MSTORE PUSH1 0x4 PUSH1 0x20 MSTORE PUSH1 0x40 DUP3 KECCAK256 DUP1 SLOAD SWAP2 SWAP3 SWAP1 SWAP2 PUSH2 0x1185 SWAP1 DUP5 SWAP1 PUSH2 0x1578 JUMP JUMPDEST SWAP1 SWAP2 SSTORE POP POP PUSH1 0x2 DUP2 ADD SLOAD PUSH1 0x40 DUP1 MLOAD PUSH1 0x1 PUSH1 0x1 PUSH1 0xA0 SHL SUB DUP9 AND DUP2 MSTORE PUSH1 0x20 DUP2 ADD SWAP3 SWAP1 SWAP3 MSTORE DUP8 SWAP2 PUSH32 0xD1ABCCAE8934D5FF9B57F5F0A1BEBE781F8F34D4C1C7B20E7634381DEEBC8DB5 SWAP2 ADD PUSH1 0x40 MLOAD DUP1 SWAP2 SUB SWAP1 LOG2 POP POP POP POP POP POP JUMP JUMPDEST PUSH1 0x2 PUSH1 0x0 SLOAD SUB PUSH2 0x122E JUMPI PUSH1 0x40 MLOAD PUSH3 0x461BCD PUSH1 0xE5 SHL DUP2 MSTORE PUSH1 0x20 PUSH1 0x4 DUP3 ADD MSTORE PUSH1 0x1F PUSH1 0x24 DUP3 ADD MSTORE PUSH32 0x5265656E7472616E637947756172643A207265656E7472616E742063616C6C00 PUSH1 0x44 DUP3 ADD MSTORE PUSH1 0x64 ADD PUSH2 0x583 JUMP JUMPDEST PUSH1 0x2 PUSH1 0x0 SSTORE JUMP JUMPDEST DUP3 DUP1 SLOAD DUP3 DUP3 SSTORE SWAP1 PUSH1 0x0 MSTORE PUSH1 0x20 PUSH1 0x0 KECCAK256 SWAP1 DUP2 ADD SWAP3 DUP3 ISZERO PUSH2 0x128A JUMPI SWAP2 PUSH1 0x20 MUL DUP3 ADD JUMPDEST DUP3 DUP2 GT ISZERO PUSH2 0x128A JUMPI DUP3 MLOAD DUP3 SLOAD PUSH1 0x1 PUSH1 0x1 PUSH1 0xA0 SHL SUB NOT AND PUSH1 0x1 PUSH1 0x1 PUSH1 0xA0 SHL SUB SWAP1 SWAP2 AND OR DUP3 SSTORE PUSH1 0x20 SWAP1 SWAP3 ADD SWAP2 PUSH1 0x1 SWAP1 SWAP2 ADD SWAP1 PUSH2 0x1255 JUMP JUMPDEST POP PUSH2 0x1296 SWAP3 SWAP2 POP PUSH2 0x129A JUMP JUMPDEST POP SWAP1 JUMP JUMPDEST JUMPDEST DUP1 DUP3 GT ISZERO PUSH2 0x1296 JUMPI PUSH1 0x0 DUP2 SSTORE PUSH1 0x1 ADD PUSH2 0x129B JUMP JUMPDEST DUP1 CALLDATALOAD PUSH1 0x1 PUSH1 0x1 PUSH1 0xA0 SHL SUB DUP2 AND DUP2 EQ PUSH2 0x12C6 JUMPI PUSH1 0x0 DUP1 REVERT JUMPDEST SWAP2 SWAP1 POP JUMP JUMPDEST PUSH1 0x0 PUSH1 0x20 DUP3 DUP5 SUB SLT ISZERO PUSH2 0x12DD JUMPI PUSH1 0x0 DUP1 REVERT JUMPDEST PUSH2 0x12E6 DUP3 PUSH2 0x12AF JUMP JUMPDEST SWAP4 SWAP3 POP POP POP JUMP JUMPDEST PUSH1 0x20 DUP1 DUP3 MSTORE DUP3 MLOAD DUP3 DUP3 ADD DUP2 SWAP1 MSTORE PUSH1 0x0 SWAP2 SWAP1 DUP5 DUP3 ADD SWAP1 PUSH1 0x40 DUP6 ADD SWAP1 DUP5 JUMPDEST DUP2 DUP2 LT ISZERO PUSH2 0x1325 JUMPI DUP4 MLOAD DUP4 MSTORE SWAP3 DUP5 ADD SWAP3 SWAP2 DUP5 ADD SWAP2 PUSH1 0x1 ADD PUSH2 0x1309 JUMP JUMPDEST POP SWAP1 SWAP7 SWAP6 POP POP POP POP POP POP JUMP JUMPDEST PUSH1 0x0 DUP1 PUSH1 0x0 PUSH1 0x60 DUP5 DUP7 SUB SLT ISZERO PUSH2 0x1346 JUMPI PUSH1 0x0 DUP1 REVERT JUMPDEST POP POP DUP2 CALLDATALOAD SWAP4 PUSH1 0x20 DUP4 ADD CALLDATALOAD SWAP4 POP PUSH1 0x40 SWAP1 SWAP3 ADD CALLDATALOAD SWAP2 SWAP1 POP JUMP JUMPDEST PUSH1 0x0 PUSH1 0x20 DUP3 DUP5 SUB SLT ISZERO PUSH2 0x136F JUMPI PUSH1 0x0 DUP1 REVERT JUMPDEST POP CALLDATALOAD SWAP2 SWAP1 POP JUMP JUMPDEST PUSH1 0xE0 DUP1 DUP3 MSTORE DUP9 MLOAD SWAP1 DUP3 ADD DUP2 SWAP1 MSTORE PUSH1 0x0 SWAP1 PUSH1 0x20 SWAP1 PUSH2 0x100 DUP5 ADD SWAP1 DUP3 DUP13 ADD DUP5 JUMPDEST DUP3 DUP2 LT ISZERO PUSH2 0x13B9 JUMPI DUP2 MLOAD PUSH1 0x1 PUSH1 0x1 PUSH1 0xA0 SHL SUB AND DUP5 MSTORE SWAP3 DUP5 ADD SWAP3 SWAP1 DUP5 ADD SWAP1 PUSH1 0x1 ADD PUSH2 0x1394 JUMP JUMPDEST POP POP POP SWAP1 DUP4 ADD SWAP9 SWAP1 SWAP9 MSTORE POP PUSH1 0x40 DUP2 ADD SWAP6 SWAP1 SWAP6 MSTORE PUSH1 0x60 DUP6 ADD SWAP4 SWAP1 SWAP4 MSTORE PUSH1 0x80 DUP5 ADD SWAP2 SWAP1 SWAP2 MSTORE PUSH1 0xA0 DUP4 ADD MSTORE PUSH1 0x1 PUSH1 0x1 PUSH1 0xA0 SHL SUB AND PUSH1 0xC0 SWAP1 SWAP2 ADD MSTORE SWAP2 SWAP1 POP JUMP JUMPDEST PUSH1 0x0 DUP1 PUSH1 0x40 DUP4 DUP6 SUB SLT ISZERO PUSH2 0x1408 JUMPI PUSH1 0x0 DUP1 REVERT JUMPDEST DUP3 CALLDATALOAD SWAP2 POP PUSH2 0x1418 PUSH1 0x20 DUP5 ADD PUSH2 0x12AF JUMP JUMPDEST SWAP1 POP SWAP3 POP SWAP3 SWAP1 POP JUMP JUMPDEST PUSH4 0x4E487B71 PUSH1 0xE0 SHL PUSH1 0x0 MSTORE PUSH1 0x21 PUSH1 0x4 MSTORE PUSH1 0x24 PUSH1 0x0 REVERT JUMPDEST DUP8 DUP2 MSTORE PUSH1 0x20 DUP2 ADD DUP8 SWAP1 MSTORE PUSH1 0xE0 DUP2 ADD PUSH1 0x4 DUP8 LT PUSH2 0x1463 JUMPI PUSH4 0x4E487B71 PUSH1 0xE0 SHL PUSH1 0x0 MSTORE PUSH1 0x21 PUSH1 0x4 MSTORE PUSH1 0x24 PUSH1 0x0 REVERT JUMPDEST PUSH1 0x40 DUP3 ADD SWAP7 SWAP1 SWAP7 MSTORE PUSH1 0x60 DUP2 ADD SWAP5 SWAP1 SWAP5 MSTORE PUSH1 0x80 DUP5 ADD SWAP3 SWAP1 SWAP3 MSTORE PUSH1 0x1 PUSH1 0x1 PUSH1 0xA0 SHL SUB AND PUSH1 0xA0 DUP4 ADD MSTORE PUSH1 0xC0 SWAP1 SWAP2 ADD MSTORE SWAP3 SWAP2 POP POP JUMP JUMPDEST PUSH4 0x4E487B71 PUSH1 0xE0 SHL PUSH1 0x0 MSTORE PUSH1 0x41 PUSH1 0x4 MSTORE PUSH1 0x24 PUSH1 0x0 REVERT JUMPDEST PUSH4 0x4E487B71 PUSH1 0xE0 SHL PUSH1 0x0 MSTORE PUSH1 0x32 PUSH1 0x4 MSTORE PUSH1 0x24 PUSH1 0x0 REVERT JUMPDEST PUSH4 0x4E487B71 PUSH1 0xE0 SHL PUSH1 0x0 MSTORE PUSH1 0x11 PUSH1 0x4 MSTORE PUSH1 0x24 PUSH1 0x0 REVERT JUMPDEST PUSH1 0x0 PUSH1 0x1 DUP3 ADD PUSH2 0x14E9 JUMPI PUSH2 0x14E9 PUSH2 0x14C1 JUMP JUMPDEST POP PUSH1 0x1 ADD SWAP1 JUMP JUMPDEST PUSH1 0x0 DUP3 MLOAD PUSH1 0x0 JUMPDEST DUP2 DUP2 LT ISZERO PUSH2 0x1511 JUMPI PUSH1 0x20 DUP2 DUP7 ADD DUP2 ADD MLOAD DUP6 DUP4 ADD MSTORE ADD PUSH2 0x14F7 JUMP JUMPDEST POP PUSH1 0x0 SWAP3 ADD SWAP2 DUP3 MSTORE POP SWAP2 SWAP1 POP JUMP JUMPDEST PUSH1 0x20 DUP1 DUP3 MSTORE PUSH1 0x13 SWAP1 DUP3 ADD MSTORE PUSH19 0x11D85B5948191BD95CC81B9BDD08195E1A5CDD PUSH1 0x6A SHL PUSH1 0x40 DUP3 ADD MSTORE PUSH1 0x60 ADD SWAP1 JUMP JUMPDEST PUSH1 0x20 DUP1 DUP3 MSTORE PUSH1 0x12 SWAP1 DUP3 ADD MSTORE PUSH18 0x496E76616C69642067616D65207374617465 PUSH1 0x70 SHL PUSH1 0x40 DUP3 ADD MSTORE PUSH1 0x60 ADD SWAP1 JUMP JUMPDEST DUP1 DUP3 ADD DUP1 DUP3 GT ISZERO PUSH2 0x158B JUMPI PUSH2 0x158B PUSH2 0x14C1 JUMP JUMPDEST SWAP3 SWAP2 POP POP JUMP INVALID LOG2 PUSH5 0x6970667358 0x22 SLT KECCAK256 SWAP7 PUSH22 0x23D7BD441B4206B7585813419F1C3DC63A1D8AE2EA97 LOG1 SWAP9 0xC2 DELEGATECALL 0xB5 LOG3 0xC1 0xCC PUSH5 0x736F6C6343 STOP ADDMOD SGT STOP CALLER "},"methodIdentifiers":{"cancelGame(bytes32)":"3f7121b0","claimWinnings()":"b401faf1","completeGame(bytes32,address)":"e9df3027","createGame(bytes32,uint256,uint256)":"248c523a","games(bytes32)":"f579f882","gamesPlayed(address)":"70180bc1","getActiveGames()":"1b76929c","getGameInfo(bytes32)":"b2c553b2","getGamesPlayed(address)":"2315bbe3","getPlayerWinnings(address)":"00bc7893","isPlayerInGame(bytes32,address)":"d26a0880","joinGame(bytes32)":"bf474766","owner()":"8da5cb5b","paymentProcessor()":"f1c6bdf8","playerWinnings(address)":"252f4d81"}}}}}