{"contracts/Blackjack.sol":{"Blackjack":{"abi":[{"inputs":[{"internalType":"address payable","name":"_paymentProcessor","type":"address"}],"stateMutability":"nonpayable","type":"constructor"},{"anonymous":false,"inputs":[{"indexed":true,"internalType":"address","name":"player","type":"address"},{"indexed":false,"internalType":"string","name":"action","type":"string"}],"name":"ActionTaken","type":"event"},{"anonymous":false,"inputs":[{"indexed":true,"internalType":"address","name":"player","type":"address"},{"indexed":false,"internalType":"bool","name":"playerWon","type":"bool"},{"indexed":false,"internalType":"uint256","name":"payout","type":"uint256"}],"name":"GameCompleted","type":"event"},{"anonymous":false,"inputs":[{"indexed":true,"internalType":"address","name":"player","type":"address"},{"indexed":false,"internalType":"uint256","name":"betAmount","type":"uint256"}],"name":"GameStarted","type":"event"},{"inputs":[{"internalType":"address","name":"","type":"address"}],"name":"activeGames","outputs":[{"internalType":"address","name":"player","type":"address"},{"internalType":"uint256","name":"betAmount","type":"uint256"},{"internalType":"enum Blackjack.GameState","name":"state","type":"uint8"},{"internalType":"uint256","name":"playerTotal","type":"uint256"},{"internalType":"uint256","name":"dealerTotal","type":"uint256"},{"internalType":"bool","name":"dealerRevealed","type":"bool"}],"stateMutability":"view","type":"function"},{"inputs":[{"internalType":"address","name":"player","type":"address"}],"name":"getGameState","outputs":[{"internalType":"uint256","name":"betAmount","type":"uint256"},{"internalType":"uint256","name":"playerTotal","type":"uint256"},{"internalType":"uint256","name":"dealerTotal","type":"uint256"},{"internalType":"bool","name":"dealerRevealed","type":"bool"},{"internalType":"enum Blackjack.GameState","name":"state","type":"uint8"}],"stateMutability":"view","type":"function"},{"inputs":[],"name":"hit","outputs":[],"stateMutability":"nonpayable","type":"function"},{"inputs":[],"name":"owner","outputs":[{"internalType":"address","name":"","type":"address"}],"stateMutability":"view","type":"function"},{"inputs":[],"name":"paymentProcessor","outputs":[{"internalType":"contract CasinoPaymentProcessor","name":"","type":"address"}],"stateMutability":"view","type":"function"},{"inputs":[{"internalType":"address","name":"","type":"address"}],"name":"playerLosses","outputs":[{"internalType":"uint256","name":"","type":"uint256"}],"stateMutability":"view","type":"function"},{"inputs":[{"internalType":"address","name":"","type":"address"}],"name":"playerWins","outputs":[{"internalType":"uint256","name":"","type":"uint256"}],"stateMutability":"view","type":"function"},{"inputs":[],"name":"stand","outputs":[],"stateMutability":"nonpayable","type":"function"},{"inputs":[],"name":"startGame","outputs":[],"stateMutability":"payable","type":"function"},{"stateMutability":"payable","type":"receive"}],"evm":{"bytecode":{"linkReferences":{},"object":"608060405234801561001057600080fd5b5060405161106538038061106583398101604081905261002f91610062565b6001600081905580546001600160a01b039092166001600160a01b03199283161790556002805490911633179055610092565b60006020828403121561007457600080fd5b81516001600160a01b038116811461008b57600080fd5b9392505050565b610fc4806100a16000396000f3fe60806040526004361061008a5760003560e01c8063d65ab5f211610059578063d65ab5f21461013a578063d9169b7714610142578063d9d60b52146101b7578063f1c6bdf8146101e8578063fedb848a1461020857600080fd5b80632ae3594a146100965780638b31fb89146100ad5780638da5cb5b146100ed578063c2897b101461012557600080fd5b3661009157005b600080fd5b3480156100a257600080fd5b506100ab610235565b005b3480156100b957600080fd5b506100da6100c8366004610daf565b60046020526000908152604090205481565b6040519081526020015b60405180910390f35b3480156100f957600080fd5b5060025461010d906001600160a01b031681565b6040516001600160a01b0390911681526020016100e4565b34801561013157600080fd5b506100ab610406565b6100ab610600565b34801561014e57600080fd5b506101a561015d366004610daf565b60036020819052600091825260409091208054600182015460028301549383015460048401546005909401546001600160a01b0390931694919360ff92831693919290911686565b6040516100e496959493929190610e17565b3480156101c357600080fd5b506101d76101d2366004610daf565b6108f0565b6040516100e4959493929190610e5a565b3480156101f457600080fd5b5060015461010d906001600160a01b031681565b34801561021457600080fd5b506100da610223366004610daf565b60056020526000908152604090205481565b61023d610959565b336000908152600360205260409020600160028083015460ff169081111561026757610267610ddf565b146102aa5760405162461bcd60e51b815260206004820152600e60248201526d4e6f206163746976652067616d6560901b60448201526064015b60405180910390fd5b80546001600160a01b031633146102f35760405162461bcd60e51b815260206004820152600d60248201526c4e6f7420796f75722067616d6560981b60448201526064016102a1565b6000600a42463360405160200161032f93929190928352602083019190915260601b6bffffffffffffffffffffffff1916604082015260540190565b6040516020818303038152906040528051906020012060001c6103529190610e9a565b61035d906002610ec4565b9050600a81111561036c5750600a5b806001036103785750600b5b8082600301600082825461038c9190610ec4565b909155505060405133907f477fecea00dd67fa1fa2e75e1b08d30b4cdf2eb2cc6be5e29d4e1232a6d508e5906103d99060208082526003908201526212125560ea1b604082015260600190565b60405180910390a26015826003015411156103f8576103f860006109b2565b50506104046001600055565b565b61040e610959565b336000908152600360205260409020600160028083015460ff169081111561043857610438610ddf565b146104765760405162461bcd60e51b815260206004820152600e60248201526d4e6f206163746976652067616d6560901b60448201526064016102a1565b80546001600160a01b031633146104bf5760405162461bcd60e51b815260206004820152600d60248201526c4e6f7420796f75722067616d6560981b60448201526064016102a1565b60058101805460ff191660011790555b60118160040154101561058c576000600a42463385600401546040516020016105239493929190938452602084019290925260601b6bffffffffffffffffffffffff19166040830152605482015260740190565b6040516020818303038152906040528051906020012060001c6105469190610e9a565b610551906002610ec4565b9050600a8111156105605750600a5b8060010361056c5750600b5b808260040160008282546105809190610ec4565b909155506104cf915050565b336001600160a01b03167f477fecea00dd67fa1fa2e75e1b08d30b4cdf2eb2cc6be5e29d4e1232a6d508e56040516105dd9060208082526005908201526414d510539160da1b604082015260600190565b60405180910390a26105f56105f0610bbb565b6109b2565b506104046001600055565b610608610959565b600034116106585760405162461bcd60e51b815260206004820152601b60248201527f42657420616d6f756e74206d75737420626520706f736974697665000000000060448201526064016102a1565b600133600090815260036020526040902060029081015460ff169081111561068257610682610ddf565b036106cf5760405162461bcd60e51b815260206004820152601860248201527f47616d6520616c726561647920696e2070726f6772657373000000000000000060448201526064016102a1565b6001546040513060248201526000916001600160a01b031690349060440160408051601f198184030181529181526020820180516001600160e01b031663b07ce02560e01b179052516107229190610f01565b60006040518083038185875af1925050503d806000811461075f576040519150601f19603f3d011682016040523d82523d6000602084013e610764565b606091505b50509050806107d35760405162461bcd60e51b815260206004820152603560248201527f5061796d656e742070726f63657373696e67206661696c65642e20456e737572604482015274329033b0b6b29034b99030baba3437b934bd32b21760591b60648201526084016102a1565b60006107df6001610c2d565b905060006107ed6000610c2d565b6040805160c081018252338082523460208084019182526001848601818152606086018a905260808601889052600060a08701819052948552600390925294909220835181546001600160a01b0319166001600160a01b039091161781559051818501559051600280830180549697509395929491939260ff19169190849081111561087b5761087b610ddf565b0217905550606082015160038201556080820151600482015560a0909101516005909101805460ff191691151591909117905560405134815233907fea32a03505fd9f04d664676d72295a86c5fb0465e69654751907ca305bc1d1c79060200160405180910390a25050506104046001600055565b6001600160a01b038116600090815260036020819052604082206001810154918101546005820154849384938493849391929160ff16610931576000610937565b82600401545b6005840154600290940154929a919950975060ff928316965091169350915050565b6002600054036109ab5760405162461bcd60e51b815260206004820152601f60248201527f5265656e7472616e637947756172643a207265656e7472616e742063616c6c0060448201526064016102a1565b6002600055565b3360009081526003602052604081206002808201805460ff19169091179055908215610a4d57816003015460151480156109f3575081600401548260030154115b15610a3d57600282600101546003610a0b9190610f1d565b610a159190610f34565b336000908152600460205260408120805492935090610a3383610f48565b9190505550610a9a565b6001820154610a15906002610f1d565b81600401548260030154148015610a6957506015826003015411155b15610a7957506001810154610a9a565b336000908152600560205260408120805491610a9483610f48565b91905055505b8015610b2a57604051600090339083908381818185875af1925050503d8060008114610ae2576040519150601f19603f3d011682016040523d82523d6000602084013e610ae7565b606091505b5050905080610b285760405162461bcd60e51b815260206004820152600d60248201526c14185e5bdd5d0819985a5b1959609a1b60448201526064016102a1565b505b6040805184151581526020810183905233917fecf5f4eb1b978762fea46ea714a9f2cf73b6fe679e2da6da0e183da40352a36a910160405180910390a25050336000908152600360208190526040822080546001600160a01b03191681556001810183905560028101805460ff19908116909155918101839055600481019290925560059091018054909116905550565b33600090815260036020819052604082209081015460151015610be057600091505090565b601581600401541115610bf557600191505090565b806004015481600301541115610c0d57600191505090565b806004015481600301541015610c2557600091505090565b600091505090565b600080424684610c5c57604051806040016040528060078152602001666465616c65723160c81b815250610c7d565b60405180604001604052806007815260200166706c617965723160c81b8152505b604051602001610c8f93929190610f61565b60408051601f1981840301815291905290506000610cae426001610ec4565b4685610cd957604051806040016040528060078152602001663232b0b632b91960c91b815250610cfa565b60405180604001604052806007815260200166383630bcb2b91960c91b8152505b604051602001610d0c93929190610f61565b60405160208183030381529060405290506000600a838051906020012060001c610d369190610e9a565b610d41906002610ec4565b82516020840120909150600090610d5a90600a90610e9a565b610d65906002610ec4565b9050600a821115610d7557600a91505b600a811115610d825750600a5b81600103610d8f57600b91505b80600103610d9b5750600b5b610da58183610ec4565b9695505050505050565b600060208284031215610dc157600080fd5b81356001600160a01b0381168114610dd857600080fd5b9392505050565b634e487b7160e01b600052602160045260246000fd5b60038110610e1357634e487b7160e01b600052602160045260246000fd5b9052565b6001600160a01b03871681526020810186905260c08101610e3b6040830187610df5565b84606083015283608083015282151560a0830152979650505050505050565b8581526020810185905260408101849052821515606082015260a08101610da56080830184610df5565b634e487b7160e01b600052601260045260246000fd5b600082610ea957610ea9610e84565b500690565b634e487b7160e01b600052601160045260246000fd5b80820180821115610ed757610ed7610eae565b92915050565b60005b83811015610ef8578181015183820152602001610ee0565b50506000910152565b60008251610f13818460208701610edd565b9190910192915050565b8082028115828204841417610ed757610ed7610eae565b600082610f4357610f43610e84565b500490565b600060018201610f5a57610f5a610eae565b5060010190565b83815282602082015260008251610f7f816040850160208701610edd565b9190910160400194935050505056fea2646970667358221220041c00c363ad125e79f70e6853655cb7079527ac5d38524a73314f7ae8ed03d464736f6c63430008130033","opcodes":"PUSH1 0x80 PUSH1 0x40 MSTORE CALLVALUE DUP1 ISZERO PUSH2 0x10 JUMPI PUSH1 0x0 DUP1 REVERT JUMPDEST POP PUSH1 0x40 MLOAD PUSH2 0x1065 CODESIZE SUB DUP1 PUSH2 0x1065 DUP4 CODECOPY DUP2 ADD PUSH1 0x40 DUP2 SWAP1 MSTORE PUSH2 0x2F SWAP2 PUSH2 0x62 JUMP JUMPDEST PUSH1 0x1 PUSH1 0x0 DUP2 SWAP1 SSTORE DUP1 SLOAD PUSH1 0x1 PUSH1 0x1 PUSH1 0xA0 SHL SUB SWAP1 SWAP3 AND PUSH1 0x1 PUSH1 0x1 PUSH1 0xA0 SHL SUB NOT SWAP3 DUP4 AND OR SWAP1 SSTORE PUSH1 0x2 DUP1 SLOAD SWAP1 SWAP2 AND CALLER OR SWAP1 SSTORE PUSH2 0x92 JUMP JUMPDEST PUSH1 0x0 PUSH1 0x20 DUP3 DUP5 SUB SLT ISZERO PUSH2 0x74 JUMPI PUSH1 0x0 DUP1 REVERT JUMPDEST DUP2 MLOAD PUSH1 0x1 PUSH1 0x1 PUSH1 0xA0 SHL SUB DUP2 AND DUP2 EQ PUSH2 0x8B JUMPI PUSH1 0x0 DUP1 REVERT JUMPDEST SWAP4 SWAP3 POP POP POP JUMP JUMPDEST PUSH2 0xFC4 DUP1 PUSH2 0xA1 PUSH1 0x0 CODECOPY PUSH1 0x0 RETURN INVALID PUSH1 0x80 PUSH1 0x40 MSTORE PUSH1 0x4 CALLDATASIZE LT PUSH2 0x8A JUMPI PUSH1 0x0 CALLDATALOAD PUSH1 0xE0 SHR DUP1 PUSH4 0xD65AB5F2 GT PUSH2 0x59 JUMPI DUP1 PUSH4 0xD65AB5F2 EQ PUSH2 0x13A JUMPI DUP1 PUSH4 0xD9169B77 EQ PUSH2 0x142 JUMPI DUP1 PUSH4 0xD9D60B52 EQ PUSH2 0x1B7 JUMPI DUP1 PUSH4 0xF1C6BDF8 EQ PUSH2 0x1E8 JUMPI DUP1 PUSH4 0xFEDB848A EQ PUSH2 0x208 JUMPI PUSH1 0x0 DUP1 REVERT JUMPDEST DUP1 PUSH4 0x2AE3594A EQ PUSH2 0x96 JUMPI DUP1 PUSH4 0x8B31FB89 EQ PUSH2 0xAD JUMPI DUP1 PUSH4 0x8DA5CB5B EQ PUSH2 0xED JUMPI DUP1 PUSH4 0xC2897B10 EQ PUSH2 0x125 JUMPI PUSH1 0x0 DUP1 REVERT JUMPDEST CALLDATASIZE PUSH2 0x91 JUMPI STOP JUMPDEST PUSH1 0x0 DUP1 REVERT JUMPDEST CALLVALUE DUP1 ISZERO PUSH2 0xA2 JUMPI PUSH1 0x0 DUP1 REVERT JUMPDEST POP PUSH2 0xAB PUSH2 0x235 JUMP JUMPDEST STOP JUMPDEST CALLVALUE DUP1 ISZERO PUSH2 0xB9 JUMPI PUSH1 0x0 DUP1 REVERT JUMPDEST POP PUSH2 0xDA PUSH2 0xC8 CALLDATASIZE PUSH1 0x4 PUSH2 0xDAF JUMP JUMPDEST PUSH1 0x4 PUSH1 0x20 MSTORE PUSH1 0x0 SWAP1 DUP2 MSTORE PUSH1 0x40 SWAP1 KECCAK256 SLOAD DUP2 JUMP JUMPDEST PUSH1 0x40 MLOAD SWAP1 DUP2 MSTORE PUSH1 0x20 ADD JUMPDEST PUSH1 0x40 MLOAD DUP1 SWAP2 SUB SWAP1 RETURN JUMPDEST CALLVALUE DUP1 ISZERO PUSH2 0xF9 JUMPI PUSH1 0x0 DUP1 REVERT JUMPDEST POP PUSH1 0x2 SLOAD PUSH2 0x10D SWAP1 PUSH1 0x1 PUSH1 0x1 PUSH1 0xA0 SHL SUB AND DUP2 JUMP JUMPDEST PUSH1 0x40 MLOAD PUSH1 0x1 PUSH1 0x1 PUSH1 0xA0 SHL SUB SWAP1 SWAP2 AND DUP2 MSTORE PUSH1 0x20 ADD PUSH2 0xE4 JUMP JUMPDEST CALLVALUE DUP1 ISZERO PUSH2 0x131 JUMPI PUSH1 0x0 DUP1 REVERT JUMPDEST POP PUSH2 0xAB PUSH2 0x406 JUMP JUMPDEST PUSH2 0xAB PUSH2 0x600 JUMP JUMPDEST CALLVALUE DUP1 ISZERO PUSH2 0x14E JUMPI PUSH1 0x0 DUP1 REVERT JUMPDEST POP PUSH2 0x1A5 PUSH2 0x15D CALLDATASIZE PUSH1 0x4 PUSH2 0xDAF JUMP JUMPDEST PUSH1 0x3 PUSH1 0x20 DUP2 SWAP1 MSTORE PUSH1 0x0 SWAP2 DUP3 MSTORE PUSH1 0x40 SWAP1 SWAP2 KECCAK256 DUP1 SLOAD PUSH1 0x1 DUP3 ADD SLOAD PUSH1 0x2 DUP4 ADD SLOAD SWAP4 DUP4 ADD SLOAD PUSH1 0x4 DUP5 ADD SLOAD PUSH1 0x5 SWAP1 SWAP5 ADD SLOAD PUSH1 0x1 PUSH1 0x1 PUSH1 0xA0 SHL SUB SWAP1 SWAP4 AND SWAP5 SWAP2 SWAP4 PUSH1 0xFF SWAP3 DUP4 AND SWAP4 SWAP2 SWAP3 SWAP1 SWAP2 AND DUP7 JUMP JUMPDEST PUSH1 0x40 MLOAD PUSH2 0xE4 SWAP7 SWAP6 SWAP5 SWAP4 SWAP3 SWAP2 SWAP1 PUSH2 0xE17 JUMP JUMPDEST CALLVALUE DUP1 ISZERO PUSH2 0x1C3 JUMPI PUSH1 0x0 DUP1 REVERT JUMPDEST POP PUSH2 0x1D7 PUSH2 0x1D2 CALLDATASIZE PUSH1 0x4 PUSH2 0xDAF JUMP JUMPDEST PUSH2 0x8F0 JUMP JUMPDEST PUSH1 0x40 MLOAD PUSH2 0xE4 SWAP6 SWAP5 SWAP4 SWAP3 SWAP2 SWAP1 PUSH2 0xE5A JUMP JUMPDEST CALLVALUE DUP1 ISZERO PUSH2 0x1F4 JUMPI PUSH1 0x0 DUP1 REVERT JUMPDEST POP PUSH1 0x1 SLOAD PUSH2 0x10D SWAP1 PUSH1 0x1 PUSH1 0x1 PUSH1 0xA0 SHL SUB AND DUP2 JUMP JUMPDEST CALLVALUE DUP1 ISZERO PUSH2 0x214 JUMPI PUSH1 0x0 DUP1 REVERT JUMPDEST POP PUSH2 0xDA PUSH2 0x223 CALLDATASIZE PUSH1 0x4 PUSH2 0xDAF JUMP JUMPDEST PUSH1 0x5 PUSH1 0x20 MSTORE PUSH1 0x0 SWAP1 DUP2 MSTORE PUSH1 0x40 SWAP1 KECCAK256 SLOAD DUP2 JUMP JUMPDEST PUSH2 0x23D PUSH2 0x959 JUMP JUMPDEST CALLER PUSH1 0x0 SWAP1 DUP2 MSTORE PUSH1 0x3 PUSH1 0x20 MSTORE PUSH1 0x40 SWAP1 KECCAK256 PUSH1 0x1 PUSH1 0x2 DUP1 DUP4 ADD SLOAD PUSH1 0xFF AND SWAP1 DUP2 GT ISZERO PUSH2 0x267 JUMPI PUSH2 0x267 PUSH2 0xDDF JUMP JUMPDEST EQ PUSH2 0x2AA JUMPI PUSH1 0x40 MLOAD PUSH3 0x461BCD PUSH1 0xE5 SHL DUP2 MSTORE PUSH1 0x20 PUSH1 0x4 DUP3 ADD MSTORE PUSH1 0xE PUSH1 0x24 DUP3 ADD MSTORE PUSH14 0x4E6F206163746976652067616D65 PUSH1 0x90 SHL PUSH1 0x44 DUP3 ADD MSTORE PUSH1 0x64 ADD JUMPDEST PUSH1 0x40 MLOAD DUP1 SWAP2 SUB SWAP1 REVERT JUMPDEST DUP1 SLOAD PUSH1 0x1 PUSH1 0x1 PUSH1 0xA0 SHL SUB AND CALLER EQ PUSH2 0x2F3 JUMPI PUSH1 0x40 MLOAD PUSH3 0x461BCD PUSH1 0xE5 SHL DUP2 MSTORE PUSH1 0x20 PUSH1 0x4 DUP3 ADD MSTORE PUSH1 0xD PUSH1 0x24 DUP3 ADD MSTORE PUSH13 0x4E6F7420796F75722067616D65 PUSH1 0x98 SHL PUSH1 0x44 DUP3 ADD MSTORE PUSH1 0x64 ADD PUSH2 0x2A1 JUMP JUMPDEST PUSH1 0x0 PUSH1 0xA TIMESTAMP CHAINID CALLER PUSH1 0x40 MLOAD PUSH1 0x20 ADD PUSH2 0x32F SWAP4 SWAP3 SWAP2 SWAP1 SWAP3 DUP4 MSTORE PUSH1 0x20 DUP4 ADD SWAP2 SWAP1 SWAP2 MSTORE PUSH1 0x60 SHL PUSH12 0xFFFFFFFFFFFFFFFFFFFFFFFF NOT AND PUSH1 0x40 DUP3 ADD MSTORE PUSH1 0x54 ADD SWAP1 JUMP JUMPDEST PUSH1 0x40 MLOAD PUSH1 0x20 DUP2 DUP4 SUB SUB DUP2 MSTORE SWAP1 PUSH1 0x40 MSTORE DUP1 MLOAD SWAP1 PUSH1 0x20 ADD KECCAK256 PUSH1 0x0 SHR PUSH2 0x352 SWAP2 SWAP1 PUSH2 0xE9A JUMP JUMPDEST PUSH2 0x35D SWAP1 PUSH1 0x2 PUSH2 0xEC4 JUMP JUMPDEST SWAP1 POP PUSH1 0xA DUP2 GT ISZERO PUSH2 0x36C JUMPI POP PUSH1 0xA JUMPDEST DUP1 PUSH1 0x1 SUB PUSH2 0x378 JUMPI POP PUSH1 0xB JUMPDEST DUP1 DUP3 PUSH1 0x3 ADD PUSH1 0x0 DUP3 DUP3 SLOAD PUSH2 0x38C SWAP2 SWAP1 PUSH2 0xEC4 JUMP JUMPDEST SWAP1 SWAP2 SSTORE POP POP PUSH1 0x40 MLOAD CALLER SWAP1 PUSH32 0x477FECEA00DD67FA1FA2E75E1B08D30B4CDF2EB2CC6BE5E29D4E1232A6D508E5 SWAP1 PUSH2 0x3D9 SWAP1 PUSH1 0x20 DUP1 DUP3 MSTORE PUSH1 0x3 SWAP1 DUP3 ADD MSTORE PUSH3 0x121255 PUSH1 0xEA SHL PUSH1 0x40 DUP3 ADD MSTORE PUSH1 0x60 ADD SWAP1 JUMP JUMPDEST PUSH1 0x40 MLOAD DUP1 SWAP2 SUB SWAP1 LOG2 PUSH1 0x15 DUP3 PUSH1 0x3 ADD SLOAD GT ISZERO PUSH2 0x3F8 JUMPI PUSH2 0x3F8 PUSH1 0x0 PUSH2 0x9B2 JUMP JUMPDEST POP POP PUSH2 0x404 PUSH1 0x1 PUSH1 0x0 SSTORE JUMP JUMPDEST JUMP JUMPDEST PUSH2 0x40E PUSH2 0x959 JUMP JUMPDEST CALLER PUSH1 0x0 SWAP1 DUP2 MSTORE PUSH1 0x3 PUSH1 0x20 MSTORE PUSH1 0x40 SWAP1 KECCAK256 PUSH1 0x1 PUSH1 0x2 DUP1 DUP4 ADD SLOAD PUSH1 0xFF AND SWAP1 DUP2 GT ISZERO PUSH2 0x438 JUMPI PUSH2 0x438 PUSH2 0xDDF JUMP JUMPDEST EQ PUSH2 0x476 JUMPI PUSH1 0x40 MLOAD PUSH3 0x461BCD PUSH1 0xE5 SHL DUP2 MSTORE PUSH1 0x20 PUSH1 0x4 DUP3 ADD MSTORE PUSH1 0xE PUSH1 0x24 DUP3 ADD MSTORE PUSH14 0x4E6F206163746976652067616D65 PUSH1 0x90 SHL PUSH1 0x44 DUP3 ADD MSTORE PUSH1 0x64 ADD PUSH2 0x2A1 JUMP JUMPDEST DUP1 SLOAD PUSH1 0x1 PUSH1 0x1 PUSH1 0xA0 SHL SUB AND CALLER EQ PUSH2 0x4BF JUMPI PUSH1 0x40 MLOAD PUSH3 0x461BCD PUSH1 0xE5 SHL DUP2 MSTORE PUSH1 0x20 PUSH1 0x4 DUP3 ADD MSTORE PUSH1 0xD PUSH1 0x24 DUP3 ADD MSTORE PUSH13 0x4E6F7420796F75722067616D65 PUSH1 0x98 SHL PUSH1 0x44 DUP3 ADD MSTORE PUSH1 0x64 ADD PUSH2 0x2A1 JUMP JUMPDEST PUSH1 0x5 DUP2 ADD DUP1 SLOAD PUSH1 0xFF NOT AND PUSH1 0x1 OR SWAP1 SSTORE JUMPDEST PUSH1 0x11 DUP2 PUSH1 0x4 ADD SLOAD LT ISZERO PUSH2 0x58C JUMPI PUSH1 0x0 PUSH1 0xA TIMESTAMP CHAINID CALLER DUP6 PUSH1 0x4 ADD SLOAD PUSH1 0x40 MLOAD PUSH1 0x20 ADD PUSH2 0x523 SWAP5 SWAP4 SWAP3 SWAP2 SWAP1 SWAP4 DUP5 MSTORE PUSH1 0x20 DUP5 ADD SWAP3 SWAP1 SWAP3 MSTORE PUSH1 0x60 SHL PUSH12 0xFFFFFFFFFFFFFFFFFFFFFFFF NOT AND PUSH1 0x40 DUP4 ADD MSTORE PUSH1 0x54 DUP3 ADD MSTORE PUSH1 0x74 ADD SWAP1 JUMP JUMPDEST PUSH1 0x40 MLOAD PUSH1 0x20 DUP2 DUP4 SUB SUB DUP2 MSTORE SWAP1 PUSH1 0x40 MSTORE DUP1 MLOAD SWAP1 PUSH1 0x20 ADD KECCAK256 PUSH1 0x0 SHR PUSH2 0x546 SWAP2 SWAP1 PUSH2 0xE9A JUMP JUMPDEST PUSH2 0x551 SWAP1 PUSH1 0x2 PUSH2 0xEC4 JUMP JUMPDEST SWAP1 POP PUSH1 0xA DUP2 GT ISZERO PUSH2 0x560 JUMPI POP PUSH1 0xA JUMPDEST DUP1 PUSH1 0x1 SUB PUSH2 0x56C JUMPI POP PUSH1 0xB JUMPDEST DUP1 DUP3 PUSH1 0x4 ADD PUSH1 0x0 DUP3 DUP3 SLOAD PUSH2 0x580 SWAP2 SWAP1 PUSH2 0xEC4 JUMP JUMPDEST SWAP1 SWAP2 SSTORE POP PUSH2 0x4CF SWAP2 POP POP JUMP JUMPDEST CALLER PUSH1 0x1 PUSH1 0x1 PUSH1 0xA0 SHL SUB AND PUSH32 0x477FECEA00DD67FA1FA2E75E1B08D30B4CDF2EB2CC6BE5E29D4E1232A6D508E5 PUSH1 0x40 MLOAD PUSH2 0x5DD SWAP1 PUSH1 0x20 DUP1 DUP3 MSTORE PUSH1 0x5 SWAP1 DUP3 ADD MSTORE PUSH5 0x14D5105391 PUSH1 0xDA SHL PUSH1 0x40 DUP3 ADD MSTORE PUSH1 0x60 ADD SWAP1 JUMP JUMPDEST PUSH1 0x40 MLOAD DUP1 SWAP2 SUB SWAP1 LOG2 PUSH2 0x5F5 PUSH2 0x5F0 PUSH2 0xBBB JUMP JUMPDEST PUSH2 0x9B2 JUMP JUMPDEST POP PUSH2 0x404 PUSH1 0x1 PUSH1 0x0 SSTORE JUMP JUMPDEST PUSH2 0x608 PUSH2 0x959 JUMP JUMPDEST PUSH1 0x0 CALLVALUE GT PUSH2 0x658 JUMPI PUSH1 0x40 MLOAD PUSH3 0x461BCD PUSH1 0xE5 SHL DUP2 MSTORE PUSH1 0x20 PUSH1 0x4 DUP3 ADD MSTORE PUSH1 0x1B PUSH1 0x24 DUP3 ADD MSTORE PUSH32 0x42657420616D6F756E74206D75737420626520706F7369746976650000000000 PUSH1 0x44 DUP3 ADD MSTORE PUSH1 0x64 ADD PUSH2 0x2A1 JUMP JUMPDEST PUSH1 0x1 CALLER PUSH1 0x0 SWAP1 DUP2 MSTORE PUSH1 0x3 PUSH1 0x20 MSTORE PUSH1 0x40 SWAP1 KECCAK256 PUSH1 0x2 SWAP1 DUP2 ADD SLOAD PUSH1 0xFF AND SWAP1 DUP2 GT ISZERO PUSH2 0x682 JUMPI PUSH2 0x682 PUSH2 0xDDF JUMP JUMPDEST SUB PUSH2 0x6CF JUMPI PUSH1 0x40 MLOAD PUSH3 0x461BCD PUSH1 0xE5 SHL DUP2 MSTORE PUSH1 0x20 PUSH1 0x4 DUP3 ADD MSTORE PUSH1 0x18 PUSH1 0x24 DUP3 ADD MSTORE PUSH32 0x47616D6520616C726561647920696E2070726F67726573730000000000000000 PUSH1 0x44 DUP3 ADD MSTORE PUSH1 0x64 ADD PUSH2 0x2A1 JUMP JUMPDEST PUSH1 0x1 SLOAD PUSH1 0x40 MLOAD ADDRESS PUSH1 0x24 DUP3 ADD MSTORE PUSH1 0x0 SWAP2 PUSH1 0x1 PUSH1 0x1 PUSH1 0xA0 SHL SUB AND SWAP1 CALLVALUE SWAP1 PUSH1 0x44 ADD PUSH1 0x40 DUP1 MLOAD PUSH1 0x1F NOT DUP2 DUP5 SUB ADD DUP2 MSTORE SWAP2 DUP2 MSTORE PUSH1 0x20 DUP3 ADD DUP1 MLOAD PUSH1 0x1 PUSH1 0x1 PUSH1 0xE0 SHL SUB AND PUSH4 0xB07CE025 PUSH1 0xE0 SHL OR SWAP1 MSTORE MLOAD PUSH2 0x722 SWAP2 SWAP1 PUSH2 0xF01 JUMP JUMPDEST PUSH1 0x0 PUSH1 0x40 MLOAD DUP1 DUP4 SUB DUP2 DUP6 DUP8 GAS CALL SWAP3 POP POP POP RETURNDATASIZE DUP1 PUSH1 0x0 DUP2 EQ PUSH2 0x75F JUMPI PUSH1 0x40 MLOAD SWAP2 POP PUSH1 0x1F NOT PUSH1 0x3F RETURNDATASIZE ADD AND DUP3 ADD PUSH1 0x40 MSTORE RETURNDATASIZE DUP3 MSTORE RETURNDATASIZE PUSH1 0x0 PUSH1 0x20 DUP5 ADD RETURNDATACOPY PUSH2 0x764 JUMP JUMPDEST PUSH1 0x60 SWAP2 POP JUMPDEST POP POP SWAP1 POP DUP1 PUSH2 0x7D3 JUMPI PUSH1 0x40 MLOAD PUSH3 0x461BCD PUSH1 0xE5 SHL DUP2 MSTORE PUSH1 0x20 PUSH1 0x4 DUP3 ADD MSTORE PUSH1 0x35 PUSH1 0x24 DUP3 ADD MSTORE PUSH32 0x5061796D656E742070726F63657373696E67206661696C65642E20456E737572 PUSH1 0x44 DUP3 ADD MSTORE PUSH21 0x329033B0B6B29034B99030BABA3437B934BD32B217 PUSH1 0x59 SHL PUSH1 0x64 DUP3 ADD MSTORE PUSH1 0x84 ADD PUSH2 0x2A1 JUMP JUMPDEST PUSH1 0x0 PUSH2 0x7DF PUSH1 0x1 PUSH2 0xC2D JUMP JUMPDEST SWAP1 POP PUSH1 0x0 PUSH2 0x7ED PUSH1 0x0 PUSH2 0xC2D JUMP JUMPDEST PUSH1 0x40 DUP1 MLOAD PUSH1 0xC0 DUP2 ADD DUP3 MSTORE CALLER DUP1 DUP3 MSTORE CALLVALUE PUSH1 0x20 DUP1 DUP5 ADD SWAP2 DUP3 MSTORE PUSH1 0x1 DUP5 DUP7 ADD DUP2 DUP2 MSTORE PUSH1 0x60 DUP7 ADD DUP11 SWAP1 MSTORE PUSH1 0x80 DUP7 ADD DUP9 SWAP1 MSTORE PUSH1 0x0 PUSH1 0xA0 DUP8 ADD DUP2 SWAP1 MSTORE SWAP5 DUP6 MSTORE PUSH1 0x3 SWAP1 SWAP3 MSTORE SWAP5 SWAP1 SWAP3 KECCAK256 DUP4 MLOAD DUP2 SLOAD PUSH1 0x1 PUSH1 0x1 PUSH1 0xA0 SHL SUB NOT AND PUSH1 0x1 PUSH1 0x1 PUSH1 0xA0 SHL SUB SWAP1 SWAP2 AND OR DUP2 SSTORE SWAP1 MLOAD DUP2 DUP6 ADD SSTORE SWAP1 MLOAD PUSH1 0x2 DUP1 DUP4 ADD DUP1 SLOAD SWAP7 SWAP8 POP SWAP4 SWAP6 SWAP3 SWAP5 SWAP2 SWAP4 SWAP3 PUSH1 0xFF NOT AND SWAP2 SWAP1 DUP5 SWAP1 DUP2 GT ISZERO PUSH2 0x87B JUMPI PUSH2 0x87B PUSH2 0xDDF JUMP JUMPDEST MUL OR SWAP1 SSTORE POP PUSH1 0x60 DUP3 ADD MLOAD PUSH1 0x3 DUP3 ADD SSTORE PUSH1 0x80 DUP3 ADD MLOAD PUSH1 0x4 DUP3 ADD SSTORE PUSH1 0xA0 SWAP1 SWAP2 ADD MLOAD PUSH1 0x5 SWAP1 SWAP2 ADD DUP1 SLOAD PUSH1 0xFF NOT AND SWAP2 ISZERO ISZERO SWAP2 SWAP1 SWAP2 OR SWAP1 SSTORE PUSH1 0x40 MLOAD CALLVALUE DUP2 MSTORE CALLER SWAP1 PUSH32 0xEA32A03505FD9F04D664676D72295A86C5FB0465E69654751907CA305BC1D1C7 SWAP1 PUSH1 0x20 ADD PUSH1 0x40 MLOAD DUP1 SWAP2 SUB SWAP1 LOG2 POP POP POP PUSH2 0x404 PUSH1 0x1 PUSH1 0x0 SSTORE JUMP JUMPDEST PUSH1 0x1 PUSH1 0x1 PUSH1 0xA0 SHL SUB DUP2 AND PUSH1 0x0 SWAP1 DUP2 MSTORE PUSH1 0x3 PUSH1 0x20 DUP2 SWAP1 MSTORE PUSH1 0x40 DUP3 KECCAK256 PUSH1 0x1 DUP2 ADD SLOAD SWAP2 DUP2 ADD SLOAD PUSH1 0x5 DUP3 ADD SLOAD DUP5 SWAP4 DUP5 SWAP4 DUP5 SWAP4 DUP5 SWAP4 SWAP2 SWAP3 SWAP2 PUSH1 0xFF AND PUSH2 0x931 JUMPI PUSH1 0x0 PUSH2 0x937 JUMP JUMPDEST DUP3 PUSH1 0x4 ADD SLOAD JUMPDEST PUSH1 0x5 DUP5 ADD SLOAD PUSH1 0x2 SWAP1 SWAP5 ADD SLOAD SWAP3 SWAP11 SWAP2 SWAP10 POP SWAP8 POP PUSH1 0xFF SWAP3 DUP4 AND SWAP7 POP SWAP2 AND SWAP4 POP SWAP2 POP POP JUMP JUMPDEST PUSH1 0x2 PUSH1 0x0 SLOAD SUB PUSH2 0x9AB JUMPI PUSH1 0x40 MLOAD PUSH3 0x461BCD PUSH1 0xE5 SHL DUP2 MSTORE PUSH1 0x20 PUSH1 0x4 DUP3 ADD MSTORE PUSH1 0x1F PUSH1 0x24 DUP3 ADD MSTORE PUSH32 0x5265656E7472616E637947756172643A207265656E7472616E742063616C6C00 PUSH1 0x44 DUP3 ADD MSTORE PUSH1 0x64 ADD PUSH2 0x2A1 JUMP JUMPDEST PUSH1 0x2 PUSH1 0x0 SSTORE JUMP JUMPDEST CALLER PUSH1 0x0 SWAP1 DUP2 MSTORE PUSH1 0x3 PUSH1 0x20 MSTORE PUSH1 0x40 DUP2 KECCAK256 PUSH1 0x2 DUP1 DUP3 ADD DUP1 SLOAD PUSH1 0xFF NOT AND SWAP1 SWAP2 OR SWAP1 SSTORE SWAP1 DUP3 ISZERO PUSH2 0xA4D JUMPI DUP2 PUSH1 0x3 ADD SLOAD PUSH1 0x15 EQ DUP1 ISZERO PUSH2 0x9F3 JUMPI POP DUP2 PUSH1 0x4 ADD SLOAD DUP3 PUSH1 0x3 ADD SLOAD GT JUMPDEST ISZERO PUSH2 0xA3D JUMPI PUSH1 0x2 DUP3 PUSH1 0x1 ADD SLOAD PUSH1 0x3 PUSH2 0xA0B SWAP2 SWAP1 PUSH2 0xF1D JUMP JUMPDEST PUSH2 0xA15 SWAP2 SWAP1 PUSH2 0xF34 JUMP JUMPDEST CALLER PUSH1 0x0 SWAP1 DUP2 MSTORE PUSH1 0x4 PUSH1 0x20 MSTORE PUSH1 0x40 DUP2 KECCAK256 DUP1 SLOAD SWAP3 SWAP4 POP SWAP1 PUSH2 0xA33 DUP4 PUSH2 0xF48 JUMP JUMPDEST SWAP2 SWAP1 POP SSTORE POP PUSH2 0xA9A JUMP JUMPDEST PUSH1 0x1 DUP3 ADD SLOAD PUSH2 0xA15 SWAP1 PUSH1 0x2 PUSH2 0xF1D JUMP JUMPDEST DUP2 PUSH1 0x4 ADD SLOAD DUP3 PUSH1 0x3 ADD SLOAD EQ DUP1 ISZERO PUSH2 0xA69 JUMPI POP PUSH1 0x15 DUP3 PUSH1 0x3 ADD SLOAD GT ISZERO JUMPDEST ISZERO PUSH2 0xA79 JUMPI POP PUSH1 0x1 DUP2 ADD SLOAD PUSH2 0xA9A JUMP JUMPDEST CALLER PUSH1 0x0 SWAP1 DUP2 MSTORE PUSH1 0x5 PUSH1 0x20 MSTORE PUSH1 0x40 DUP2 KECCAK256 DUP1 SLOAD SWAP2 PUSH2 0xA94 DUP4 PUSH2 0xF48 JUMP JUMPDEST SWAP2 SWAP1 POP SSTORE POP JUMPDEST DUP1 ISZERO PUSH2 0xB2A JUMPI PUSH1 0x40 MLOAD PUSH1 0x0 SWAP1 CALLER SWAP1 DUP4 SWAP1 DUP4 DUP2 DUP2 DUP2 DUP6 DUP8 GAS CALL SWAP3 POP POP POP RETURNDATASIZE DUP1 PUSH1 0x0 DUP2 EQ PUSH2 0xAE2 JUMPI PUSH1 0x40 MLOAD SWAP2 POP PUSH1 0x1F NOT PUSH1 0x3F RETURNDATASIZE ADD AND DUP3 ADD PUSH1 0x40 MSTORE RETURNDATASIZE DUP3 MSTORE RETURNDATASIZE PUSH1 0x0 PUSH1 0x20 DUP5 ADD RETURNDATACOPY PUSH2 0xAE7 JUMP JUMPDEST PUSH1 0x60 SWAP2 POP JUMPDEST POP POP SWAP1 POP DUP1 PUSH2 0xB28 JUMPI PUSH1 0x40 MLOAD PUSH3 0x461BCD PUSH1 0xE5 SHL DUP2 MSTORE PUSH1 0x20 PUSH1 0x4 DUP3 ADD MSTORE PUSH1 0xD PUSH1 0x24 DUP3 ADD MSTORE PUSH13 0x14185E5BDD5D0819985A5B1959 PUSH1 0x9A SHL PUSH1 0x44 DUP3 ADD MSTORE PUSH1 0x64 ADD PUSH2 0x2A1 JUMP JUMPDEST POP JUMPDEST PUSH1 0x40 DUP1 MLOAD DUP5 ISZERO ISZERO DUP2 MSTORE PUSH1 0x20 DUP2 ADD DUP4 SWAP1 MSTORE CALLER SWAP2 PUSH32 0xECF5F4EB1B978762FEA46EA714A9F2CF73B6FE679E2DA6DA0E183DA40352A36A SWAP2 ADD PUSH1 0x40 MLOAD DUP1 SWAP2 SUB SWAP1 LOG2 POP POP CALLER PUSH1 0x0 SWAP1 DUP2 MSTORE PUSH1 0x3 PUSH1 0x20 DUP2 SWAP1 MSTORE PUSH1 0x40 DUP3 KECCAK256 DUP1 SLOAD PUSH1 0x1 PUSH1 0x1 PUSH1 0xA0 SHL SUB NOT AND DUP2 SSTORE PUSH1 0x1 DUP2 ADD DUP4 SWAP1 SSTORE PUSH1 0x2 DUP2 ADD DUP1 SLOAD PUSH1 0xFF NOT SWAP1 DUP2 AND SWAP1 SWAP2 SSTORE SWAP2 DUP2 ADD DUP4 SWAP1 SSTORE PUSH1 0x4 DUP2 ADD SWAP3 SWAP1 SWAP3 SSTORE PUSH1 0x5 SWAP1 SWAP2 ADD DUP1 SLOAD SWAP1 SWAP2 AND SWAP1 SSTORE POP JUMP JUMPDEST CALLER PUSH1 0x0 SWAP1 DUP2 MSTORE PUSH1 0x3 PUSH1 0x20 DUP2 SWAP1 MSTORE PUSH1 0x40 DUP3 KECCAK256 SWAP1 DUP2 ADD SLOAD PUSH1 0x15 LT ISZERO PUSH2 0xBE0 JUMPI PUSH1 0x0 SWAP2 POP POP SWAP1 JUMP JUMPDEST PUSH1 0x15 DUP2 PUSH1 0x4 ADD SLOAD GT ISZERO PUSH2 0xBF5 JUMPI PUSH1 0x1 SWAP2 POP POP SWAP1 JUMP JUMPDEST DUP1 PUSH1 0x4 ADD SLOAD DUP2 PUSH1 0x3 ADD SLOAD GT ISZERO PUSH2 0xC0D JUMPI PUSH1 0x1 SWAP2 POP POP SWAP1 JUMP JUMPDEST DUP1 PUSH1 0x4 ADD SLOAD DUP2 PUSH1 0x3 ADD SLOAD LT ISZERO PUSH2 0xC25 JUMPI PUSH1 0x0 SWAP2 POP POP SWAP1 JUMP JUMPDEST PUSH1 0x0 SWAP2 POP POP SWAP1 JUMP JUMPDEST PUSH1 0x0 DUP1 TIMESTAMP CHAINID DUP5 PUSH2 0xC5C JUMPI PUSH1 0x40 MLOAD DUP1 PUSH1 0x40 ADD PUSH1 0x40 MSTORE DUP1 PUSH1 0x7 DUP2 MSTORE PUSH1 0x20 ADD PUSH7 0x6465616C657231 PUSH1 0xC8 SHL DUP2 MSTORE POP PUSH2 0xC7D JUMP JUMPDEST PUSH1 0x40 MLOAD DUP1 PUSH1 0x40 ADD PUSH1 0x40 MSTORE DUP1 PUSH1 0x7 DUP2 MSTORE PUSH1 0x20 ADD PUSH7 0x706C6179657231 PUSH1 0xC8 SHL DUP2 MSTORE POP JUMPDEST PUSH1 0x40 MLOAD PUSH1 0x20 ADD PUSH2 0xC8F SWAP4 SWAP3 SWAP2 SWAP1 PUSH2 0xF61 JUMP JUMPDEST PUSH1 0x40 DUP1 MLOAD PUSH1 0x1F NOT DUP2 DUP5 SUB ADD DUP2 MSTORE SWAP2 SWAP1 MSTORE SWAP1 POP PUSH1 0x0 PUSH2 0xCAE TIMESTAMP PUSH1 0x1 PUSH2 0xEC4 JUMP JUMPDEST CHAINID DUP6 PUSH2 0xCD9 JUMPI PUSH1 0x40 MLOAD DUP1 PUSH1 0x40 ADD PUSH1 0x40 MSTORE DUP1 PUSH1 0x7 DUP2 MSTORE PUSH1 0x20 ADD PUSH7 0x3232B0B632B919 PUSH1 0xC9 SHL DUP2 MSTORE POP PUSH2 0xCFA JUMP JUMPDEST PUSH1 0x40 MLOAD DUP1 PUSH1 0x40 ADD PUSH1 0x40 MSTORE DUP1 PUSH1 0x7 DUP2 MSTORE PUSH1 0x20 ADD PUSH7 0x383630BCB2B919 PUSH1 0xC9 SHL DUP2 MSTORE POP JUMPDEST PUSH1 0x40 MLOAD PUSH1 0x20 ADD PUSH2 0xD0C SWAP4 SWAP3 SWAP2 SWAP1 PUSH2 0xF61 JUMP JUMPDEST PUSH1 0x40 MLOAD PUSH1 0x20 DUP2 DUP4 SUB SUB DUP2 MSTORE SWAP1 PUSH1 0x40 MSTORE SWAP1 POP PUSH1 0x0 PUSH1 0xA DUP4 DUP1 MLOAD SWAP1 PUSH1 0x20 ADD KECCAK256 PUSH1 0x0 SHR PUSH2 0xD36 SWAP2 SWAP1 PUSH2 0xE9A JUMP JUMPDEST PUSH2 0xD41 SWAP1 PUSH1 0x2 PUSH2 0xEC4 JUMP JUMPDEST DUP3 MLOAD PUSH1 0x20 DUP5 ADD KECCAK256 SWAP1 SWAP2 POP PUSH1 0x0 SWAP1 PUSH2 0xD5A SWAP1 PUSH1 0xA SWAP1 PUSH2 0xE9A JUMP JUMPDEST PUSH2 0xD65 SWAP1 PUSH1 0x2 PUSH2 0xEC4 JUMP JUMPDEST SWAP1 POP PUSH1 0xA DUP3 GT ISZERO PUSH2 0xD75 JUMPI PUSH1 0xA SWAP2 POP JUMPDEST PUSH1 0xA DUP2 GT ISZERO PUSH2 0xD82 JUMPI POP PUSH1 0xA JUMPDEST DUP2 PUSH1 0x1 SUB PUSH2 0xD8F JUMPI PUSH1 0xB SWAP2 POP JUMPDEST DUP1 PUSH1 0x1 SUB PUSH2 0xD9B JUMPI POP PUSH1 0xB JUMPDEST PUSH2 0xDA5 DUP2 DUP4 PUSH2 0xEC4 JUMP JUMPDEST SWAP7 SWAP6 POP POP POP POP POP POP JUMP JUMPDEST PUSH1 0x0 PUSH1 0x20 DUP3 DUP5 SUB SLT ISZERO PUSH2 0xDC1 JUMPI PUSH1 0x0 DUP1 REVERT JUMPDEST DUP2 CALLDATALOAD PUSH1 0x1 PUSH1 0x1 PUSH1 0xA0 SHL SUB DUP2 AND DUP2 EQ PUSH2 0xDD8 JUMPI PUSH1 0x0 DUP1 REVERT JUMPDEST SWAP4 SWAP3 POP POP POP JUMP JUMPDEST PUSH4 0x4E487B71 PUSH1 0xE0 SHL PUSH1 0x0 MSTORE PUSH1 0x21 PUSH1 0x4 MSTORE PUSH1 0x24 PUSH1 0x0 REVERT JUMPDEST PUSH1 0x3 DUP2 LT PUSH2 0xE13 JUMPI PUSH4 0x4E487B71 PUSH1 0xE0 SHL PUSH1 0x0 MSTORE PUSH1 0x21 PUSH1 0x4 MSTORE PUSH1 0x24 PUSH1 0x0 REVERT JUMPDEST SWAP1 MSTORE JUMP JUMPDEST PUSH1 0x1 PUSH1 0x1 PUSH1 0xA0 SHL SUB DUP8 AND DUP2 MSTORE PUSH1 0x20 DUP2 ADD DUP7 SWAP1 MSTORE PUSH1 0xC0 DUP2 ADD PUSH2 0xE3B PUSH1 0x40 DUP4 ADD DUP8 PUSH2 0xDF5 JUMP JUMPDEST DUP5 PUSH1 0x60 DUP4 ADD MSTORE DUP4 PUSH1 0x80 DUP4 ADD MSTORE DUP3 ISZERO ISZERO PUSH1 0xA0 DUP4 ADD MSTORE SWAP8 SWAP7 POP POP POP POP POP POP POP JUMP JUMPDEST DUP6 DUP2 MSTORE PUSH1 0x20 DUP2 ADD DUP6 SWAP1 MSTORE PUSH1 0x40 DUP2 ADD DUP5 SWAP1 MSTORE DUP3 ISZERO ISZERO PUSH1 0x60 DUP3 ADD MSTORE PUSH1 0xA0 DUP2 ADD PUSH2 0xDA5 PUSH1 0x80 DUP4 ADD DUP5 PUSH2 0xDF5 JUMP JUMPDEST PUSH4 0x4E487B71 PUSH1 0xE0 SHL PUSH1 0x0 MSTORE PUSH1 0x12 PUSH1 0x4 MSTORE PUSH1 0x24 PUSH1 0x0 REVERT JUMPDEST PUSH1 0x0 DUP3 PUSH2 0xEA9 JUMPI PUSH2 0xEA9 PUSH2 0xE84 JUMP JUMPDEST POP MOD SWAP1 JUMP JUMPDEST PUSH4 0x4E487B71 PUSH1 0xE0 SHL PUSH1 0x0 MSTORE PUSH1 0x11 PUSH1 0x4 MSTORE PUSH1 0x24 PUSH1 0x0 REVERT JUMPDEST DUP1 DUP3 ADD DUP1 DUP3 GT ISZERO PUSH2 0xED7 JUMPI PUSH2 0xED7 PUSH2 0xEAE JUMP JUMPDEST SWAP3 SWAP2 POP POP JUMP JUMPDEST PUSH1 0x0 JUMPDEST DUP4 DUP2 LT ISZERO PUSH2 0xEF8 JUMPI DUP2 DUP2 ADD MLOAD DUP4 DUP3 ADD MSTORE PUSH1 0x20 ADD PUSH2 0xEE0 JUMP JUMPDEST POP POP PUSH1 0x0 SWAP2 ADD MSTORE JUMP JUMPDEST PUSH1 0x0 DUP3 MLOAD PUSH2 0xF13 DUP2 DUP5 PUSH1 0x20 DUP8 ADD PUSH2 0xEDD JUMP JUMPDEST SWAP2 SWAP1 SWAP2 ADD SWAP3 SWAP2 POP POP JUMP JUMPDEST DUP1 DUP3 MUL DUP2 ISZERO DUP3 DUP3 DIV DUP5 EQ OR PUSH2 0xED7 JUMPI PUSH2 0xED7 PUSH2 0xEAE JUMP JUMPDEST PUSH1 0x0 DUP3 PUSH2 0xF43 JUMPI PUSH2 0xF43 PUSH2 0xE84 JUMP JUMPDEST POP DIV SWAP1 JUMP JUMPDEST PUSH1 0x0 PUSH1 0x1 DUP3 ADD PUSH2 0xF5A JUMPI PUSH2 0xF5A PUSH2 0xEAE JUMP JUMPDEST POP PUSH1 0x1 ADD SWAP1 JUMP JUMPDEST DUP4 DUP2 MSTORE DUP3 PUSH1 0x20 DUP3 ADD MSTORE PUSH1 0x0 DUP3 MLOAD PUSH2 0xF7F DUP2 PUSH1 0x40 DUP6 ADD PUSH1 0x20 DUP8 ADD PUSH2 0xEDD JUMP JUMPDEST SWAP2 SWAP1 SWAP2 ADD PUSH1 0x40 ADD SWAP5 SWAP4 POP POP POP POP JUMP INVALID LOG2 PUSH5 0x6970667358 0x22 SLT KECCAK256 DIV SHR STOP 0xC3 PUSH4 0xAD125E79 0xF7 0xE PUSH9 0x53655CB7079527AC5D CODESIZE MSTORE 0x4A PUSH20 0x314F7AE8ED03D464736F6C634300081300330000 "},"methodIdentifiers":{"activeGames(address)":"d9169b77","getGameState(address)":"d9d60b52","hit()":"2ae3594a","owner()":"8da5cb5b","paymentProcessor()":"f1c6bdf8","playerLosses(address)":"fedb848a","playerWins(address)":"8b31fb89","stand()":"c2897b10","startGame()":"d65ab5f2"}}}}}