{"contracts/SlotMachine.sol":{"SlotMachine":{"abi":[{"inputs":[{"internalType":"address payable","name":"_paymentProcessor","type":"address"}],"stateMutability":"nonpayable","type":"constructor"},{"anonymous":false,"inputs":[{"indexed":true,"internalType":"address","name":"player","type":"address"},{"indexed":false,"internalType":"uint256","name":"amount","type":"uint256"},{"indexed":false,"internalType":"uint256","name":"timestamp","type":"uint256"}],"name":"JackpotWin","type":"event"},{"anonymous":false,"inputs":[{"indexed":true,"internalType":"address","name":"player","type":"address"},{"indexed":false,"internalType":"uint256","name":"betAmount","type":"uint256"},{"indexed":false,"internalType":"uint256","name":"payout","type":"uint256"},{"indexed":false,"internalType":"uint256","name":"timestamp","type":"uint256"}],"name":"SlotSpin","type":"event"},{"inputs":[],"name":"fundJackpot","outputs":[],"stateMutability":"payable","type":"function"},{"inputs":[{"internalType":"address","name":"player","type":"address"}],"name":"getPlayerStats","outputs":[{"internalType":"uint256","name":"spins","type":"uint256"},{"internalType":"uint256","name":"winnings","type":"uint256"}],"stateMutability":"view","type":"function"},{"inputs":[],"name":"jackpot","outputs":[{"internalType":"uint256","name":"","type":"uint256"}],"stateMutability":"view","type":"function"},{"inputs":[],"name":"owner","outputs":[{"internalType":"address","name":"","type":"address"}],"stateMutability":"view","type":"function"},{"inputs":[],"name":"paymentProcessor","outputs":[{"internalType":"contract CasinoPaymentProcessor","name":"","type":"address"}],"stateMutability":"view","type":"function"},{"inputs":[{"internalType":"address","name":"","type":"address"}],"name":"playerSpins","outputs":[{"internalType":"uint256","name":"","type":"uint256"}],"stateMutability":"view","type":"function"},{"inputs":[{"internalType":"address","name":"","type":"address"}],"name":"playerWinnings","outputs":[{"internalType":"uint256","name":"","type":"uint256"}],"stateMutability":"view","type":"function"},{"inputs":[],"name":"spin","outputs":[],"stateMutability":"payable","type":"function"},{"inputs":[],"name":"totalPayouts","outputs":[{"internalType":"uint256","name":"","type":"uint256"}],"stateMutability":"view","type":"function"},{"inputs":[],"name":"totalSpins","outputs":[{"internalType":"uint256","name":"","type":"uint256"}],"stateMutability":"view","type":"function"},{"stateMutability":"payable","type":"receive"}],"evm":{"bytecode":{"linkReferences":{},"object":"608060405234801561001057600080fd5b506040516108fc3803806108fc83398101604081905261002f91610067565b6001600081815581546001600160a01b039093166001600160a01b031993841617909155600280549092163317909155600355610097565b60006020828403121561007957600080fd5b81516001600160a01b038116811461009057600080fd5b9392505050565b610856806100a66000396000f3fe6080604052600436106100955760003560e01c80638da5cb5b116100595780638da5cb5b14610192578063901b2036146101ca578063bd237741146101e0578063f0acd7d5146101ea578063f1c6bdf8146101f257600080fd5b80631fc9cee8146100a1578063252f4d81146100e15780634089b1701461010e5780634fd66eae146101245780636b31ee011461017c57600080fd5b3661009c57005b600080fd5b3480156100ad57600080fd5b506100ce6100bc36600461072a565b60046020526000908152604090205481565b6040519081526020015b60405180910390f35b3480156100ed57600080fd5b506100ce6100fc36600461072a565b60056020526000908152604090205481565b34801561011a57600080fd5b506100ce60075481565b34801561013057600080fd5b5061016761013f36600461072a565b6001600160a01b03166000908152600460209081526040808320546005909252909120549091565b604080519283526020830191909152016100d8565b34801561018857600080fd5b506100ce60035481565b34801561019e57600080fd5b506002546101b2906001600160a01b031681565b6040516001600160a01b0390911681526020016100d8565b3480156101d657600080fd5b506100ce60065481565b6101e8610212565b005b6101e8610276565b3480156101fe57600080fd5b506001546101b2906001600160a01b031681565b6002546001600160a01b0316331461025d5760405162461bcd60e51b81526020600482015260096024820152682737ba1037bbb732b960b91b60448201526064015b60405180910390fd5b346003600082825461026f9190610770565b9091555050565b61027e610635565b600034116102ce5760405162461bcd60e51b815260206004820152601b60248201527f42657420616d6f756e74206d75737420626520706f73697469766500000000006044820152606401610254565b60015460405130602482015234916000916001600160a01b0390911690839060440160408051601f198184030181529181526020820180516001600160e01b031663b07ce02560e01b179052516103259190610783565b60006040518083038185875af1925050503d8060008114610362576040519150601f19603f3d011682016040523d82523d6000602084013e610367565b606091505b50509050806103b85760405162461bcd60e51b815260206004820152601960248201527f5061796d656e742070726f63657373696e67206661696c6564000000000000006044820152606401610254565b600654604080514260208083019190915244828401524660608084019190915233901b6bffffffffffffffffffffffff191660808301526094808301949094528251808303909401845260b49091019091528151910120600061041b828561068e565b336000908152600460205260408120805492935090610439836107b2565b90915550506006805490600061044e836107b2565b909155505080156105c1573360009081526005602052604081208054839290610478908490610770565b9250508190555080600760008282546104919190610770565b909155506104a290508460646107cb565b81106105085760035415610503576003546104bd9082610770565b6003546040805191825242602083015291925033917fb3c089216f23b7daf9ba89aed51ed7cd7a84a690165388c507a0da320840c29a910160405180910390a260006003555b61052a565b6105136064856107f8565b600360008282546105249190610770565b90915550505b604051600090339083908381818185875af1925050503d806000811461056c576040519150601f19603f3d011682016040523d82523d6000602084013e610571565b606091505b50509050806105bb5760405162461bcd60e51b815260206004820152601660248201527514185e5bdd5d081d1c985b9cd9995c8819985a5b195960521b6044820152606401610254565b506105e3565b6105cc6064856107f8565b600360008282546105dd9190610770565b90915550505b60408051858152602081018390524281830152905133917f28cb11395968b614477b15d18ed79471e761ec8b71047eda84c2675e98be8104919081900360600190a2505050506106336001600055565b565b6002600054036106875760405162461bcd60e51b815260206004820152601f60248201527f5265656e7472616e637947756172643a207265656e7472616e742063616c6c006044820152606401610254565b6002600055565b60008061069d6103e88561080c565b905060058110156106bb576106b38360646107cb565b915050610724565b60148110156106cf576106b38360146107cb565b60328110156106e3576106b383600a6107cb565b60648110156106f7576106b38360056107cb565b60c881101561070b576106b38360026107cb565b61019081101561071e5782915050610724565b60009150505b92915050565b60006020828403121561073c57600080fd5b81356001600160a01b038116811461075357600080fd5b9392505050565b634e487b7160e01b600052601160045260246000fd5b808201808211156107245761072461075a565b6000825160005b818110156107a4576020818601810151858301520161078a565b506000920191825250919050565b6000600182016107c4576107c461075a565b5060010190565b80820281158282048414176107245761072461075a565b634e487b7160e01b600052601260045260246000fd5b600082610807576108076107e2565b500490565b60008261081b5761081b6107e2565b50069056fea2646970667358221220b50cd3919a1fb968cf4b8b1179902bc367e1aeb7645944987aa22935e898e15364736f6c63430008130033","opcodes":"PUSH1 0x80 PUSH1 0x40 MSTORE CALLVALUE DUP1 ISZERO PUSH2 0x10 JUMPI PUSH1 0x0 DUP1 REVERT JUMPDEST POP PUSH1 0x40 MLOAD PUSH2 0x8FC CODESIZE SUB DUP1 PUSH2 0x8FC DUP4 CODECOPY DUP2 ADD PUSH1 0x40 DUP2 SWAP1 MSTORE PUSH2 0x2F SWAP2 PUSH2 0x67 JUMP JUMPDEST PUSH1 0x1 PUSH1 0x0 DUP2 DUP2 SSTORE DUP2 SLOAD PUSH1 0x1 PUSH1 0x1 PUSH1 0xA0 SHL SUB SWAP1 SWAP4 AND PUSH1 0x1 PUSH1 0x1 PUSH1 0xA0 SHL SUB NOT SWAP4 DUP5 AND OR SWAP1 SWAP2 SSTORE PUSH1 0x2 DUP1 SLOAD SWAP1 SWAP3 AND CALLER OR SWAP1 SWAP2 SSTORE PUSH1 0x3 SSTORE PUSH2 0x97 JUMP JUMPDEST PUSH1 0x0 PUSH1 0x20 DUP3 DUP5 SUB SLT ISZERO PUSH2 0x79 JUMPI PUSH1 0x0 DUP1 REVERT JUMPDEST DUP2 MLOAD PUSH1 0x1 PUSH1 0x1 PUSH1 0xA0 SHL SUB DUP2 AND DUP2 EQ PUSH2 0x90 JUMPI PUSH1 0x0 DUP1 REVERT JUMPDEST SWAP4 SWAP3 POP POP POP JUMP JUMPDEST PUSH2 0x856 DUP1 PUSH2 0xA6 PUSH1 0x0 CODECOPY PUSH1 0x0 RETURN INVALID PUSH1 0x80 PUSH1 0x40 MSTORE PUSH1 0x4 CALLDATASIZE LT PUSH2 0x95 JUMPI PUSH1 0x0 CALLDATALOAD PUSH1 0xE0 SHR DUP1 PUSH4 0x8DA5CB5B GT PUSH2 0x59 JUMPI DUP1 PUSH4 0x8DA5CB5B EQ PUSH2 0x192 JUMPI DUP1 PUSH4 0x901B2036 EQ PUSH2 0x1CA JUMPI DUP1 PUSH4 0xBD237741 EQ PUSH2 0x1E0 JUMPI DUP1 PUSH4 0xF0ACD7D5 EQ PUSH2 0x1EA JUMPI DUP1 PUSH4 0xF1C6BDF8 EQ PUSH2 0x1F2 JUMPI PUSH1 0x0 DUP1 REVERT JUMPDEST DUP1 PUSH4 0x1FC9CEE8 EQ PUSH2 0xA1 JUMPI DUP1 PUSH4 0x252F4D81 EQ PUSH2 0xE1 JUMPI DUP1 PUSH4 0x4089B170 EQ PUSH2 0x10E JUMPI DUP1 PUSH4 0x4FD66EAE EQ PUSH2 0x124 JUMPI DUP1 PUSH4 0x6B31EE01 EQ PUSH2 0x17C JUMPI PUSH1 0x0 DUP1 REVERT JUMPDEST CALLDATASIZE PUSH2 0x9C JUMPI STOP JUMPDEST PUSH1 0x0 DUP1 REVERT JUMPDEST CALLVALUE DUP1 ISZERO PUSH2 0xAD JUMPI PUSH1 0x0 DUP1 REVERT JUMPDEST POP PUSH2 0xCE PUSH2 0xBC CALLDATASIZE PUSH1 0x4 PUSH2 0x72A JUMP JUMPDEST PUSH1 0x4 PUSH1 0x20 MSTORE PUSH1 0x0 SWAP1 DUP2 MSTORE PUSH1 0x40 SWAP1 KECCAK256 SLOAD DUP2 JUMP JUMPDEST PUSH1 0x40 MLOAD SWAP1 DUP2 MSTORE PUSH1 0x20 ADD JUMPDEST PUSH1 0x40 MLOAD DUP1 SWAP2 SUB SWAP1 RETURN JUMPDEST CALLVALUE DUP1 ISZERO PUSH2 0xED JUMPI PUSH1 0x0 DUP1 REVERT JUMPDEST POP PUSH2 0xCE PUSH2 0xFC CALLDATASIZE PUSH1 0x4 PUSH2 0x72A JUMP JUMPDEST PUSH1 0x5 PUSH1 0x20 MSTORE PUSH1 0x0 SWAP1 DUP2 MSTORE PUSH1 0x40 SWAP1 KECCAK256 SLOAD DUP2 JUMP JUMPDEST CALLVALUE DUP1 ISZERO PUSH2 0x11A JUMPI PUSH1 0x0 DUP1 REVERT JUMPDEST POP PUSH2 0xCE PUSH1 0x7 SLOAD DUP2 JUMP JUMPDEST CALLVALUE DUP1 ISZERO PUSH2 0x130 JUMPI PUSH1 0x0 DUP1 REVERT JUMPDEST POP PUSH2 0x167 PUSH2 0x13F CALLDATASIZE PUSH1 0x4 PUSH2 0x72A JUMP JUMPDEST PUSH1 0x1 PUSH1 0x1 PUSH1 0xA0 SHL SUB AND PUSH1 0x0 SWAP1 DUP2 MSTORE PUSH1 0x4 PUSH1 0x20 SWAP1 DUP2 MSTORE PUSH1 0x40 DUP1 DUP4 KECCAK256 SLOAD PUSH1 0x5 SWAP1 SWAP3 MSTORE SWAP1 SWAP2 KECCAK256 SLOAD SWAP1 SWAP2 JUMP JUMPDEST PUSH1 0x40 DUP1 MLOAD SWAP3 DUP4 MSTORE PUSH1 0x20 DUP4 ADD SWAP2 SWAP1 SWAP2 MSTORE ADD PUSH2 0xD8 JUMP JUMPDEST CALLVALUE DUP1 ISZERO PUSH2 0x188 JUMPI PUSH1 0x0 DUP1 REVERT JUMPDEST POP PUSH2 0xCE PUSH1 0x3 SLOAD DUP2 JUMP JUMPDEST CALLVALUE DUP1 ISZERO PUSH2 0x19E JUMPI PUSH1 0x0 DUP1 REVERT JUMPDEST POP PUSH1 0x2 SLOAD PUSH2 0x1B2 SWAP1 PUSH1 0x1 PUSH1 0x1 PUSH1 0xA0 SHL SUB AND DUP2 JUMP JUMPDEST PUSH1 0x40 MLOAD PUSH1 0x1 PUSH1 0x1 PUSH1 0xA0 SHL SUB SWAP1 SWAP2 AND DUP2 MSTORE PUSH1 0x20 ADD PUSH2 0xD8 JUMP JUMPDEST CALLVALUE DUP1 ISZERO PUSH2 0x1D6 JUMPI PUSH1 0x0 DUP1 REVERT JUMPDEST POP PUSH2 0xCE PUSH1 0x6 SLOAD DUP2 JUMP JUMPDEST PUSH2 0x1E8 PUSH2 0x212 JUMP JUMPDEST STOP JUMPDEST PUSH2 0x1E8 PUSH2 0x276 JUMP JUMPDEST CALLVALUE DUP1 ISZERO PUSH2 0x1FE JUMPI PUSH1 0x0 DUP1 REVERT JUMPDEST POP PUSH1 0x1 SLOAD PUSH2 0x1B2 SWAP1 PUSH1 0x1 PUSH1 0x1 PUSH1 0xA0 SHL SUB AND DUP2 JUMP JUMPDEST PUSH1 0x2 SLOAD PUSH1 0x1 PUSH1 0x1 PUSH1 0xA0 SHL SUB AND CALLER EQ PUSH2 0x25D JUMPI PUSH1 0x40 MLOAD PUSH3 0x461BCD PUSH1 0xE5 SHL DUP2 MSTORE PUSH1 0x20 PUSH1 0x4 DUP3 ADD MSTORE PUSH1 0x9 PUSH1 0x24 DUP3 ADD MSTORE PUSH9 0x2737BA1037BBB732B9 PUSH1 0xB9 SHL PUSH1 0x44 DUP3 ADD MSTORE PUSH1 0x64 ADD JUMPDEST PUSH1 0x40 MLOAD DUP1 SWAP2 SUB SWAP1 REVERT JUMPDEST CALLVALUE PUSH1 0x3 PUSH1 0x0 DUP3 DUP3 SLOAD PUSH2 0x26F SWAP2 SWAP1 PUSH2 0x770 JUMP JUMPDEST SWAP1 SWAP2 SSTORE POP POP JUMP JUMPDEST PUSH2 0x27E PUSH2 0x635 JUMP JUMPDEST PUSH1 0x0 CALLVALUE GT PUSH2 0x2CE JUMPI PUSH1 0x40 MLOAD PUSH3 0x461BCD PUSH1 0xE5 SHL DUP2 MSTORE PUSH1 0x20 PUSH1 0x4 DUP3 ADD MSTORE PUSH1 0x1B PUSH1 0x24 DUP3 ADD MSTORE PUSH32 0x42657420616D6F756E74206D75737420626520706F7369746976650000000000 PUSH1 0x44 DUP3 ADD MSTORE PUSH1 0x64 ADD PUSH2 0x254 JUMP JUMPDEST PUSH1 0x1 SLOAD PUSH1 0x40 MLOAD ADDRESS PUSH1 0x24 DUP3 ADD MSTORE CALLVALUE SWAP2 PUSH1 0x0 SWAP2 PUSH1 0x1 PUSH1 0x1 PUSH1 0xA0 SHL SUB SWAP1 SWAP2 AND SWAP1 DUP4 SWAP1 PUSH1 0x44 ADD PUSH1 0x40 DUP1 MLOAD PUSH1 0x1F NOT DUP2 DUP5 SUB ADD DUP2 MSTORE SWAP2 DUP2 MSTORE PUSH1 0x20 DUP3 ADD DUP1 MLOAD PUSH1 0x1 PUSH1 0x1 PUSH1 0xE0 SHL SUB AND PUSH4 0xB07CE025 PUSH1 0xE0 SHL OR SWAP1 MSTORE MLOAD PUSH2 0x325 SWAP2 SWAP1 PUSH2 0x783 JUMP JUMPDEST PUSH1 0x0 PUSH1 0x40 MLOAD DUP1 DUP4 SUB DUP2 DUP6 DUP8 GAS CALL SWAP3 POP POP POP RETURNDATASIZE DUP1 PUSH1 0x0 DUP2 EQ PUSH2 0x362 JUMPI PUSH1 0x40 MLOAD SWAP2 POP PUSH1 0x1F NOT PUSH1 0x3F RETURNDATASIZE ADD AND DUP3 ADD PUSH1 0x40 MSTORE RETURNDATASIZE DUP3 MSTORE RETURNDATASIZE PUSH1 0x0 PUSH1 0x20 DUP5 ADD RETURNDATACOPY PUSH2 0x367 JUMP JUMPDEST PUSH1 0x60 SWAP2 POP JUMPDEST POP POP SWAP1 POP DUP1 PUSH2 0x3B8 JUMPI PUSH1 0x40 MLOAD PUSH3 0x461BCD PUSH1 0xE5 SHL DUP2 MSTORE PUSH1 0x20 PUSH1 0x4 DUP3 ADD MSTORE PUSH1 0x19 PUSH1 0x24 DUP3 ADD MSTORE PUSH32 0x5061796D656E742070726F63657373696E67206661696C656400000000000000 PUSH1 0x44 DUP3 ADD MSTORE PUSH1 0x64 ADD PUSH2 0x254 JUMP JUMPDEST PUSH1 0x6 SLOAD PUSH1 0x40 DUP1 MLOAD TIMESTAMP PUSH1 0x20 DUP1 DUP4 ADD SWAP2 SWAP1 SWAP2 MSTORE PREVRANDAO DUP3 DUP5 ADD MSTORE CHAINID PUSH1 0x60 DUP1 DUP5 ADD SWAP2 SWAP1 SWAP2 MSTORE CALLER SWAP1 SHL PUSH12 0xFFFFFFFFFFFFFFFFFFFFFFFF NOT AND PUSH1 0x80 DUP4 ADD MSTORE PUSH1 0x94 DUP1 DUP4 ADD SWAP5 SWAP1 SWAP5 MSTORE DUP3 MLOAD DUP1 DUP4 SUB SWAP1 SWAP5 ADD DUP5 MSTORE PUSH1 0xB4 SWAP1 SWAP2 ADD SWAP1 SWAP2 MSTORE DUP2 MLOAD SWAP2 ADD KECCAK256 PUSH1 0x0 PUSH2 0x41B DUP3 DUP6 PUSH2 0x68E JUMP JUMPDEST CALLER PUSH1 0x0 SWAP1 DUP2 MSTORE PUSH1 0x4 PUSH1 0x20 MSTORE PUSH1 0x40 DUP2 KECCAK256 DUP1 SLOAD SWAP3 SWAP4 POP SWAP1 PUSH2 0x439 DUP4 PUSH2 0x7B2 JUMP JUMPDEST SWAP1 SWAP2 SSTORE POP POP PUSH1 0x6 DUP1 SLOAD SWAP1 PUSH1 0x0 PUSH2 0x44E DUP4 PUSH2 0x7B2 JUMP JUMPDEST SWAP1 SWAP2 SSTORE POP POP DUP1 ISZERO PUSH2 0x5C1 JUMPI CALLER PUSH1 0x0 SWAP1 DUP2 MSTORE PUSH1 0x5 PUSH1 0x20 MSTORE PUSH1 0x40 DUP2 KECCAK256 DUP1 SLOAD DUP4 SWAP3 SWAP1 PUSH2 0x478 SWAP1 DUP5 SWAP1 PUSH2 0x770 JUMP JUMPDEST SWAP3 POP POP DUP2 SWAP1 SSTORE POP DUP1 PUSH1 0x7 PUSH1 0x0 DUP3 DUP3 SLOAD PUSH2 0x491 SWAP2 SWAP1 PUSH2 0x770 JUMP JUMPDEST SWAP1 SWAP2 SSTORE POP PUSH2 0x4A2 SWAP1 POP DUP5 PUSH1 0x64 PUSH2 0x7CB JUMP JUMPDEST DUP2 LT PUSH2 0x508 JUMPI PUSH1 0x3 SLOAD ISZERO PUSH2 0x503 JUMPI PUSH1 0x3 SLOAD PUSH2 0x4BD SWAP1 DUP3 PUSH2 0x770 JUMP JUMPDEST PUSH1 0x3 SLOAD PUSH1 0x40 DUP1 MLOAD SWAP2 DUP3 MSTORE TIMESTAMP PUSH1 0x20 DUP4 ADD MSTORE SWAP2 SWAP3 POP CALLER SWAP2 PUSH32 0xB3C089216F23B7DAF9BA89AED51ED7CD7A84A690165388C507A0DA320840C29A SWAP2 ADD PUSH1 0x40 MLOAD DUP1 SWAP2 SUB SWAP1 LOG2 PUSH1 0x0 PUSH1 0x3 SSTORE JUMPDEST PUSH2 0x52A JUMP JUMPDEST PUSH2 0x513 PUSH1 0x64 DUP6 PUSH2 0x7F8 JUMP JUMPDEST PUSH1 0x3 PUSH1 0x0 DUP3 DUP3 SLOAD PUSH2 0x524 SWAP2 SWAP1 PUSH2 0x770 JUMP JUMPDEST SWAP1 SWAP2 SSTORE POP POP JUMPDEST PUSH1 0x40 MLOAD PUSH1 0x0 SWAP1 CALLER SWAP1 DUP4 SWAP1 DUP4 DUP2 DUP2 DUP2 DUP6 DUP8 GAS CALL SWAP3 POP POP POP RETURNDATASIZE DUP1 PUSH1 0x0 DUP2 EQ PUSH2 0x56C JUMPI PUSH1 0x40 MLOAD SWAP2 POP PUSH1 0x1F NOT PUSH1 0x3F RETURNDATASIZE ADD AND DUP3 ADD PUSH1 0x40 MSTORE RETURNDATASIZE DUP3 MSTORE RETURNDATASIZE PUSH1 0x0 PUSH1 0x20 DUP5 ADD RETURNDATACOPY PUSH2 0x571 JUMP JUMPDEST PUSH1 0x60 SWAP2 POP JUMPDEST POP POP SWAP1 POP DUP1 PUSH2 0x5BB JUMPI PUSH1 0x40 MLOAD PUSH3 0x461BCD PUSH1 0xE5 SHL DUP2 MSTORE PUSH1 0x20 PUSH1 0x4 DUP3 ADD MSTORE PUSH1 0x16 PUSH1 0x24 DUP3 ADD MSTORE PUSH22 0x14185E5BDD5D081D1C985B9CD9995C8819985A5B1959 PUSH1 0x52 SHL PUSH1 0x44 DUP3 ADD MSTORE PUSH1 0x64 ADD PUSH2 0x254 JUMP JUMPDEST POP PUSH2 0x5E3 JUMP JUMPDEST PUSH2 0x5CC PUSH1 0x64 DUP6 PUSH2 0x7F8 JUMP JUMPDEST PUSH1 0x3 PUSH1 0x0 DUP3 DUP3 SLOAD PUSH2 0x5DD SWAP2 SWAP1 PUSH2 0x770 JUMP JUMPDEST SWAP1 SWAP2 SSTORE POP POP JUMPDEST PUSH1 0x40 DUP1 MLOAD DUP6 DUP2 MSTORE PUSH1 0x20 DUP2 ADD DUP4 SWAP1 MSTORE TIMESTAMP DUP2 DUP4 ADD MSTORE SWAP1 MLOAD CALLER SWAP2 PUSH32 0x28CB11395968B614477B15D18ED79471E761EC8B71047EDA84C2675E98BE8104 SWAP2 SWAP1 DUP2 SWAP1 SUB PUSH1 0x60 ADD SWAP1 LOG2 POP POP POP POP PUSH2 0x633 PUSH1 0x1 PUSH1 0x0 SSTORE JUMP JUMPDEST JUMP JUMPDEST PUSH1 0x2 PUSH1 0x0 SLOAD SUB PUSH2 0x687 JUMPI PUSH1 0x40 MLOAD PUSH3 0x461BCD PUSH1 0xE5 SHL DUP2 MSTORE PUSH1 0x20 PUSH1 0x4 DUP3 ADD MSTORE PUSH1 0x1F PUSH1 0x24 DUP3 ADD MSTORE PUSH32 0x5265656E7472616E637947756172643A207265656E7472616E742063616C6C00 PUSH1 0x44 DUP3 ADD MSTORE PUSH1 0x64 ADD PUSH2 0x254 JUMP JUMPDEST PUSH1 0x2 PUSH1 0x0 SSTORE JUMP JUMPDEST PUSH1 0x0 DUP1 PUSH2 0x69D PUSH2 0x3E8 DUP6 PUSH2 0x80C JUMP JUMPDEST SWAP1 POP PUSH1 0x5 DUP2 LT ISZERO PUSH2 0x6BB JUMPI PUSH2 0x6B3 DUP4 PUSH1 0x64 PUSH2 0x7CB JUMP JUMPDEST SWAP2 POP POP PUSH2 0x724 JUMP JUMPDEST PUSH1 0x14 DUP2 LT ISZERO PUSH2 0x6CF JUMPI PUSH2 0x6B3 DUP4 PUSH1 0x14 PUSH2 0x7CB JUMP JUMPDEST PUSH1 0x32 DUP2 LT ISZERO PUSH2 0x6E3 JUMPI PUSH2 0x6B3 DUP4 PUSH1 0xA PUSH2 0x7CB JUMP JUMPDEST PUSH1 0x64 DUP2 LT ISZERO PUSH2 0x6F7 JUMPI PUSH2 0x6B3 DUP4 PUSH1 0x5 PUSH2 0x7CB JUMP JUMPDEST PUSH1 0xC8 DUP2 LT ISZERO PUSH2 0x70B JUMPI PUSH2 0x6B3 DUP4 PUSH1 0x2 PUSH2 0x7CB JUMP JUMPDEST PUSH2 0x190 DUP2 LT ISZERO PUSH2 0x71E JUMPI DUP3 SWAP2 POP POP PUSH2 0x724 JUMP JUMPDEST PUSH1 0x0 SWAP2 POP POP JUMPDEST SWAP3 SWAP2 POP POP JUMP JUMPDEST PUSH1 0x0 PUSH1 0x20 DUP3 DUP5 SUB SLT ISZERO PUSH2 0x73C JUMPI PUSH1 0x0 DUP1 REVERT JUMPDEST DUP2 CALLDATALOAD PUSH1 0x1 PUSH1 0x1 PUSH1 0xA0 SHL SUB DUP2 AND DUP2 EQ PUSH2 0x753 JUMPI PUSH1 0x0 DUP1 REVERT JUMPDEST SWAP4 SWAP3 POP POP POP JUMP JUMPDEST PUSH4 0x4E487B71 PUSH1 0xE0 SHL PUSH1 0x0 MSTORE PUSH1 0x11 PUSH1 0x4 MSTORE PUSH1 0x24 PUSH1 0x0 REVERT JUMPDEST DUP1 DUP3 ADD DUP1 DUP3 GT ISZERO PUSH2 0x724 JUMPI PUSH2 0x724 PUSH2 0x75A JUMP JUMPDEST PUSH1 0x0 DUP3 MLOAD PUSH1 0x0 JUMPDEST DUP2 DUP2 LT ISZERO PUSH2 0x7A4 JUMPI PUSH1 0x20 DUP2 DUP7 ADD DUP2 ADD MLOAD DUP6 DUP4 ADD MSTORE ADD PUSH2 0x78A JUMP JUMPDEST POP PUSH1 0x0 SWAP3 ADD SWAP2 DUP3 MSTORE POP SWAP2 SWAP1 POP JUMP JUMPDEST PUSH1 0x0 PUSH1 0x1 DUP3 ADD PUSH2 0x7C4 JUMPI PUSH2 0x7C4 PUSH2 0x75A JUMP JUMPDEST POP PUSH1 0x1 ADD SWAP1 JUMP JUMPDEST DUP1 DUP3 MUL DUP2 ISZERO DUP3 DUP3 DIV DUP5 EQ OR PUSH2 0x724 JUMPI PUSH2 0x724 PUSH2 0x75A JUMP JUMPDEST PUSH4 0x4E487B71 PUSH1 0xE0 SHL PUSH1 0x0 MSTORE PUSH1 0x12 PUSH1 0x4 MSTORE PUSH1 0x24 PUSH1 0x0 REVERT JUMPDEST PUSH1 0x0 DUP3 PUSH2 0x807 JUMPI PUSH2 0x807 PUSH2 0x7E2 JUMP JUMPDEST POP DIV SWAP1 JUMP JUMPDEST PUSH1 0x0 DUP3 PUSH2 0x81B JUMPI PUSH2 0x81B PUSH2 0x7E2 JUMP JUMPDEST POP MOD SWAP1 JUMP INVALID LOG2 PUSH5 0x6970667358 0x22 SLT KECCAK256 0xB5 0xC 0xD3 SWAP2 SWAP11 0x1F 0xB9 PUSH9 0xCF4B8B1179902BC367 0xE1 0xAE 0xB7 PUSH5 0x5944987AA2 0x29 CALLDATALOAD 0xE8 SWAP9 0xE1 MSTORE8 PUSH5 0x736F6C6343 STOP ADDMOD SGT STOP CALLER "},"methodIdentifiers":{"fundJackpot()":"bd237741","getPlayerStats(address)":"4fd66eae","jackpot()":"6b31ee01","owner()":"8da5cb5b","paymentProcessor()":"f1c6bdf8","playerSpins(address)":"1fc9cee8","playerWinnings(address)":"252f4d81","spin()":"f0acd7d5","totalPayouts()":"4089b170","totalSpins()":"901b2036"}}}}}