{
  "_format": "hh-sol-artifact-1",
  "contractName": "PokerGame",
  "sourceName": "contracts/PokerGame.sol",
  "abi": [
    {
      "inputs": [
        {
          "internalType": "address payable",
          "name": "_paymentProcessor",
          "type": "address"
        }
      ],
      "stateMutability": "nonpayable",
      "type": "constructor"
    },
    {
      "anonymous": false,
      "inputs": [
        {
          "indexed": true,
          "internalType": "bytes32",
          "name": "gameId",
          "type": "bytes32"
        },
        {
          "indexed": false,
          "internalType": "address",
          "name": "cancelledBy",
          "type": "address"
        }
      ],
      "name": "GameCancelled",
      "type": "event"
    },
    {
      "anonymous": false,
      "inputs": [
        {
          "indexed": true,
          "internalType": "bytes32",
          "name": "gameId",
          "type": "bytes32"
        },
        {
          "indexed": false,
          "internalType": "address",
          "name": "winner",
          "type": "address"
        },
        {
          "indexed": false,
          "internalType": "uint256",
          "name": "prize",
          "type": "uint256"
        }
      ],
      "name": "GameCompleted",
      "type": "event"
    },
    {
      "anonymous": false,
      "inputs": [
        {
          "indexed": true,
          "internalType": "bytes32",
          "name": "gameId",
          "type": "bytes32"
        },
        {
          "indexed": false,
          "internalType": "address",
          "name": "creator",
          "type": "address"
        },
        {
          "indexed": false,
          "internalType": "uint256",
          "name": "buyIn",
          "type": "uint256"
        },
        {
          "indexed": false,
          "internalType": "uint256",
          "name": "maxPlayers",
          "type": "uint256"
        }
      ],
      "name": "GameCreated",
      "type": "event"
    },
    {
      "anonymous": false,
      "inputs": [
        {
          "indexed": true,
          "internalType": "bytes32",
          "name": "gameId",
          "type": "bytes32"
        },
        {
          "indexed": false,
          "internalType": "address",
          "name": "player",
          "type": "address"
        },
        {
          "indexed": false,
          "internalType": "uint256",
          "name": "amount",
          "type": "uint256"
        }
      ],
      "name": "PlayerJoined",
      "type": "event"
    },
    {
      "anonymous": false,
      "inputs": [
        {
          "indexed": true,
          "internalType": "address",
          "name": "player",
          "type": "address"
        },
        {
          "indexed": false,
          "internalType": "uint256",
          "name": "amount",
          "type": "uint256"
        }
      ],
      "name": "WinningsClaimed",
      "type": "event"
    },
    {
      "inputs": [
        {
          "internalType": "bytes32",
          "name": "gameId",
          "type": "bytes32"
        }
      ],
      "name": "cancelGame",
      "outputs": [],
      "stateMutability": "nonpayable",
      "type": "function"
    },
    {
      "inputs": [],
      "name": "claimWinnings",
      "outputs": [],
      "stateMutability": "nonpayable",
      "type": "function"
    },
    {
      "inputs": [
        {
          "internalType": "bytes32",
          "name": "gameId",
          "type": "bytes32"
        },
        {
          "internalType": "address",
          "name": "winner",
          "type": "address"
        }
      ],
      "name": "completeGame",
      "outputs": [],
      "stateMutability": "nonpayable",
      "type": "function"
    },
    {
      "inputs": [
        {
          "internalType": "bytes32",
          "name": "gameId",
          "type": "bytes32"
        },
        {
          "internalType": "uint256",
          "name": "buyIn",
          "type": "uint256"
        },
        {
          "internalType": "uint256",
          "name": "maxPlayers",
          "type": "uint256"
        }
      ],
      "name": "createGame",
      "outputs": [],
      "stateMutability": "payable",
      "type": "function"
    },
    {
      "inputs": [
        {
          "internalType": "bytes32",
          "name": "",
          "type": "bytes32"
        }
      ],
      "name": "games",
      "outputs": [
        {
          "internalType": "uint256",
          "name": "buyIn",
          "type": "uint256"
        },
        {
          "internalType": "uint256",
          "name": "pot",
          "type": "uint256"
        },
        {
          "internalType": "enum PokerGame.GameState",
          "name": "state",
          "type": "uint8"
        },
        {
          "internalType": "uint256",
          "name": "startTime",
          "type": "uint256"
        },
        {
          "internalType": "uint256",
          "name": "maxPlayers",
          "type": "uint256"
        },
        {
          "internalType": "address",
          "name": "winner",
          "type": "address"
        },
        {
          "internalType": "bytes32",
          "name": "gameId",
          "type": "bytes32"
        }
      ],
      "stateMutability": "view",
      "type": "function"
    },
    {
      "inputs": [
        {
          "internalType": "address",
          "name": "",
          "type": "address"
        }
      ],
      "name": "gamesPlayed",
      "outputs": [
        {
          "internalType": "uint256",
          "name": "",
          "type": "uint256"
        }
      ],
      "stateMutability": "view",
      "type": "function"
    },
    {
      "inputs": [],
      "name": "getActiveGames",
      "outputs": [
        {
          "internalType": "bytes32[]",
          "name": "",
          "type": "bytes32[]"
        }
      ],
      "stateMutability": "view",
      "type": "function"
    },
    {
      "inputs": [
        {
          "internalType": "bytes32",
          "name": "gameId",
          "type": "bytes32"
        }
      ],
      "name": "getGameInfo",
      "outputs": [
        {
          "internalType": "address[]",
          "name": "players",
          "type": "address[]"
        },
        {
          "internalType": "uint256",
          "name": "buyIn",
          "type": "uint256"
        },
        {
          "internalType": "uint256",
          "name": "pot",
          "type": "uint256"
        },
        {
          "internalType": "uint256",
          "name": "state",
          "type": "uint256"
        },
        {
          "internalType": "uint256",
          "name": "startTime",
          "type": "uint256"
        },
        {
          "internalType": "uint256",
          "name": "maxPlayers",
          "type": "uint256"
        },
        {
          "internalType": "address",
          "name": "winner",
          "type": "address"
        }
      ],
      "stateMutability": "view",
      "type": "function"
    },
    {
      "inputs": [
        {
          "internalType": "address",
          "name": "player",
          "type": "address"
        }
      ],
      "name": "getGamesPlayed",
      "outputs": [
        {
          "internalType": "uint256",
          "name": "",
          "type": "uint256"
        }
      ],
      "stateMutability": "view",
      "type": "function"
    },
    {
      "inputs": [
        {
          "internalType": "address",
          "name": "player",
          "type": "address"
        }
      ],
      "name": "getPlayerWinnings",
      "outputs": [
        {
          "internalType": "uint256",
          "name": "",
          "type": "uint256"
        }
      ],
      "stateMutability": "view",
      "type": "function"
    },
    {
      "inputs": [
        {
          "internalType": "bytes32",
          "name": "gameId",
          "type": "bytes32"
        },
        {
          "internalType": "address",
          "name": "player",
          "type": "address"
        }
      ],
      "name": "isPlayerInGame",
      "outputs": [
        {
          "internalType": "bool",
          "name": "",
          "type": "bool"
        }
      ],
      "stateMutability": "view",
      "type": "function"
    },
    {
      "inputs": [
        {
          "internalType": "bytes32",
          "name": "gameId",
          "type": "bytes32"
        }
      ],
      "name": "joinGame",
      "outputs": [],
      "stateMutability": "payable",
      "type": "function"
    },
    {
      "inputs": [],
      "name": "owner",
      "outputs": [
        {
          "internalType": "address",
          "name": "",
          "type": "address"
        }
      ],
      "stateMutability": "view",
      "type": "function"
    },
    {
      "inputs": [],
      "name": "paymentProcessor",
      "outputs": [
        {
          "internalType": "contract CasinoPaymentProcessor",
          "name": "",
          "type": "address"
        }
      ],
      "stateMutability": "view",
      "type": "function"
    },
    {
      "inputs": [
        {
          "internalType": "address",
          "name": "",
          "type": "address"
        }
      ],
      "name": "playerWinnings",
      "outputs": [
        {
          "internalType": "uint256",
          "name": "",
          "type": "uint256"
        }
      ],
      "stateMutability": "view",
      "type": "function"
    }
  ],
  "bytecode": "0x608060405234801561001057600080fd5b5060405161166838038061166883398101604081905261002f91610062565b6001600081905580546001600160a01b039092166001600160a01b03199283161790556002805490911633179055610092565b60006020828403121561007457600080fd5b81516001600160a01b038116811461008b57600080fd5b9392505050565b6115c7806100a16000396000f3fe6080604052600436106100e75760003560e01c80638da5cb5b1161008a578063d26a088011610059578063d26a0880146102af578063e9df3027146102df578063f1c6bdf8146102ff578063f579f8821461031f57600080fd5b80638da5cb5b1461021c578063b2c553b214610254578063b401faf114610287578063bf4747661461029c57600080fd5b8063248c523a116100c6578063248c523a1461018d578063252f4d81146101a25780633f7121b0146101cf57806370180bc1146101ef57600080fd5b8062bc7893146100ec5780631b76929c146101355780632315bbe314610157575b600080fd5b3480156100f857600080fd5b506101226101073660046112cb565b6001600160a01b031660009081526004602052604090205490565b6040519081526020015b60405180910390f35b34801561014157600080fd5b5061014a61039d565b60405161012c91906112ed565b34801561016357600080fd5b506101226101723660046112cb565b6001600160a01b031660009081526005602052604090205490565b6101a061019b366004611331565b61052d565b005b3480156101ae57600080fd5b506101226101bd3660046112cb565b60046020526000908152604090205481565b3480156101db57600080fd5b506101a06101ea36600461135d565b61090b565b3480156101fb57600080fd5b5061012261020a3660046112cb565b60056020526000908152604090205481565b34801561022857600080fd5b5060025461023c906001600160a01b031681565b6040516001600160a01b03909116815260200161012c565b34801561026057600080fd5b5061027461026f36600461135d565b610a22565b60405161012c9796959493929190611376565b34801561029357600080fd5b506101a0610af2565b6101a06102aa36600461135d565b610c2a565b3480156102bb57600080fd5b506102cf6102ca3660046113f5565b610f71565b604051901515815260200161012c565b3480156102eb57600080fd5b506101a06102fa3660046113f5565b61101b565b34801561030b57600080fd5b5060015461023c906001600160a01b031681565b34801561032b57600080fd5b5061038a61033a36600461135d565b6003602081905260009182526040909120600181015460028201549282015460048301546005840154600685015460079095015493959460ff90931693919290916001600160a01b039091169087565b60405161012c9796959493929190611437565b60408051600a80825261016082019092526060916000919060208201610140803683370190505090506000805b600a8110156104895760008181526003602052604090205481901580159061044557506000818152600360208190526040822081015460ff169081111561041357610413611421565b148061044557506001600082815260036020819052604090912081015460ff169081111561044357610443611421565b145b15610476578084848151811061045d5761045d6114ab565b602090810291909101015282610472816114d7565b9350505b5080610481816114d7565b9150506103ca565b5060008167ffffffffffffffff8111156104a5576104a5611495565b6040519080825280602002602001820160405280156104ce578160200160208202803683370190505b50905060005b82811015610525578381815181106104ee576104ee6114ab565b6020026020010151828281518110610508576105086114ab565b60209081029190910101528061051d816114d7565b9150506104d4565b509392505050565b6105356111dc565b6000838152600360205260409020541561058c5760405162461bcd60e51b815260206004820152601360248201527247616d6520616c72656164792065786973747360681b60448201526064015b60405180910390fd5b600082116105dc5760405162461bcd60e51b815260206004820152601760248201527f4275792d696e206d75737420626520706f7369746976650000000000000000006044820152606401610583565b600281101580156105ee5750600a8111155b6106315760405162461bcd60e51b8152602060048201526014602482015273125b9d985b1a59081c1b185e595c8818dbdd5b9d60621b6044820152606401610583565b81341461067a5760405162461bcd60e51b8152602060048201526017602482015276125b98dbdc9c9958dd08189d5e4b5a5b88185b5bdd5b9d604a1b6044820152606401610583565b6001546040513060248201526000916001600160a01b031690349060440160408051601f198184030181529181526020820180516001600160e01b031663b07ce02560e01b179052516106cd91906114f0565b60006040518083038185875af1925050503d806000811461070a576040519150601f19603f3d011682016040523d82523d6000602084013e61070f565b606091505b505090508061075c5760405162461bcd60e51b815260206004820152601960248201527814185e5b595b9d081c1c9bd8d95cdcda5b99c819985a5b1959603a1b6044820152606401610583565b604080516001808252818301909252600091602080830190803683370190505090503381600081518110610792576107926114ab565b6001600160a01b0392909216602092830291909101820152604080516101008101825283815280830187905280820187905260006060820181905242608083015260a0820187905260c0820181905260e08201899052888152600384529190912081518051929391926108089284920190611235565b50602082015181600101556040820151816002015560608201518160030160006101000a81548160ff0219169083600381111561084757610847611421565b02179055506080820151600482015560a082015160058083019190915560c08301516006830180546001600160a01b0319166001600160a01b0390921691909117905560e090920151600790910155336000908152602091909152604081208054916108b2836114d7565b9091555050604080513381526020810186905290810184905285907fa704bb051af5b1db9e96f77b61081d382ff963e46371f5057868d19eef2dee359060600160405180910390a250506109066001600055565b505050565b60008181526003602052604090205481906109385760405162461bcd60e51b81526004016105839061151f565b81600080600083815260036020819052604090912081015460ff169081111561096357610963611421565b146109805760405162461bcd60e51b81526004016105839061154c565b6002546001600160a01b031633146109c65760405162461bcd60e51b81526020600482015260096024820152682737ba1037bbb732b960b91b6044820152606401610583565b600084815260036020818152604092839020808301805460ff19169093179092559151338152909186917f9b8a8869712403010131240192d2ccdcaaf3462e3d937653cbd3c5aa49821106910160405180910390a25050505050565b60008181526003602081905260408220600181015460028201548284015460609594859485948594859485948493929160ff1690811115610a6557610a65611421565b6004850154600586015460068701548654604080516020808402820181019092528281526001600160a01b0390931692918991830182828015610ad157602002820191906000526020600020905b81546001600160a01b03168152600190910190602001808311610ab3575b50505050509650975097509750975097509750975050919395979092949650565b610afa6111dc565b3360009081526004602052604090205480610b4e5760405162461bcd60e51b81526020600482015260146024820152734e6f2077696e6e696e677320746f20636c61696d60601b6044820152606401610583565b336000818152600460205260408082208290555190919083908381818185875af1925050503d8060008114610b9f576040519150601f19603f3d011682016040523d82523d6000602084013e610ba4565b606091505b5050905080610be75760405162461bcd60e51b815260206004820152600f60248201526e151c985b9cd9995c8819985a5b1959608a1b6044820152606401610583565b60405182815233907f1a31e733a172afcf46074b3106c17f0c298e226442682a03c1e99ce256139ec29060200160405180910390a25050610c286001600055565b565b610c326111dc565b6000818152600360205260409020548190610c5f5760405162461bcd60e51b81526004016105839061151f565b81600080600083815260036020819052604090912081015460ff1690811115610c8a57610c8a611421565b14610ca75760405162461bcd60e51b81526004016105839061154c565b60008481526003602052604090206005810154815410610cf55760405162461bcd60e51b815260206004820152600960248201526811d85b5948199d5b1b60ba1b6044820152606401610583565b80600101543414610d425760405162461bcd60e51b8152602060048201526017602482015276125b98dbdc9c9958dd08189d5e4b5a5b88185b5bdd5b9d604a1b6044820152606401610583565b60005b8154811015610dc95781543390839083908110610d6457610d646114ab565b6000918252602090912001546001600160a01b031603610db75760405162461bcd60e51b815260206004820152600e60248201526d105b1c9958591e481a9bda5b995960921b6044820152606401610583565b80610dc1816114d7565b915050610d45565b506001546040513060248201526000916001600160a01b031690349060440160408051601f198184030181529181526020820180516001600160e01b031663b07ce02560e01b17905251610e1d91906114f0565b60006040518083038185875af1925050503d8060008114610e5a576040519150601f19603f3d011682016040523d82523d6000602084013e610e5f565b606091505b5050905080610eac5760405162461bcd60e51b815260206004820152601960248201527814185e5b595b9d081c1c9bd8d95cdcda5b99c819985a5b1959603a1b6044820152606401610583565b815460018101835560008381526020812090910180546001600160a01b03191633179055600283018054349290610ee4908490611578565b9091555050336000908152600560205260408120805491610f04836114d7565b90915550506040805133815234602082015287917f65525cf08411b7a61d237681a43890956ad2e2ede88afd947f58eb4158c37f95910160405180910390a26005820154825403610f5f5760038201805460ff191660011790555b5050505050610f6e6001600055565b50565b6000828152600360205260408120548390610f9e5760405162461bcd60e51b81526004016105839061151f565b6000848152600360205260408120905b815481101561100d57846001600160a01b0316826000018281548110610fd657610fd66114ab565b6000918252602090912001546001600160a01b031603610ffb57600193505050611014565b80611005816114d7565b915050610fae565b5060009250505b5092915050565b60008281526003602052604090205482906110485760405162461bcd60e51b81526004016105839061151f565b82600180600083815260036020819052604090912081015460ff169081111561107357611073611421565b146110905760405162461bcd60e51b81526004016105839061154c565b6002546001600160a01b031633146110d65760405162461bcd60e51b81526020600482015260096024820152682737ba1037bbb732b960b91b6044820152606401610583565b60008581526003602052604090206110ee8686610f71565b61112f5760405162461bcd60e51b815260206004820152601260248201527157696e6e6572206e6f7420696e2067616d6560701b6044820152606401610583565b60038101805460ff191660029081179091556006820180546001600160a01b0388166001600160a01b03199091168117909155908201546000918252600460205260408220805491929091611185908490611578565b90915550506002810154604080516001600160a01b0388168152602081019290925287917fd1abccae8934d5ff9b57f5f0a1bebe781f8f34d4c1c7b20e7634381deebc8db5910160405180910390a2505050505050565b60026000540361122e5760405162461bcd60e51b815260206004820152601f60248201527f5265656e7472616e637947756172643a207265656e7472616e742063616c6c006044820152606401610583565b6002600055565b82805482825590600052602060002090810192821561128a579160200282015b8281111561128a57825182546001600160a01b0319166001600160a01b03909116178255602090920191600190910190611255565b5061129692915061129a565b5090565b5b80821115611296576000815560010161129b565b80356001600160a01b03811681146112c657600080fd5b919050565b6000602082840312156112dd57600080fd5b6112e6826112af565b9392505050565b6020808252825182820181905260009190848201906040850190845b8181101561132557835183529284019291840191600101611309565b50909695505050505050565b60008060006060848603121561134657600080fd5b505081359360208301359350604090920135919050565b60006020828403121561136f57600080fd5b5035919050565b60e08082528851908201819052600090602090610100840190828c01845b828110156113b95781516001600160a01b031684529284019290840190600101611394565b505050908301989098525060408101959095526060850193909352608084019190915260a08301526001600160a01b031660c090910152919050565b6000806040838503121561140857600080fd5b82359150611418602084016112af565b90509250929050565b634e487b7160e01b600052602160045260246000fd5b8781526020810187905260e081016004871061146357634e487b7160e01b600052602160045260246000fd5b6040820196909652606081019490945260808401929092526001600160a01b031660a083015260c09091015292915050565b634e487b7160e01b600052604160045260246000fd5b634e487b7160e01b600052603260045260246000fd5b634e487b7160e01b600052601160045260246000fd5b6000600182016114e9576114e96114c1565b5060010190565b6000825160005b8181101561151157602081860181015185830152016114f7565b506000920191825250919050565b60208082526013908201527211d85b5948191bd95cc81b9bdd08195e1a5cdd606a1b604082015260600190565b602080825260129082015271496e76616c69642067616d6520737461746560701b604082015260600190565b8082018082111561158b5761158b6114c1565b9291505056fea2646970667358221220967523d7bd441b4206b7585813419f1c3dc63a1d8ae2ea97a198c2f4b5a3c1cc64736f6c63430008130033",
  "linkReferences": {},
  "deployedLinkReferences": {}
}