{
  "_format": "hh-sol-artifact-1",
  "contractName": "Blackjack",
  "sourceName": "contracts/Blackjack.sol",
  "abi": [
    {
      "inputs": [
        {
          "internalType": "address payable",
          "name": "_paymentProcessor",
          "type": "address"
        }
      ],
      "stateMutability": "nonpayable",
      "type": "constructor"
    },
    {
      "anonymous": false,
      "inputs": [
        {
          "indexed": true,
          "internalType": "address",
          "name": "player",
          "type": "address"
        },
        {
          "indexed": false,
          "internalType": "string",
          "name": "action",
          "type": "string"
        }
      ],
      "name": "ActionTaken",
      "type": "event"
    },
    {
      "anonymous": false,
      "inputs": [
        {
          "indexed": true,
          "internalType": "address",
          "name": "player",
          "type": "address"
        },
        {
          "indexed": false,
          "internalType": "bool",
          "name": "playerWon",
          "type": "bool"
        },
        {
          "indexed": false,
          "internalType": "uint256",
          "name": "payout",
          "type": "uint256"
        }
      ],
      "name": "GameCompleted",
      "type": "event"
    },
    {
      "anonymous": false,
      "inputs": [
        {
          "indexed": true,
          "internalType": "address",
          "name": "player",
          "type": "address"
        },
        {
          "indexed": false,
          "internalType": "uint256",
          "name": "betAmount",
          "type": "uint256"
        }
      ],
      "name": "GameStarted",
      "type": "event"
    },
    {
      "inputs": [
        {
          "internalType": "address",
          "name": "",
          "type": "address"
        }
      ],
      "name": "activeGames",
      "outputs": [
        {
          "internalType": "address",
          "name": "player",
          "type": "address"
        },
        {
          "internalType": "uint256",
          "name": "betAmount",
          "type": "uint256"
        },
        {
          "internalType": "enum Blackjack.GameState",
          "name": "state",
          "type": "uint8"
        },
        {
          "internalType": "uint256",
          "name": "playerTotal",
          "type": "uint256"
        },
        {
          "internalType": "uint256",
          "name": "dealerTotal",
          "type": "uint256"
        },
        {
          "internalType": "bool",
          "name": "dealerRevealed",
          "type": "bool"
        }
      ],
      "stateMutability": "view",
      "type": "function"
    },
    {
      "inputs": [
        {
          "internalType": "address",
          "name": "player",
          "type": "address"
        }
      ],
      "name": "getGameState",
      "outputs": [
        {
          "internalType": "uint256",
          "name": "betAmount",
          "type": "uint256"
        },
        {
          "internalType": "uint256",
          "name": "playerTotal",
          "type": "uint256"
        },
        {
          "internalType": "uint256",
          "name": "dealerTotal",
          "type": "uint256"
        },
        {
          "internalType": "bool",
          "name": "dealerRevealed",
          "type": "bool"
        },
        {
          "internalType": "enum Blackjack.GameState",
          "name": "state",
          "type": "uint8"
        }
      ],
      "stateMutability": "view",
      "type": "function"
    },
    {
      "inputs": [],
      "name": "hit",
      "outputs": [],
      "stateMutability": "nonpayable",
      "type": "function"
    },
    {
      "inputs": [],
      "name": "owner",
      "outputs": [
        {
          "internalType": "address",
          "name": "",
          "type": "address"
        }
      ],
      "stateMutability": "view",
      "type": "function"
    },
    {
      "inputs": [],
      "name": "paymentProcessor",
      "outputs": [
        {
          "internalType": "contract CasinoPaymentProcessor",
          "name": "",
          "type": "address"
        }
      ],
      "stateMutability": "view",
      "type": "function"
    },
    {
      "inputs": [
        {
          "internalType": "address",
          "name": "",
          "type": "address"
        }
      ],
      "name": "playerLosses",
      "outputs": [
        {
          "internalType": "uint256",
          "name": "",
          "type": "uint256"
        }
      ],
      "stateMutability": "view",
      "type": "function"
    },
    {
      "inputs": [
        {
          "internalType": "address",
          "name": "",
          "type": "address"
        }
      ],
      "name": "playerWins",
      "outputs": [
        {
          "internalType": "uint256",
          "name": "",
          "type": "uint256"
        }
      ],
      "stateMutability": "view",
      "type": "function"
    },
    {
      "inputs": [],
      "name": "stand",
      "outputs": [],
      "stateMutability": "nonpayable",
      "type": "function"
    },
    {
      "inputs": [],
      "name": "startGame",
      "outputs": [],
      "stateMutability": "payable",
      "type": "function"
    },
    {
      "stateMutability": "payable",
      "type": "receive"
    }
  ],
  "bytecode": "0x608060405234801561001057600080fd5b5060405161106538038061106583398101604081905261002f91610062565b6001600081905580546001600160a01b039092166001600160a01b03199283161790556002805490911633179055610092565b60006020828403121561007457600080fd5b81516001600160a01b038116811461008b57600080fd5b9392505050565b610fc4806100a16000396000f3fe60806040526004361061008a5760003560e01c8063d65ab5f211610059578063d65ab5f21461013a578063d9169b7714610142578063d9d60b52146101b7578063f1c6bdf8146101e8578063fedb848a1461020857600080fd5b80632ae3594a146100965780638b31fb89146100ad5780638da5cb5b146100ed578063c2897b101461012557600080fd5b3661009157005b600080fd5b3480156100a257600080fd5b506100ab610235565b005b3480156100b957600080fd5b506100da6100c8366004610daf565b60046020526000908152604090205481565b6040519081526020015b60405180910390f35b3480156100f957600080fd5b5060025461010d906001600160a01b031681565b6040516001600160a01b0390911681526020016100e4565b34801561013157600080fd5b506100ab610406565b6100ab610600565b34801561014e57600080fd5b506101a561015d366004610daf565b60036020819052600091825260409091208054600182015460028301549383015460048401546005909401546001600160a01b0390931694919360ff92831693919290911686565b6040516100e496959493929190610e17565b3480156101c357600080fd5b506101d76101d2366004610daf565b6108f0565b6040516100e4959493929190610e5a565b3480156101f457600080fd5b5060015461010d906001600160a01b031681565b34801561021457600080fd5b506100da610223366004610daf565b60056020526000908152604090205481565b61023d610959565b336000908152600360205260409020600160028083015460ff169081111561026757610267610ddf565b146102aa5760405162461bcd60e51b815260206004820152600e60248201526d4e6f206163746976652067616d6560901b60448201526064015b60405180910390fd5b80546001600160a01b031633146102f35760405162461bcd60e51b815260206004820152600d60248201526c4e6f7420796f75722067616d6560981b60448201526064016102a1565b6000600a42463360405160200161032f93929190928352602083019190915260601b6bffffffffffffffffffffffff1916604082015260540190565b6040516020818303038152906040528051906020012060001c6103529190610e9a565b61035d906002610ec4565b9050600a81111561036c5750600a5b806001036103785750600b5b8082600301600082825461038c9190610ec4565b909155505060405133907f477fecea00dd67fa1fa2e75e1b08d30b4cdf2eb2cc6be5e29d4e1232a6d508e5906103d99060208082526003908201526212125560ea1b604082015260600190565b60405180910390a26015826003015411156103f8576103f860006109b2565b50506104046001600055565b565b61040e610959565b336000908152600360205260409020600160028083015460ff169081111561043857610438610ddf565b146104765760405162461bcd60e51b815260206004820152600e60248201526d4e6f206163746976652067616d6560901b60448201526064016102a1565b80546001600160a01b031633146104bf5760405162461bcd60e51b815260206004820152600d60248201526c4e6f7420796f75722067616d6560981b60448201526064016102a1565b60058101805460ff191660011790555b60118160040154101561058c576000600a42463385600401546040516020016105239493929190938452602084019290925260601b6bffffffffffffffffffffffff19166040830152605482015260740190565b6040516020818303038152906040528051906020012060001c6105469190610e9a565b610551906002610ec4565b9050600a8111156105605750600a5b8060010361056c5750600b5b808260040160008282546105809190610ec4565b909155506104cf915050565b336001600160a01b03167f477fecea00dd67fa1fa2e75e1b08d30b4cdf2eb2cc6be5e29d4e1232a6d508e56040516105dd9060208082526005908201526414d510539160da1b604082015260600190565b60405180910390a26105f56105f0610bbb565b6109b2565b506104046001600055565b610608610959565b600034116106585760405162461bcd60e51b815260206004820152601b60248201527f42657420616d6f756e74206d75737420626520706f736974697665000000000060448201526064016102a1565b600133600090815260036020526040902060029081015460ff169081111561068257610682610ddf565b036106cf5760405162461bcd60e51b815260206004820152601860248201527f47616d6520616c726561647920696e2070726f6772657373000000000000000060448201526064016102a1565b6001546040513060248201526000916001600160a01b031690349060440160408051601f198184030181529181526020820180516001600160e01b031663b07ce02560e01b179052516107229190610f01565b60006040518083038185875af1925050503d806000811461075f576040519150601f19603f3d011682016040523d82523d6000602084013e610764565b606091505b50509050806107d35760405162461bcd60e51b815260206004820152603560248201527f5061796d656e742070726f63657373696e67206661696c65642e20456e737572604482015274329033b0b6b29034b99030baba3437b934bd32b21760591b60648201526084016102a1565b60006107df6001610c2d565b905060006107ed6000610c2d565b6040805160c081018252338082523460208084019182526001848601818152606086018a905260808601889052600060a08701819052948552600390925294909220835181546001600160a01b0319166001600160a01b039091161781559051818501559051600280830180549697509395929491939260ff19169190849081111561087b5761087b610ddf565b0217905550606082015160038201556080820151600482015560a0909101516005909101805460ff191691151591909117905560405134815233907fea32a03505fd9f04d664676d72295a86c5fb0465e69654751907ca305bc1d1c79060200160405180910390a25050506104046001600055565b6001600160a01b038116600090815260036020819052604082206001810154918101546005820154849384938493849391929160ff16610931576000610937565b82600401545b6005840154600290940154929a919950975060ff928316965091169350915050565b6002600054036109ab5760405162461bcd60e51b815260206004820152601f60248201527f5265656e7472616e637947756172643a207265656e7472616e742063616c6c0060448201526064016102a1565b6002600055565b3360009081526003602052604081206002808201805460ff19169091179055908215610a4d57816003015460151480156109f3575081600401548260030154115b15610a3d57600282600101546003610a0b9190610f1d565b610a159190610f34565b336000908152600460205260408120805492935090610a3383610f48565b9190505550610a9a565b6001820154610a15906002610f1d565b81600401548260030154148015610a6957506015826003015411155b15610a7957506001810154610a9a565b336000908152600560205260408120805491610a9483610f48565b91905055505b8015610b2a57604051600090339083908381818185875af1925050503d8060008114610ae2576040519150601f19603f3d011682016040523d82523d6000602084013e610ae7565b606091505b5050905080610b285760405162461bcd60e51b815260206004820152600d60248201526c14185e5bdd5d0819985a5b1959609a1b60448201526064016102a1565b505b6040805184151581526020810183905233917fecf5f4eb1b978762fea46ea714a9f2cf73b6fe679e2da6da0e183da40352a36a910160405180910390a25050336000908152600360208190526040822080546001600160a01b03191681556001810183905560028101805460ff19908116909155918101839055600481019290925560059091018054909116905550565b33600090815260036020819052604082209081015460151015610be057600091505090565b601581600401541115610bf557600191505090565b806004015481600301541115610c0d57600191505090565b806004015481600301541015610c2557600091505090565b600091505090565b600080424684610c5c57604051806040016040528060078152602001666465616c65723160c81b815250610c7d565b60405180604001604052806007815260200166706c617965723160c81b8152505b604051602001610c8f93929190610f61565b60408051601f1981840301815291905290506000610cae426001610ec4565b4685610cd957604051806040016040528060078152602001663232b0b632b91960c91b815250610cfa565b60405180604001604052806007815260200166383630bcb2b91960c91b8152505b604051602001610d0c93929190610f61565b60405160208183030381529060405290506000600a838051906020012060001c610d369190610e9a565b610d41906002610ec4565b82516020840120909150600090610d5a90600a90610e9a565b610d65906002610ec4565b9050600a821115610d7557600a91505b600a811115610d825750600a5b81600103610d8f57600b91505b80600103610d9b5750600b5b610da58183610ec4565b9695505050505050565b600060208284031215610dc157600080fd5b81356001600160a01b0381168114610dd857600080fd5b9392505050565b634e487b7160e01b600052602160045260246000fd5b60038110610e1357634e487b7160e01b600052602160045260246000fd5b9052565b6001600160a01b03871681526020810186905260c08101610e3b6040830187610df5565b84606083015283608083015282151560a0830152979650505050505050565b8581526020810185905260408101849052821515606082015260a08101610da56080830184610df5565b634e487b7160e01b600052601260045260246000fd5b600082610ea957610ea9610e84565b500690565b634e487b7160e01b600052601160045260246000fd5b80820180821115610ed757610ed7610eae565b92915050565b60005b83811015610ef8578181015183820152602001610ee0565b50506000910152565b60008251610f13818460208701610edd565b9190910192915050565b8082028115828204841417610ed757610ed7610eae565b600082610f4357610f43610e84565b500490565b600060018201610f5a57610f5a610eae565b5060010190565b83815282602082015260008251610f7f816040850160208701610edd565b9190910160400194935050505056fea2646970667358221220041c00c363ad125e79f70e6853655cb7079527ac5d38524a73314f7ae8ed03d464736f6c63430008130033",
  "linkReferences": {},
  "deployedLinkReferences": {}
}