{
  "_format": "hh-sol-artifact-1",
  "contractName": "SoulboundToken",
  "sourceName": "contracts/SoulboundToken.sol",
  "abi": [
    {
      "inputs": [],
      "stateMutability": "nonpayable",
      "type": "constructor"
    },
    {
      "anonymous": false,
      "inputs": [
        {
          "indexed": true,
          "internalType": "address",
          "name": "player",
          "type": "address"
        },
        {
          "indexed": false,
          "internalType": "string",
          "name": "achievement",
          "type": "string"
        },
        {
          "indexed": false,
          "internalType": "uint256",
          "name": "timestamp",
          "type": "uint256"
        }
      ],
      "name": "AchievementAdded",
      "type": "event"
    },
    {
      "anonymous": false,
      "inputs": [
        {
          "indexed": true,
          "internalType": "address",
          "name": "owner",
          "type": "address"
        },
        {
          "indexed": true,
          "internalType": "address",
          "name": "approved",
          "type": "address"
        },
        {
          "indexed": true,
          "internalType": "uint256",
          "name": "tokenId",
          "type": "uint256"
        }
      ],
      "name": "Approval",
      "type": "event"
    },
    {
      "anonymous": false,
      "inputs": [
        {
          "indexed": true,
          "internalType": "address",
          "name": "owner",
          "type": "address"
        },
        {
          "indexed": true,
          "internalType": "address",
          "name": "operator",
          "type": "address"
        },
        {
          "indexed": false,
          "internalType": "bool",
          "name": "approved",
          "type": "bool"
        }
      ],
      "name": "ApprovalForAll",
      "type": "event"
    },
    {
      "anonymous": false,
      "inputs": [
        {
          "indexed": true,
          "internalType": "address",
          "name": "previousOwner",
          "type": "address"
        },
        {
          "indexed": true,
          "internalType": "address",
          "name": "newOwner",
          "type": "address"
        }
      ],
      "name": "OwnershipTransferred",
      "type": "event"
    },
    {
      "anonymous": false,
      "inputs": [
        {
          "indexed": true,
          "internalType": "address",
          "name": "to",
          "type": "address"
        },
        {
          "indexed": false,
          "internalType": "uint256",
          "name": "tokenId",
          "type": "uint256"
        },
        {
          "indexed": false,
          "internalType": "string",
          "name": "metadata",
          "type": "string"
        }
      ],
      "name": "SoulboundMinted",
      "type": "event"
    },
    {
      "anonymous": false,
      "inputs": [
        {
          "indexed": true,
          "internalType": "address",
          "name": "from",
          "type": "address"
        },
        {
          "indexed": true,
          "internalType": "address",
          "name": "to",
          "type": "address"
        },
        {
          "indexed": true,
          "internalType": "uint256",
          "name": "tokenId",
          "type": "uint256"
        }
      ],
      "name": "Transfer",
      "type": "event"
    },
    {
      "inputs": [
        {
          "internalType": "address",
          "name": "player",
          "type": "address"
        },
        {
          "internalType": "string",
          "name": "achievement",
          "type": "string"
        }
      ],
      "name": "addAchievement",
      "outputs": [],
      "stateMutability": "nonpayable",
      "type": "function"
    },
    {
      "inputs": [
        {
          "internalType": "address",
          "name": "to",
          "type": "address"
        },
        {
          "internalType": "uint256",
          "name": "tokenId",
          "type": "uint256"
        }
      ],
      "name": "approve",
      "outputs": [],
      "stateMutability": "nonpayable",
      "type": "function"
    },
    {
      "inputs": [
        {
          "internalType": "address",
          "name": "owner",
          "type": "address"
        }
      ],
      "name": "balanceOf",
      "outputs": [
        {
          "internalType": "uint256",
          "name": "",
          "type": "uint256"
        }
      ],
      "stateMutability": "view",
      "type": "function"
    },
    {
      "inputs": [
        {
          "internalType": "address",
          "name": "player",
          "type": "address"
        }
      ],
      "name": "getAchievements",
      "outputs": [
        {
          "internalType": "string[]",
          "name": "",
          "type": "string[]"
        }
      ],
      "stateMutability": "view",
      "type": "function"
    },
    {
      "inputs": [
        {
          "internalType": "uint256",
          "name": "tokenId",
          "type": "uint256"
        }
      ],
      "name": "getApproved",
      "outputs": [
        {
          "internalType": "address",
          "name": "",
          "type": "address"
        }
      ],
      "stateMutability": "view",
      "type": "function"
    },
    {
      "inputs": [
        {
          "internalType": "address",
          "name": "player",
          "type": "address"
        }
      ],
      "name": "getPlayerToken",
      "outputs": [
        {
          "internalType": "uint256",
          "name": "",
          "type": "uint256"
        }
      ],
      "stateMutability": "view",
      "type": "function"
    },
    {
      "inputs": [
        {
          "internalType": "address",
          "name": "owner",
          "type": "address"
        },
        {
          "internalType": "address",
          "name": "operator",
          "type": "address"
        }
      ],
      "name": "isApprovedForAll",
      "outputs": [
        {
          "internalType": "bool",
          "name": "",
          "type": "bool"
        }
      ],
      "stateMutability": "view",
      "type": "function"
    },
    {
      "inputs": [
        {
          "internalType": "address",
          "name": "to",
          "type": "address"
        },
        {
          "internalType": "string",
          "name": "uri",
          "type": "string"
        }
      ],
      "name": "mintSoulbound",
      "outputs": [
        {
          "internalType": "uint256",
          "name": "",
          "type": "uint256"
        }
      ],
      "stateMutability": "nonpayable",
      "type": "function"
    },
    {
      "inputs": [],
      "name": "name",
      "outputs": [
        {
          "internalType": "string",
          "name": "",
          "type": "string"
        }
      ],
      "stateMutability": "view",
      "type": "function"
    },
    {
      "inputs": [],
      "name": "owner",
      "outputs": [
        {
          "internalType": "address",
          "name": "",
          "type": "address"
        }
      ],
      "stateMutability": "view",
      "type": "function"
    },
    {
      "inputs": [
        {
          "internalType": "uint256",
          "name": "tokenId",
          "type": "uint256"
        }
      ],
      "name": "ownerOf",
      "outputs": [
        {
          "internalType": "address",
          "name": "",
          "type": "address"
        }
      ],
      "stateMutability": "view",
      "type": "function"
    },
    {
      "inputs": [
        {
          "internalType": "address",
          "name": "",
          "type": "address"
        }
      ],
      "name": "playerTokens",
      "outputs": [
        {
          "internalType": "uint256",
          "name": "",
          "type": "uint256"
        }
      ],
      "stateMutability": "view",
      "type": "function"
    },
    {
      "inputs": [],
      "name": "renounceOwnership",
      "outputs": [],
      "stateMutability": "nonpayable",
      "type": "function"
    },
    {
      "inputs": [
        {
          "internalType": "address",
          "name": "from",
          "type": "address"
        },
        {
          "internalType": "address",
          "name": "to",
          "type": "address"
        },
        {
          "internalType": "uint256",
          "name": "tokenId",
          "type": "uint256"
        }
      ],
      "name": "safeTransferFrom",
      "outputs": [],
      "stateMutability": "nonpayable",
      "type": "function"
    },
    {
      "inputs": [
        {
          "internalType": "address",
          "name": "from",
          "type": "address"
        },
        {
          "internalType": "address",
          "name": "to",
          "type": "address"
        },
        {
          "internalType": "uint256",
          "name": "tokenId",
          "type": "uint256"
        },
        {
          "internalType": "bytes",
          "name": "data",
          "type": "bytes"
        }
      ],
      "name": "safeTransferFrom",
      "outputs": [],
      "stateMutability": "nonpayable",
      "type": "function"
    },
    {
      "inputs": [
        {
          "internalType": "address",
          "name": "operator",
          "type": "address"
        },
        {
          "internalType": "bool",
          "name": "approved",
          "type": "bool"
        }
      ],
      "name": "setApprovalForAll",
      "outputs": [],
      "stateMutability": "nonpayable",
      "type": "function"
    },
    {
      "inputs": [
        {
          "internalType": "bytes4",
          "name": "interfaceId",
          "type": "bytes4"
        }
      ],
      "name": "supportsInterface",
      "outputs": [
        {
          "internalType": "bool",
          "name": "",
          "type": "bool"
        }
      ],
      "stateMutability": "view",
      "type": "function"
    },
    {
      "inputs": [],
      "name": "symbol",
      "outputs": [
        {
          "internalType": "string",
          "name": "",
          "type": "string"
        }
      ],
      "stateMutability": "view",
      "type": "function"
    },
    {
      "inputs": [
        {
          "internalType": "uint256",
          "name": "",
          "type": "uint256"
        },
        {
          "internalType": "uint256",
          "name": "",
          "type": "uint256"
        }
      ],
      "name": "tokenAchievements",
      "outputs": [
        {
          "internalType": "string",
          "name": "",
          "type": "string"
        }
      ],
      "stateMutability": "view",
      "type": "function"
    },
    {
      "inputs": [
        {
          "internalType": "uint256",
          "name": "tokenId",
          "type": "uint256"
        }
      ],
      "name": "tokenURI",
      "outputs": [
        {
          "internalType": "string",
          "name": "",
          "type": "string"
        }
      ],
      "stateMutability": "view",
      "type": "function"
    },
    {
      "inputs": [
        {
          "internalType": "address",
          "name": "from",
          "type": "address"
        },
        {
          "internalType": "address",
          "name": "to",
          "type": "address"
        },
        {
          "internalType": "uint256",
          "name": "tokenId",
          "type": "uint256"
        }
      ],
      "name": "transferFrom",
      "outputs": [],
      "stateMutability": "nonpayable",
      "type": "function"
    },
    {
      "inputs": [
        {
          "internalType": "address",
          "name": "newOwner",
          "type": "address"
        }
      ],
      "name": "transferOwnership",
      "outputs": [],
      "stateMutability": "nonpayable",
      "type": "function"
    }
  ],
  "bytecode": "0x60806040523480156200001157600080fd5b506040518060400160405280600c81526020016b2132ba3334b7283630bcb2b960a11b8152506040518060400160405280600381526020016204246560ec1b815250816000908162000064919062000191565b50600162000073828262000191565b505050620000906200008a6200009660201b60201c565b6200009a565b6200025d565b3390565b600680546001600160a01b038381166001600160a01b0319831681179093556040519116919082907f8be0079c531659141344cd1fd0a4f28419497f9722a3daafe3b4186f6b6457e090600090a35050565b634e487b7160e01b600052604160045260246000fd5b600181811c908216806200011757607f821691505b6020821081036200013857634e487b7160e01b600052602260045260246000fd5b50919050565b601f8211156200018c57600081815260208120601f850160051c81016020861015620001675750805b601f850160051c820191505b81811015620001885782815560010162000173565b5050505b505050565b81516001600160401b03811115620001ad57620001ad620000ec565b620001c581620001be845462000102565b846200013e565b602080601f831160018114620001fd5760008415620001e45750858301515b600019600386901b1c1916600185901b17855562000188565b600085815260208120601f198616915b828110156200022e578886015182559484019460019091019084016200020d565b50858210156200024d5787850151600019600388901b60f8161c191681555b5050505050600190811b01905550565b611c04806200026d6000396000f3fe608060405234801561001057600080fd5b50600436106101425760003560e01c806376cd06a7116100b8578063b88d4fde1161007c578063b88d4fde146102c1578063c2c63841146102d4578063c87b56dd146102f4578063d0e550d714610307578063e985e9c51461031a578063f2fde38b1461035657600080fd5b806376cd06a7146102625780638da5cb5b146102755780638ef578f61461028657806395d89b41146102a6578063a22cb465146102ae57600080fd5b806310898e4c1161010a57806310898e4c146101d757806323b872dd1461020e57806342842e0e146102215780636352211e1461023457806370a0823114610247578063715018a61461025a57600080fd5b806301ffc9a71461014757806306fdde031461016f57806307bf161214610184578063081812fc14610197578063095ea7b3146101c2575b600080fd5b61015a610155366004611511565b610369565b60405190151581526020015b60405180910390f35b6101776103bb565b604051610166919061157b565b61017761019236600461158e565b61044d565b6101aa6101a53660046115b0565b610506565b6040516001600160a01b039091168152602001610166565b6101d56101d03660046115e5565b61052d565b005b6102006101e536600461160f565b6001600160a01b031660009081526009602052604090205490565b604051908152602001610166565b6101d561021c36600461162a565b610647565b6101d561022f36600461162a565b61068b565b6101aa6102423660046115b0565b6106cf565b61020061025536600461160f565b61072f565b6101d56107b5565b6101d56102703660046116f2565b6107c9565b6006546001600160a01b03166101aa565b61029961029436600461160f565b6108ab565b6040516101669190611754565b6101776109f7565b6101d56102bc3660046117b6565b610a06565b6101d56102cf3660046117f2565b610a15565b6102006102e236600461160f565b60096020526000908152604090205481565b6101776103023660046115b0565b610a60565b6102006103153660046116f2565b610b5c565b61015a61032836600461186e565b6001600160a01b03918216600090815260056020908152604080832093909416825291909152205460ff1690565b6101d561036436600461160f565b610c4f565b60006001600160e01b031982166380ac58cd60e01b148061039a57506001600160e01b03198216635b5e139f60e01b145b806103b557506301ffc9a760e01b6001600160e01b03198316145b92915050565b6060600080546103ca906118a1565b80601f01602080910402602001604051908101604052809291908181526020018280546103f6906118a1565b80156104435780601f1061041857610100808354040283529160200191610443565b820191906000526020600020905b81548152906001019060200180831161042657829003601f168201915b5050505050905090565b600a602052816000526040600020818154811061046957600080fd5b90600052602060002001600091509150508054610485906118a1565b80601f01602080910402602001604051908101604052809291908181526020018280546104b1906118a1565b80156104fe5780601f106104d3576101008083540402835291602001916104fe565b820191906000526020600020905b8154815290600101906020018083116104e157829003601f168201915b505050505081565b600061051182610cc8565b506000908152600460205260409020546001600160a01b031690565b6000610538826106cf565b9050806001600160a01b0316836001600160a01b0316036105aa5760405162461bcd60e51b815260206004820152602160248201527f4552433732313a20617070726f76616c20746f2063757272656e74206f776e656044820152603960f91b60648201526084015b60405180910390fd5b336001600160a01b03821614806105c657506105c68133610328565b6106385760405162461bcd60e51b815260206004820152603d60248201527f4552433732313a20617070726f76652063616c6c6572206973206e6f7420746f60448201527f6b656e206f776e6572206f7220617070726f76656420666f7220616c6c00000060648201526084016105a1565b6106428383610d27565b505050565b6001600160a01b038316158061066457506001600160a01b038216155b6106805760405162461bcd60e51b81526004016105a1906118db565b610642838383610d95565b6001600160a01b03831615806106a857506001600160a01b038216155b6106c45760405162461bcd60e51b81526004016105a1906118db565b610642838383610dc6565b6000818152600260205260408120546001600160a01b0316806103b55760405162461bcd60e51b8152602060048201526018602482015277115490cdcc8c4e881a5b9d985b1a59081d1bdad95b88125160421b60448201526064016105a1565b60006001600160a01b0382166107995760405162461bcd60e51b815260206004820152602960248201527f4552433732313a2061646472657373207a65726f206973206e6f7420612076616044820152683634b21037bbb732b960b91b60648201526084016105a1565b506001600160a01b031660009081526003602052604090205490565b6107bd610de1565b6107c76000610e3b565b565b6107d1610de1565b6001600160a01b0382166000908152600960205260408120549081900361083a5760405162461bcd60e51b815260206004820152601d60248201527f506c6179657220686173206e6f20736f756c626f756e6420746f6b656e00000060448201526064016105a1565b6000818152600a6020908152604082208054600181018255908352912001610862838261196e565b50826001600160a01b03167f4021ba8b7ccb3b0db1ff7096bec8f9454230bdb202dabfd98f2063507146b172834260405161089e929190611a2e565b60405180910390a2505050565b6001600160a01b0381166000908152600960205260408120546060918190036109165760405162461bcd60e51b815260206004820152601d60248201527f506c6179657220686173206e6f20736f756c626f756e6420746f6b656e00000060448201526064016105a1565b6000818152600a6020908152604080832080548251818502810185019093528083529193909284015b828210156109eb57838290600052602060002001805461095e906118a1565b80601f016020809104026020016040519081016040528092919081815260200182805461098a906118a1565b80156109d75780601f106109ac576101008083540402835291602001916109d7565b820191906000526020600020905b8154815290600101906020018083116109ba57829003601f168201915b50505050508152602001906001019061093f565b50505050915050919050565b6060600180546103ca906118a1565b610a11338383610e8d565b5050565b6001600160a01b0384161580610a3257506001600160a01b038316155b610a4e5760405162461bcd60e51b81526004016105a1906118db565b610a5a84848484610f5b565b50505050565b6000818152600260205260409020546060906001600160a01b0316610abe5760405162461bcd60e51b8152602060048201526014602482015273151bdad95b88191bd95cc81b9bdd08195e1a5cdd60621b60448201526064016105a1565b60008281526008602052604090208054610ad7906118a1565b80601f0160208091040260200160405190810160405280929190818152602001828054610b03906118a1565b8015610b505780601f10610b2557610100808354040283529160200191610b50565b820191906000526020600020905b815481529060010190602001808311610b3357829003601f168201915b50505050509050919050565b6000610b66610de1565b610b6f8361072f565b15610bc75760405162461bcd60e51b815260206004820152602260248201527f506c6179657220616c72656164792068617320736f756c626f756e6420746f6b60448201526132b760f11b60648201526084016105a1565b60078054906000610bd783611a50565b9091555050600754610be98482610f8d565b610bf38184611126565b6001600160a01b03841660008181526009602052604090819020839055517f4e5792094c9595db312a5e193fe75e8dd86c5384f7312542a5170d6679550b8390610c409084908790611a77565b60405180910390a29392505050565b610c57610de1565b6001600160a01b038116610cbc5760405162461bcd60e51b815260206004820152602660248201527f4f776e61626c653a206e6577206f776e657220697320746865207a65726f206160448201526564647265737360d01b60648201526084016105a1565b610cc581610e3b565b50565b6000818152600260205260409020546001600160a01b0316610cc55760405162461bcd60e51b8152602060048201526018602482015277115490cdcc8c4e881a5b9d985b1a59081d1bdad95b88125160421b60448201526064016105a1565b600081815260046020526040902080546001600160a01b0319166001600160a01b0384169081179091558190610d5c826106cf565b6001600160a01b03167f8c5be1e5ebec7d5bd14f71427d1e84f3dd0314c0f7b2291e5b200ac8c7c3b92560405160405180910390a45050565b610d9f3382611199565b610dbb5760405162461bcd60e51b81526004016105a190611a90565b610642838383611218565b61064283838360405180602001604052806000815250610a15565b6006546001600160a01b031633146107c75760405162461bcd60e51b815260206004820181905260248201527f4f776e61626c653a2063616c6c6572206973206e6f7420746865206f776e657260448201526064016105a1565b600680546001600160a01b038381166001600160a01b0319831681179093556040519116919082907f8be0079c531659141344cd1fd0a4f28419497f9722a3daafe3b4186f6b6457e090600090a35050565b816001600160a01b0316836001600160a01b031603610eee5760405162461bcd60e51b815260206004820152601960248201527f4552433732313a20617070726f766520746f2063616c6c65720000000000000060448201526064016105a1565b6001600160a01b03838116600081815260056020908152604080832094871680845294825291829020805460ff191686151590811790915591519182527f17307eab39ab6107e8899845ad3d59bd9653f200f220920489ca2b5937696c31910160405180910390a3505050565b610f653383611199565b610f815760405162461bcd60e51b81526004016105a190611a90565b610a5a84848484611389565b6001600160a01b038216610fe35760405162461bcd60e51b815260206004820181905260248201527f4552433732313a206d696e7420746f20746865207a65726f206164647265737360448201526064016105a1565b6000818152600260205260409020546001600160a01b0316156110485760405162461bcd60e51b815260206004820152601c60248201527f4552433732313a20746f6b656e20616c7265616479206d696e7465640000000060448201526064016105a1565b6110566000838360016113bc565b6000818152600260205260409020546001600160a01b0316156110bb5760405162461bcd60e51b815260206004820152601c60248201527f4552433732313a20746f6b656e20616c7265616479206d696e7465640000000060448201526064016105a1565b6001600160a01b038216600081815260036020908152604080832080546001019055848352600290915280822080546001600160a01b0319168417905551839291907fddf252ad1be2c89b69c2b068fc378daa952ba7f163c4a11628f55a4df523b3ef908290a45050565b6000828152600260205260409020546001600160a01b03166111815760405162461bcd60e51b8152602060048201526014602482015273151bdad95b88191bd95cc81b9bdd08195e1a5cdd60621b60448201526064016105a1565b6000828152600860205260409020610642828261196e565b6000806111a5836106cf565b9050806001600160a01b0316846001600160a01b031614806111ec57506001600160a01b0380821660009081526005602090815260408083209388168352929052205460ff165b806112105750836001600160a01b031661120584610506565b6001600160a01b0316145b949350505050565b826001600160a01b031661122b826106cf565b6001600160a01b0316146112515760405162461bcd60e51b81526004016105a190611add565b6001600160a01b0382166112b35760405162461bcd60e51b8152602060048201526024808201527f4552433732313a207472616e7366657220746f20746865207a65726f206164646044820152637265737360e01b60648201526084016105a1565b6112c083838360016113bc565b826001600160a01b03166112d3826106cf565b6001600160a01b0316146112f95760405162461bcd60e51b81526004016105a190611add565b600081815260046020908152604080832080546001600160a01b03199081169091556001600160a01b0387811680865260038552838620805460001901905590871680865283862080546001019055868652600290945282852080549092168417909155905184937fddf252ad1be2c89b69c2b068fc378daa952ba7f163c4a11628f55a4df523b3ef91a4505050565b611394848484611218565b6113a0848484846113fa565b610a5a5760405162461bcd60e51b81526004016105a190611b22565b6001600160a01b03841615806113d957506001600160a01b038316155b6113f55760405162461bcd60e51b81526004016105a1906118db565b610a5a565b60006001600160a01b0384163b156114f057604051630a85bd0160e11b81526001600160a01b0385169063150b7a029061143e903390899088908890600401611b74565b6020604051808303816000875af1925050508015611479575060408051601f3d908101601f1916820190925261147691810190611bb1565b60015b6114d6573d8080156114a7576040519150601f19603f3d011682016040523d82523d6000602084013e6114ac565b606091505b5080516000036114ce5760405162461bcd60e51b81526004016105a190611b22565b805181602001fd5b6001600160e01b031916630a85bd0160e11b149050611210565b506001949350505050565b6001600160e01b031981168114610cc557600080fd5b60006020828403121561152357600080fd5b813561152e816114fb565b9392505050565b6000815180845260005b8181101561155b5760208185018101518683018201520161153f565b506000602082860101526020601f19601f83011685010191505092915050565b60208152600061152e6020830184611535565b600080604083850312156115a157600080fd5b50508035926020909101359150565b6000602082840312156115c257600080fd5b5035919050565b80356001600160a01b03811681146115e057600080fd5b919050565b600080604083850312156115f857600080fd5b611601836115c9565b946020939093013593505050565b60006020828403121561162157600080fd5b61152e826115c9565b60008060006060848603121561163f57600080fd5b611648846115c9565b9250611656602085016115c9565b9150604084013590509250925092565b634e487b7160e01b600052604160045260246000fd5b600067ffffffffffffffff8084111561169757611697611666565b604051601f8501601f19908116603f011681019082821181831017156116bf576116bf611666565b816040528093508581528686860111156116d857600080fd5b858560208301376000602087830101525050509392505050565b6000806040838503121561170557600080fd5b61170e836115c9565b9150602083013567ffffffffffffffff81111561172a57600080fd5b8301601f8101851361173b57600080fd5b61174a8582356020840161167c565b9150509250929050565b6000602080830181845280855180835260408601915060408160051b870101925083870160005b828110156117a957603f19888603018452611797858351611535565b9450928501929085019060010161177b565b5092979650505050505050565b600080604083850312156117c957600080fd5b6117d2836115c9565b9150602083013580151581146117e757600080fd5b809150509250929050565b6000806000806080858703121561180857600080fd5b611811856115c9565b935061181f602086016115c9565b925060408501359150606085013567ffffffffffffffff81111561184257600080fd5b8501601f8101871361185357600080fd5b6118628782356020840161167c565b91505092959194509250565b6000806040838503121561188157600080fd5b61188a836115c9565b9150611898602084016115c9565b90509250929050565b600181811c908216806118b557607f821691505b6020821081036118d557634e487b7160e01b600052602260045260246000fd5b50919050565b60208082526025908201527f536f756c626f756e6420746f6b656e2063616e6e6f74206265207472616e7366604082015264195c9c995960da1b606082015260800190565b601f82111561064257600081815260208120601f850160051c810160208610156119475750805b601f850160051c820191505b8181101561196657828155600101611953565b505050505050565b815167ffffffffffffffff81111561198857611988611666565b61199c8161199684546118a1565b84611920565b602080601f8311600181146119d157600084156119b95750858301515b600019600386901b1c1916600185901b178555611966565b600085815260208120601f198616915b82811015611a00578886015182559484019460019091019084016119e1565b5085821015611a1e5787850151600019600388901b60f8161c191681555b5050505050600190811b01905550565b604081526000611a416040830185611535565b90508260208301529392505050565b600060018201611a7057634e487b7160e01b600052601160045260246000fd5b5060010190565b8281526040602082015260006112106040830184611535565b6020808252602d908201527f4552433732313a2063616c6c6572206973206e6f7420746f6b656e206f776e6560408201526c1c881bdc88185c1c1c9bdd9959609a1b606082015260800190565b60208082526025908201527f4552433732313a207472616e736665722066726f6d20696e636f72726563742060408201526437bbb732b960d91b606082015260800190565b60208082526032908201527f4552433732313a207472616e7366657220746f206e6f6e20455243373231526560408201527131b2b4bb32b91034b6b83632b6b2b73a32b960711b606082015260800190565b6001600160a01b0385811682528416602082015260408101839052608060608201819052600090611ba790830184611535565b9695505050505050565b600060208284031215611bc357600080fd5b815161152e816114fb56fea2646970667358221220780b45db3842b43ee78fd8739743b8a4ff275b47330ddd6d077b8da32f5020a764736f6c63430008130033",
  "linkReferences": {},
  "deployedLinkReferences": {}
}