{
  "_format": "hh-sol-artifact-1",
  "contractName": "CasinoPaymentProcessor",
  "sourceName": "contracts/CasinoPaymentProcessor.sol",
  "abi": [
    {
      "inputs": [
        {
          "internalType": "address",
          "name": "_usdcToken",
          "type": "address"
        }
      ],
      "stateMutability": "nonpayable",
      "type": "constructor"
    },
    {
      "anonymous": false,
      "inputs": [
        {
          "indexed": true,
          "internalType": "address",
          "name": "to",
          "type": "address"
        },
        {
          "indexed": false,
          "internalType": "uint256",
          "name": "amount",
          "type": "uint256"
        },
        {
          "indexed": false,
          "internalType": "uint256",
          "name": "timestamp",
          "type": "uint256"
        }
      ],
      "name": "FundsWithdrawn",
      "type": "event"
    },
    {
      "anonymous": false,
      "inputs": [
        {
          "indexed": true,
          "internalType": "address",
          "name": "game",
          "type": "address"
        },
        {
          "indexed": false,
          "internalType": "address",
          "name": "authorizedBy",
          "type": "address"
        }
      ],
      "name": "GameAuthorized",
      "type": "event"
    },
    {
      "anonymous": false,
      "inputs": [
        {
          "indexed": true,
          "internalType": "address",
          "name": "game",
          "type": "address"
        },
        {
          "indexed": false,
          "internalType": "address",
          "name": "revokedBy",
          "type": "address"
        }
      ],
      "name": "GameRevoked",
      "type": "event"
    },
    {
      "anonymous": false,
      "inputs": [
        {
          "indexed": true,
          "internalType": "address",
          "name": "previousOwner",
          "type": "address"
        },
        {
          "indexed": true,
          "internalType": "address",
          "name": "newOwner",
          "type": "address"
        }
      ],
      "name": "OwnershipTransferred",
      "type": "event"
    },
    {
      "anonymous": false,
      "inputs": [
        {
          "indexed": true,
          "internalType": "address",
          "name": "player",
          "type": "address"
        },
        {
          "indexed": true,
          "internalType": "address",
          "name": "game",
          "type": "address"
        },
        {
          "indexed": false,
          "internalType": "uint256",
          "name": "amount",
          "type": "uint256"
        },
        {
          "indexed": false,
          "internalType": "uint256",
          "name": "timestamp",
          "type": "uint256"
        }
      ],
      "name": "PaymentReceived",
      "type": "event"
    },
    {
      "inputs": [
        {
          "internalType": "address",
          "name": "game",
          "type": "address"
        }
      ],
      "name": "authorizeGame",
      "outputs": [],
      "stateMutability": "nonpayable",
      "type": "function"
    },
    {
      "inputs": [
        {
          "internalType": "address",
          "name": "",
          "type": "address"
        }
      ],
      "name": "authorizedGames",
      "outputs": [
        {
          "internalType": "bool",
          "name": "",
          "type": "bool"
        }
      ],
      "stateMutability": "view",
      "type": "function"
    },
    {
      "inputs": [],
      "name": "emergencyWithdraw",
      "outputs": [],
      "stateMutability": "nonpayable",
      "type": "function"
    },
    {
      "inputs": [],
      "name": "getContractBalance",
      "outputs": [
        {
          "internalType": "uint256",
          "name": "",
          "type": "uint256"
        }
      ],
      "stateMutability": "view",
      "type": "function"
    },
    {
      "inputs": [
        {
          "internalType": "address",
          "name": "player",
          "type": "address"
        }
      ],
      "name": "getPlayerBalance",
      "outputs": [
        {
          "internalType": "uint256",
          "name": "",
          "type": "uint256"
        }
      ],
      "stateMutability": "view",
      "type": "function"
    },
    {
      "inputs": [],
      "name": "owner",
      "outputs": [
        {
          "internalType": "address",
          "name": "",
          "type": "address"
        }
      ],
      "stateMutability": "view",
      "type": "function"
    },
    {
      "inputs": [
        {
          "internalType": "address",
          "name": "",
          "type": "address"
        }
      ],
      "name": "playerBalances",
      "outputs": [
        {
          "internalType": "uint256",
          "name": "",
          "type": "uint256"
        }
      ],
      "stateMutability": "view",
      "type": "function"
    },
    {
      "inputs": [
        {
          "internalType": "address",
          "name": "game",
          "type": "address"
        }
      ],
      "name": "processMaticPayment",
      "outputs": [],
      "stateMutability": "payable",
      "type": "function"
    },
    {
      "inputs": [],
      "name": "renounceOwnership",
      "outputs": [],
      "stateMutability": "nonpayable",
      "type": "function"
    },
    {
      "inputs": [
        {
          "internalType": "address",
          "name": "game",
          "type": "address"
        }
      ],
      "name": "revokeGame",
      "outputs": [],
      "stateMutability": "nonpayable",
      "type": "function"
    },
    {
      "inputs": [
        {
          "internalType": "address",
          "name": "newOwner",
          "type": "address"
        }
      ],
      "name": "transferOwnership",
      "outputs": [],
      "stateMutability": "nonpayable",
      "type": "function"
    },
    {
      "inputs": [
        {
          "internalType": "uint256",
          "name": "amount",
          "type": "uint256"
        }
      ],
      "name": "withdrawPlayerBalance",
      "outputs": [],
      "stateMutability": "nonpayable",
      "type": "function"
    },
    {
      "stateMutability": "payable",
      "type": "receive"
    }
  ],
  "bytecode": "0x608060405234801561001057600080fd5b50604051610a02380380610a0283398101604081905261002f91610095565b600160005561003d33610043565b506100c5565b600180546001600160a01b038381166001600160a01b0319831681179093556040519116919082907f8be0079c531659141344cd1fd0a4f28419497f9722a3daafe3b4186f6b6457e090600090a35050565b6000602082840312156100a757600080fd5b81516001600160a01b03811681146100be57600080fd5b9392505050565b61092e806100d46000396000f3fe6080604052600436106100ab5760003560e01c80639e492b99116100645780639e492b9914610185578063b07ce025146101c5578063d4e3b6e6146101d8578063db2e21bc146101f8578063e2734c931461020d578063f2fde38b1461024357600080fd5b806301e086e1146100b75780635e4402df146100d95780636f9fb98a146100f9578063715018a61461011b5780637b38314c146101305780638da5cb5b1461015d57600080fd5b366100b257005b600080fd5b3480156100c357600080fd5b506100d76100d236600461086d565b610263565b005b3480156100e557600080fd5b506100d76100f436600461086d565b6102c3565b34801561010557600080fd5b50475b6040519081526020015b60405180910390f35b34801561012757600080fd5b506100d761031f565b34801561013c57600080fd5b5061010861014b36600461086d565b60036020526000908152604090205481565b34801561016957600080fd5b506001546040516001600160a01b039091168152602001610112565b34801561019157600080fd5b506101b56101a036600461086d565b60026020526000908152604090205460ff1681565b6040519015158152602001610112565b6100d76101d336600461086d565b610333565b3480156101e457600080fd5b506100d76101f336600461089d565b610457565b34801561020457600080fd5b506100d76105f8565b34801561021957600080fd5b5061010861022836600461086d565b6001600160a01b031660009081526003602052604090205490565b34801561024f57600080fd5b506100d761025e36600461086d565b6106f2565b61026b610768565b6001600160a01b038116600081815260026020908152604091829020805460ff1916905590513381527f2e978a412e23f6f84a572ce28cdcf05912514fe7c200ca9a12339ec2eaa1ee4f91015b60405180910390a250565b6102cb610768565b6001600160a01b038116600081815260026020908152604091829020805460ff1916600117905590513381527f3c4367be2c3ddd1d72667186f76ec3ba26da9a3f82639e51c120516e04b3976291016102b8565b610327610768565b61033160006107c2565b565b61033b610814565b6001600160a01b03811660009081526002602052604090205460ff1661039e5760405162461bcd60e51b815260206004820152601360248201527211d85b59481b9bdd08185d5d1a1bdc9a5e9959606a1b60448201526064015b60405180910390fd5b600034116103e15760405162461bcd60e51b815260206004820152601060248201526f14185e5b595b9d081c995c5d5a5c995960821b6044820152606401610395565b33600090815260036020526040812080543492906104009084906108cc565b9091555050604080513481524260208201526001600160a01b0383169133917f2d373585adc380c8714693a2c7b2009a1c53eef8fd1c092cc0b2cfe18f6cf9be910160405180910390a36104546001600055565b50565b61045f610814565b336000908152600360205260409020548111156104b55760405162461bcd60e51b8152602060048201526014602482015273496e73756666696369656e742062616c616e636560601b6044820152606401610395565b478111156105055760405162461bcd60e51b815260206004820152601d60248201527f436f6e747261637420696e73756666696369656e742062616c616e63650000006044820152606401610395565b33600090815260036020526040812080548392906105249084906108e5565b9091555050604051600090339083908381818185875af1925050503d806000811461056b576040519150601f19603f3d011682016040523d82523d6000602084013e610570565b606091505b50509050806105b35760405162461bcd60e51b815260206004820152600f60248201526e151c985b9cd9995c8819985a5b1959608a1b6044820152606401610395565b6040805183815242602082015233917ffbc3a599b784fe88772fc5abcc07223f64ca0b13acc341f4fb1e46bef0510eb4910160405180910390a2506104546001600055565b610600610768565b4760006106156001546001600160a01b031690565b6001600160a01b03168260405160006040518083038185875af1925050503d806000811461065f576040519150601f19603f3d011682016040523d82523d6000602084013e610664565b606091505b50509050806106a75760405162461bcd60e51b815260206004820152600f60248201526e151c985b9cd9995c8819985a5b1959608a1b6044820152606401610395565b600154604080518481524260208201526001600160a01b03909216917ffbc3a599b784fe88772fc5abcc07223f64ca0b13acc341f4fb1e46bef0510eb4910160405180910390a25050565b6106fa610768565b6001600160a01b03811661075f5760405162461bcd60e51b815260206004820152602660248201527f4f776e61626c653a206e6577206f776e657220697320746865207a65726f206160448201526564647265737360d01b6064820152608401610395565b610454816107c2565b6001546001600160a01b031633146103315760405162461bcd60e51b815260206004820181905260248201527f4f776e61626c653a2063616c6c6572206973206e6f7420746865206f776e65726044820152606401610395565b600180546001600160a01b038381166001600160a01b0319831681179093556040519116919082907f8be0079c531659141344cd1fd0a4f28419497f9722a3daafe3b4186f6b6457e090600090a35050565b6002600054036108665760405162461bcd60e51b815260206004820152601f60248201527f5265656e7472616e637947756172643a207265656e7472616e742063616c6c006044820152606401610395565b6002600055565b60006020828403121561087f57600080fd5b81356001600160a01b038116811461089657600080fd5b9392505050565b6000602082840312156108af57600080fd5b5035919050565b634e487b7160e01b600052601160045260246000fd5b808201808211156108df576108df6108b6565b92915050565b818103818111156108df576108df6108b656fea2646970667358221220bd7c55c244c588fee3c2ab302656c4f32f7a940e55a5c23e185da6ee440a407664736f6c63430008130033",
  "linkReferences": {},
  "deployedLinkReferences": {}
}