{
  "_format": "hh-sol-artifact-1",
  "contractName": "RealPokerGame",
  "sourceName": "contracts/RealPokerGame.sol",
  "abi": [
    {
      "inputs": [
        {
          "internalType": "address payable",
          "name": "_paymentProcessor",
          "type": "address"
        }
      ],
      "stateMutability": "nonpayable",
      "type": "constructor"
    },
    {
      "anonymous": false,
      "inputs": [
        {
          "indexed": true,
          "internalType": "bytes32",
          "name": "gameId",
          "type": "bytes32"
        },
        {
          "indexed": false,
          "internalType": "address",
          "name": "player",
          "type": "address"
        },
        {
          "indexed": false,
          "internalType": "bytes32[]",
          "name": "cards",
          "type": "bytes32[]"
        }
      ],
      "name": "CardsDealt",
      "type": "event"
    },
    {
      "anonymous": false,
      "inputs": [
        {
          "indexed": true,
          "internalType": "bytes32",
          "name": "gameId",
          "type": "bytes32"
        },
        {
          "indexed": false,
          "internalType": "address",
          "name": "winner",
          "type": "address"
        },
        {
          "indexed": false,
          "internalType": "uint256",
          "name": "prize",
          "type": "uint256"
        }
      ],
      "name": "GameCompleted",
      "type": "event"
    },
    {
      "anonymous": false,
      "inputs": [
        {
          "indexed": true,
          "internalType": "bytes32",
          "name": "gameId",
          "type": "bytes32"
        },
        {
          "indexed": false,
          "internalType": "address",
          "name": "creator",
          "type": "address"
        },
        {
          "indexed": false,
          "internalType": "uint256",
          "name": "buyIn",
          "type": "uint256"
        },
        {
          "indexed": false,
          "internalType": "uint256",
          "name": "maxPlayers",
          "type": "uint256"
        }
      ],
      "name": "GameCreated",
      "type": "event"
    },
    {
      "anonymous": false,
      "inputs": [
        {
          "indexed": true,
          "internalType": "bytes32",
          "name": "gameId",
          "type": "bytes32"
        },
        {
          "indexed": false,
          "internalType": "address",
          "name": "player",
          "type": "address"
        },
        {
          "indexed": false,
          "internalType": "enum RealPokerGame.PlayerAction",
          "name": "action",
          "type": "uint8"
        },
        {
          "indexed": false,
          "internalType": "uint256",
          "name": "amount",
          "type": "uint256"
        }
      ],
      "name": "PlayerActionTaken",
      "type": "event"
    },
    {
      "anonymous": false,
      "inputs": [
        {
          "indexed": true,
          "internalType": "bytes32",
          "name": "gameId",
          "type": "bytes32"
        },
        {
          "indexed": false,
          "internalType": "address",
          "name": "player",
          "type": "address"
        },
        {
          "indexed": false,
          "internalType": "uint256",
          "name": "amount",
          "type": "uint256"
        }
      ],
      "name": "PlayerJoined",
      "type": "event"
    },
    {
      "anonymous": false,
      "inputs": [
        {
          "indexed": true,
          "internalType": "address",
          "name": "player",
          "type": "address"
        },
        {
          "indexed": false,
          "internalType": "uint256",
          "name": "amount",
          "type": "uint256"
        }
      ],
      "name": "WinningsClaimed",
      "type": "event"
    },
    {
      "inputs": [],
      "name": "claimWinnings",
      "outputs": [],
      "stateMutability": "nonpayable",
      "type": "function"
    },
    {
      "inputs": [
        {
          "internalType": "bytes32",
          "name": "gameId",
          "type": "bytes32"
        },
        {
          "internalType": "address",
          "name": "winner",
          "type": "address"
        }
      ],
      "name": "completeGame",
      "outputs": [],
      "stateMutability": "nonpayable",
      "type": "function"
    },
    {
      "inputs": [
        {
          "internalType": "bytes32",
          "name": "gameId",
          "type": "bytes32"
        },
        {
          "internalType": "uint256",
          "name": "buyIn",
          "type": "uint256"
        },
        {
          "internalType": "uint256",
          "name": "maxPlayers",
          "type": "uint256"
        },
        {
          "internalType": "uint256",
          "name": "smallBlind",
          "type": "uint256"
        },
        {
          "internalType": "uint256",
          "name": "bigBlind",
          "type": "uint256"
        }
      ],
      "name": "createGame",
      "outputs": [],
      "stateMutability": "payable",
      "type": "function"
    },
    {
      "inputs": [
        {
          "internalType": "bytes32",
          "name": "",
          "type": "bytes32"
        }
      ],
      "name": "games",
      "outputs": [
        {
          "internalType": "bytes32",
          "name": "gameId",
          "type": "bytes32"
        },
        {
          "internalType": "uint256",
          "name": "buyIn",
          "type": "uint256"
        },
        {
          "internalType": "uint256",
          "name": "pot",
          "type": "uint256"
        },
        {
          "internalType": "enum RealPokerGame.GameState",
          "name": "state",
          "type": "uint8"
        },
        {
          "internalType": "uint256",
          "name": "startTime",
          "type": "uint256"
        },
        {
          "internalType": "uint256",
          "name": "maxPlayers",
          "type": "uint256"
        },
        {
          "internalType": "address",
          "name": "currentPlayer",
          "type": "address"
        },
        {
          "internalType": "uint256",
          "name": "currentBet",
          "type": "uint256"
        },
        {
          "internalType": "uint256",
          "name": "dealerPosition",
          "type": "uint256"
        },
        {
          "internalType": "uint256",
          "name": "smallBlind",
          "type": "uint256"
        },
        {
          "internalType": "uint256",
          "name": "bigBlind",
          "type": "uint256"
        }
      ],
      "stateMutability": "view",
      "type": "function"
    },
    {
      "inputs": [
        {
          "internalType": "address",
          "name": "",
          "type": "address"
        }
      ],
      "name": "gamesPlayed",
      "outputs": [
        {
          "internalType": "uint256",
          "name": "",
          "type": "uint256"
        }
      ],
      "stateMutability": "view",
      "type": "function"
    },
    {
      "inputs": [
        {
          "internalType": "bytes32",
          "name": "gameId",
          "type": "bytes32"
        }
      ],
      "name": "getGameInfo",
      "outputs": [
        {
          "internalType": "address[]",
          "name": "players",
          "type": "address[]"
        },
        {
          "internalType": "uint256",
          "name": "buyIn",
          "type": "uint256"
        },
        {
          "internalType": "uint256",
          "name": "pot",
          "type": "uint256"
        },
        {
          "internalType": "uint256",
          "name": "state",
          "type": "uint256"
        },
        {
          "internalType": "uint256",
          "name": "startTime",
          "type": "uint256"
        },
        {
          "internalType": "uint256",
          "name": "maxPlayers",
          "type": "uint256"
        },
        {
          "internalType": "address",
          "name": "currentPlayer",
          "type": "address"
        },
        {
          "internalType": "uint256",
          "name": "currentBet",
          "type": "uint256"
        }
      ],
      "stateMutability": "view",
      "type": "function"
    },
    {
      "inputs": [
        {
          "internalType": "bytes32",
          "name": "gameId",
          "type": "bytes32"
        },
        {
          "internalType": "address",
          "name": "player",
          "type": "address"
        }
      ],
      "name": "getPlayerInfo",
      "outputs": [
        {
          "internalType": "uint256",
          "name": "balance",
          "type": "uint256"
        },
        {
          "internalType": "bool",
          "name": "hasFolded",
          "type": "bool"
        },
        {
          "internalType": "bool",
          "name": "isAllIn",
          "type": "bool"
        },
        {
          "internalType": "bytes32[]",
          "name": "hand",
          "type": "bytes32[]"
        }
      ],
      "stateMutability": "view",
      "type": "function"
    },
    {
      "inputs": [
        {
          "internalType": "bytes32",
          "name": "gameId",
          "type": "bytes32"
        }
      ],
      "name": "joinGame",
      "outputs": [],
      "stateMutability": "payable",
      "type": "function"
    },
    {
      "inputs": [],
      "name": "owner",
      "outputs": [
        {
          "internalType": "address",
          "name": "",
          "type": "address"
        }
      ],
      "stateMutability": "view",
      "type": "function"
    },
    {
      "inputs": [],
      "name": "paymentProcessor",
      "outputs": [
        {
          "internalType": "contract CasinoPaymentProcessor",
          "name": "",
          "type": "address"
        }
      ],
      "stateMutability": "view",
      "type": "function"
    },
    {
      "inputs": [
        {
          "internalType": "address",
          "name": "",
          "type": "address"
        }
      ],
      "name": "playerWinnings",
      "outputs": [
        {
          "internalType": "uint256",
          "name": "",
          "type": "uint256"
        }
      ],
      "stateMutability": "view",
      "type": "function"
    },
    {
      "inputs": [
        {
          "internalType": "bytes32",
          "name": "gameId",
          "type": "bytes32"
        },
        {
          "internalType": "enum RealPokerGame.PlayerAction",
          "name": "action",
          "type": "uint8"
        },
        {
          "internalType": "uint256",
          "name": "raiseAmount",
          "type": "uint256"
        }
      ],
      "name": "takeAction",
      "outputs": [],
      "stateMutability": "payable",
      "type": "function"
    }
  ],
  "bytecode": "0x608060405234801561001057600080fd5b50604051611f63380380611f6383398101604081905261002f91610062565b6001600081905580546001600160a01b039092166001600160a01b03199283161790556002805490911633179055610092565b60006020828403121561007457600080fd5b81516001600160a01b038116811461008b57600080fd5b9392505050565b611ec2806100a16000396000f3fe6080604052600436106100a75760003560e01c8063b401faf111610064578063b401faf1146101ad578063bf474766146101c2578063ddaf089d146101d5578063e9df302714610205578063f1c6bdf814610225578063f579f8821461024557600080fd5b8063252f4d81146100ac5780635dda1bbf146100ec57806370180bc1146101015780638da5cb5b1461012e578063b2c553b214610166578063b2fcb4bc1461019a575b600080fd5b3480156100b857600080fd5b506100d96100c7366004611ae2565b60046020526000908152604090205481565b6040519081526020015b60405180910390f35b6100ff6100fa366004611b04565b6102de565b005b34801561010d57600080fd5b506100d961011c366004611ae2565b60056020526000908152604090205481565b34801561013a57600080fd5b5060025461014e906001600160a01b031681565b6040516001600160a01b0390911681526020016100e3565b34801561017257600080fd5b50610186610181366004611b40565b6107d3565b6040516100e3989796959493929190611b59565b6100ff6101a8366004611bea565b6108bb565b3480156101b957600080fd5b506100ff610d3b565b6100ff6101d0366004611b40565b610e73565b3480156101e157600080fd5b506101f56101f0366004611c25565b6112d3565b6040516100e39493929190611c8c565b34801561021157600080fd5b506100ff610220366004611c25565b61137e565b34801561023157600080fd5b5060015461014e906001600160a01b031681565b34801561025157600080fd5b506102c7610260366004611b40565b60036020819052600091825260409091208054600282015492820154600483015460058401546006850154600786015460088701546009880154600a890154600b90990154979998969760ff90961696949593946001600160a01b0390931693919290918b565b6040516100e39b9a99989796959493929190611cd5565b60008381526003602052604090206001015483906103175760405162461bcd60e51b815260040161030e90611d46565b60405180910390fd5b60008481526003602052604090206001600482015460ff16600381111561034057610340611cbf565b1461037f5760405162461bcd60e51b815260206004820152600f60248201526e47616d65206e6f742061637469766560881b604482015260640161030e565b60078101546001600160a01b031633146103cb5760405162461bcd60e51b815260206004820152600d60248201526c2737ba103cb7bab9103a3ab93760991b604482015260640161030e565b336000908152600d8201602052604090206002015460ff16156104245760405162461bcd60e51b8152602060048201526011602482015270141b185e595c881a185cc8199bdb191959607a1b604482015260640161030e565b600484600481111561043857610438611cbf565b148061045e5750336000908152600d82016020526040902060020154610100900460ff16155b61049d5760405162461bcd60e51b815260206004820152601060248201526f283630bcb2b91034b99030b63616b4b760811b604482015260640161030e565b336000908152600d820160205260408120908560048111156104c1576104c1611cbf565b036104da5760028101805460ff1916600117905561077e565b60018560048111156104ee576104ee611cbf565b0361055d576008820154156105585760405162461bcd60e51b815260206004820152602a60248201527f43616e6e6f7420636865636b207768656e206120626574206f722072616973656044820152692069732061637469766560b01b606482015260840161030e565b61077e565b600285600481111561057157610571611cbf565b0361060a57600882015460018201548111156105cf5760405162461bcd60e51b815260206004820152601c60248201527f496e73756666696369656e742062616c616e636520746f2063616c6c00000000604482015260640161030e565b808260010160008282546105e39190611d89565b92505081905550808360030160008282546105fe9190611d9c565b9091555061077e915050565b600385600481111561061e5761061e611cbf565b0361071857816008015484116106845760405162461bcd60e51b815260206004820152602560248201527f5261697365206d75737420626520686967686572207468616e2063757272656e6044820152641d0818995d60da1b606482015260840161030e565b83816001015410156106d85760405162461bcd60e51b815260206004820152601d60248201527f496e73756666696369656e742062616c616e636520746f207261697365000000604482015260640161030e565b838160010160008282546106ec9190611d89565b92505081905550838260030160008282546107079190611d9c565b90915550506008820184905561077e565b600485600481111561072c5761072c611cbf565b0361077e5760018101805460009182905560038401805491928392610752908490611d9c565b909155505060028201805461ff001916610100179055600883015481111561077c57600883018190555b505b42600382015560405186907fc3c8b69d9de884876c836b4c17254a0b83daf2aaba099aef10dfd6307b197d07906107ba90339089908990611daf565b60405180910390a26107cb8661153b565b505050505050565b6060600080600080600080600080600360008b8152602001908152602001600020905080600101816002015482600301548360040160009054906101000a900460ff16600381111561082757610827611cbf565b60058501546006860154600787015460088801548754604080516020808402820181019092528281526001600160a01b0390941693918a9183018282801561089857602002820191906000526020600020905b81546001600160a01b0316815260019091019060200180831161087a575b505050505097509850985098509850985098509850985050919395975091939597565b6108c36115d3565b600085815260036020526040902060010154156109185760405162461bcd60e51b815260206004820152601360248201527247616d6520616c72656164792065786973747360681b604482015260640161030e565b600084116109685760405162461bcd60e51b815260206004820152601760248201527f4275792d696e206d75737420626520706f736974697665000000000000000000604482015260640161030e565b6002831015801561097a575060098311155b6109bd5760405162461bcd60e51b8152602060048201526014602482015273125b9d985b1a59081c1b185e595c8818dbdd5b9d60621b604482015260640161030e565b833414610a065760405162461bcd60e51b8152602060048201526017602482015276125b98dbdc9c9958dd08189d5e4b5a5b88185b5bdd5b9d604a1b604482015260640161030e565b8181118015610a155750600082115b610a615760405162461bcd60e51b815260206004820152601760248201527f496e76616c696420626c696e6420737472756374757265000000000000000000604482015260640161030e565b6001546040513060248201526000916001600160a01b031690349060440160408051601f198184030181529181526020820180516001600160e01b031663b07ce02560e01b17905251610ab49190611de0565b60006040518083038185875af1925050503d8060008114610af1576040519150601f19603f3d011682016040523d82523d6000602084013e610af6565b606091505b5050905080610b435760405162461bcd60e51b815260206004820152601960248201527814185e5b595b9d081c1c9bd8d95cdcda5b99c819985a5b1959603a1b604482015260640161030e565b604080516001808252818301909252600091602080830190803683370190505090503381600081518110610b7957610b79611e0f565b6001600160a01b039092166020928302919091018201526000888152600382526040902088815582519091610bb5916001840191850190611a11565b50600281018790556003810187905560048101805460ff19169055426005820181905560068201879055600a8201869055600b82018590556000600983018190556040805160c08101825233815260208082018c905281830184905260608201849052608082019490945281518381529384019091529160a0830191509052336000908152600d83016020908152604091829020835181546001600160a01b03919091166001600160a01b031990911617815583820151600182015591830151600283018054606086015115156101000261ff00199315159390931661ffff19909116179190911790556080830151600383015560a08301518051610cc09260048501920190611a76565b50503360009081526005602052604081208054925090610cdf83611e25565b9091555050604080513381526020810189905290810187905288907fa704bb051af5b1db9e96f77b61081d382ff963e46371f5057868d19eef2dee359060600160405180910390a2505050610d346001600055565b5050505050565b610d436115d3565b3360009081526004602052604090205480610d975760405162461bcd60e51b81526020600482015260146024820152734e6f2077696e6e696e677320746f20636c61696d60601b604482015260640161030e565b336000818152600460205260408082208290555190919083908381818185875af1925050503d8060008114610de8576040519150601f19603f3d011682016040523d82523d6000602084013e610ded565b606091505b5050905080610e305760405162461bcd60e51b815260206004820152600f60248201526e151c985b9cd9995c8819985a5b1959608a1b604482015260640161030e565b60405182815233907f1a31e733a172afcf46074b3106c17f0c298e226442682a03c1e99ce256139ec29060200160405180910390a25050610e716001600055565b565b610e7b6115d3565b6000818152600360205260409020600101548190610eab5760405162461bcd60e51b815260040161030e90611d46565b600082815260036020526040812090600482015460ff166003811115610ed357610ed3611cbf565b14610f205760405162461bcd60e51b815260206004820152601a60248201527f47616d65206e6f7420616363657074696e6720706c6179657273000000000000604482015260640161030e565b6006810154600182015410610f635760405162461bcd60e51b815260206004820152600960248201526811d85b5948199d5b1b60ba1b604482015260640161030e565b80600201543414610fb05760405162461bcd60e51b8152602060048201526017602482015276125b98dbdc9c9958dd08189d5e4b5a5b88185b5bdd5b9d604a1b604482015260640161030e565b60005b600182015481101561104357336001600160a01b0316826001018281548110610fde57610fde611e0f565b6000918252602090912001546001600160a01b0316036110315760405162461bcd60e51b815260206004820152600e60248201526d105b1c9958591e481a9bda5b995960921b604482015260640161030e565b8061103b81611e25565b915050610fb3565b506001546040513060248201526000916001600160a01b031690349060440160408051601f198184030181529181526020820180516001600160e01b031663b07ce02560e01b179052516110979190611de0565b60006040518083038185875af1925050503d80600081146110d4576040519150601f19603f3d011682016040523d82523d6000602084013e6110d9565b606091505b50509050806111265760405162461bcd60e51b815260206004820152601960248201527814185e5b595b9d081c1c9bd8d95cdcda5b99c819985a5b1959603a1b604482015260640161030e565b60018083018054918201815560009081526020812090910180546001600160a01b03191633179055600383018054349290611162908490611d9c565b90915550506040805160c0810182523381523460208201526000918101829052606081018290524260808201529060a08201906040519080825280602002602001820160405280156111be578160200160208202803683370190505b509052336000908152600d84016020908152604091829020835181546001600160a01b03919091166001600160a01b031990911617815583820151600182015591830151600283018054606086015115156101000261ff00199315159390931661ffff19909116179190911790556080830151600383015560a0830151805161124d9260048501920190611a76565b5050336000908152600560205260408120805492509061126c83611e25565b90915550506040805133815234602082015285917f65525cf08411b7a61d237681a43890956ad2e2ede88afd947f58eb4158c37f95910160405180910390a260068201546001830154036112c3576112c38461162c565b5050506112d06001600055565b50565b60008281526003602090815260408083206001600160a01b0385168452600d81018352818420600181015460028201546004830180548651818902810189019097528087528897889760609796959460ff808216956101009092041693909283919083018282801561136457602002820191906000526020600020905b815481526020019060010190808311611350575b505050505090509550955095509550505092959194509250565b60008281526003602052604090206001015482906113ae5760405162461bcd60e51b815260040161030e90611d46565b6002546001600160a01b031633146113f45760405162461bcd60e51b81526020600482015260096024820152682737ba1037bbb732b960b91b604482015260640161030e565b60008381526003602052604090206001600482015460ff16600381111561141d5761141d611cbf565b1461145c5760405162461bcd60e51b815260206004820152600f60248201526e47616d65206e6f742061637469766560881b604482015260640161030e565b61146684846118d9565b6114a75760405162461bcd60e51b815260206004820152601260248201527157696e6e6572206e6f7420696e2067616d6560701b604482015260640161030e565b6004818101805460ff1916600217905560038201546001600160a01b0385166000908152602092909252604082208054919290916114e6908490611d9c565b90915550506003810154604080516001600160a01b0386168152602081019290925285917fd1abccae8934d5ff9b57f5f0a1bebe781f8f34d4c1c7b20e7634381deebc8db5910160405180910390a250505050565b600081815260036020526040812060078101549091906115659084906001600160a01b0316611958565b90506000826001018054905082600161157e9190611d9c565b6115889190611e3e565b905082600101818154811061159f5761159f611e0f565b600091825260209091200154600790930180546001600160a01b0319166001600160a01b0390941693909317909255505050565b6002600054036116255760405162461bcd60e51b815260206004820152601f60248201527f5265656e7472616e637947756172643a207265656e7472616e742063616c6c00604482015260640161030e565b6002600055565b600081815260036020526040812060048101805460ff19166001908117909155810180549192909161166057611660611e0f565b60009182526020822001546007830180546001600160a01b0319166001600160a01b039092169190911790555b60018201548110156118d45760408051600280825260608201835260009260208301908036833701905050905042468460010184815481106116d1576116d1611e0f565b6000918252602091829020015460405161172a9493926001600160a01b039092169101928352602083019190915260601b6bffffffffffffffffffffffff1916604082015264636172643160d81b605482015260590190565b604051602081830303815290604052805190602001208160008151811061175357611753611e0f565b602002602001018181525050424684600101848154811061177657611776611e0f565b600091825260209182902001546040516117cf9493926001600160a01b039092169101928352602083019190915260601b6bffffffffffffffffffffffff191660408201526431b0b9321960d91b605482015260590190565b60405160208183030381529060405280519060200120816001815181106117f8576117f8611e0f565b6020026020010181815250508083600d01600085600101858154811061182057611820611e0f565b60009182526020808320909101546001600160a01b031683528281019390935260409091019020825161185d936004909201929190910190611a76565b50837f9fef8c381ffcf075f780d6c722b3ad78e38409463c40bb430379073ff6ae3ac384600101848154811061189557611895611e0f565b6000918252602090912001546040516118b9916001600160a01b0316908590611e60565b60405180910390a250806118cc81611e25565b91505061168d565b505050565b6000828152600360205260408120815b600182015481101561194b57836001600160a01b031682600101828154811061191457611914611e0f565b6000918252602090912001546001600160a01b03160361193957600192505050611952565b8061194381611e25565b9150506118e9565b5060009150505b92915050565b6000828152600360205260408120815b60018201548110156119c857836001600160a01b031682600101828154811061199357611993611e0f565b6000918252602090912001546001600160a01b0316036119b65791506119529050565b806119c081611e25565b915050611968565b5060405162461bcd60e51b815260206004820152601860248201527f506c61796572206e6f7420666f756e6420696e2067616d650000000000000000604482015260640161030e565b828054828255906000526020600020908101928215611a66579160200282015b82811115611a6657825182546001600160a01b0319166001600160a01b03909116178255602090920191600190910190611a31565b50611a72929150611ab1565b5090565b828054828255906000526020600020908101928215611a66579160200282015b82811115611a66578251825591602001919060010190611a96565b5b80821115611a725760008155600101611ab2565b80356001600160a01b0381168114611add57600080fd5b919050565b600060208284031215611af457600080fd5b611afd82611ac6565b9392505050565b600080600060608486031215611b1957600080fd5b83359250602084013560058110611b2f57600080fd5b929592945050506040919091013590565b600060208284031215611b5257600080fd5b5035919050565b6101008082528951908201819052600090610120830190602090818d01845b82811015611b9d5781516001600160a01b031685529383019390830190600101611b78565b5050508192508a8185015250508760408301528660608301528560808301528460a0830152611bd760c08301856001600160a01b03169052565b8260e08301529998505050505050505050565b600080600080600060a08688031215611c0257600080fd5b505083359560208501359550604085013594606081013594506080013592509050565b60008060408385031215611c3857600080fd5b82359150611c4860208401611ac6565b90509250929050565b600081518084526020808501945080840160005b83811015611c8157815187529582019590820190600101611c65565b509495945050505050565b84815283151560208201528215156040820152608060608201526000611cb56080830184611c51565b9695505050505050565b634e487b7160e01b600052602160045260246000fd5b8b8152602081018b9052604081018a9052610160810160048a10611cfb57611cfb611cbf565b6060820199909952608081019790975260a08701959095526001600160a01b039390931660c086015260e0850191909152610100840152610120830152610140909101529392505050565b60208082526013908201527211d85b5948191bd95cc81b9bdd08195e1a5cdd606a1b604082015260600190565b634e487b7160e01b600052601160045260246000fd5b8181038181111561195257611952611d73565b8082018082111561195257611952611d73565b6001600160a01b03841681526060810160058410611dcf57611dcf611cbf565b602082019390935260400152919050565b6000825160005b81811015611e015760208186018101518583015201611de7565b506000920191825250919050565b634e487b7160e01b600052603260045260246000fd5b600060018201611e3757611e37611d73565b5060010190565b600082611e5b57634e487b7160e01b600052601260045260246000fd5b500690565b6001600160a01b0383168152604060208201819052600090611e8490830184611c51565b94935050505056fea26469706673582212205f1c84de34a026299cf232b1ab69725992cb417a3caefbe69de84edb6ed442dc64736f6c63430008130033",
  "linkReferences": {},
  "deployedLinkReferences": {}
}