{
  "_format": "hh-sol-artifact-1",
  "contractName": "SlotMachine",
  "sourceName": "contracts/SlotMachine.sol",
  "abi": [
    {
      "inputs": [
        {
          "internalType": "address payable",
          "name": "_paymentProcessor",
          "type": "address"
        }
      ],
      "stateMutability": "nonpayable",
      "type": "constructor"
    },
    {
      "anonymous": false,
      "inputs": [
        {
          "indexed": true,
          "internalType": "address",
          "name": "player",
          "type": "address"
        },
        {
          "indexed": false,
          "internalType": "uint256",
          "name": "amount",
          "type": "uint256"
        },
        {
          "indexed": false,
          "internalType": "uint256",
          "name": "timestamp",
          "type": "uint256"
        }
      ],
      "name": "JackpotWin",
      "type": "event"
    },
    {
      "anonymous": false,
      "inputs": [
        {
          "indexed": true,
          "internalType": "address",
          "name": "player",
          "type": "address"
        },
        {
          "indexed": false,
          "internalType": "uint256",
          "name": "betAmount",
          "type": "uint256"
        },
        {
          "indexed": false,
          "internalType": "uint256",
          "name": "payout",
          "type": "uint256"
        },
        {
          "indexed": false,
          "internalType": "uint256",
          "name": "timestamp",
          "type": "uint256"
        }
      ],
      "name": "SlotSpin",
      "type": "event"
    },
    {
      "inputs": [],
      "name": "fundJackpot",
      "outputs": [],
      "stateMutability": "payable",
      "type": "function"
    },
    {
      "inputs": [
        {
          "internalType": "address",
          "name": "player",
          "type": "address"
        }
      ],
      "name": "getPlayerStats",
      "outputs": [
        {
          "internalType": "uint256",
          "name": "spins",
          "type": "uint256"
        },
        {
          "internalType": "uint256",
          "name": "winnings",
          "type": "uint256"
        }
      ],
      "stateMutability": "view",
      "type": "function"
    },
    {
      "inputs": [],
      "name": "jackpot",
      "outputs": [
        {
          "internalType": "uint256",
          "name": "",
          "type": "uint256"
        }
      ],
      "stateMutability": "view",
      "type": "function"
    },
    {
      "inputs": [],
      "name": "owner",
      "outputs": [
        {
          "internalType": "address",
          "name": "",
          "type": "address"
        }
      ],
      "stateMutability": "view",
      "type": "function"
    },
    {
      "inputs": [],
      "name": "paymentProcessor",
      "outputs": [
        {
          "internalType": "contract CasinoPaymentProcessor",
          "name": "",
          "type": "address"
        }
      ],
      "stateMutability": "view",
      "type": "function"
    },
    {
      "inputs": [
        {
          "internalType": "address",
          "name": "",
          "type": "address"
        }
      ],
      "name": "playerSpins",
      "outputs": [
        {
          "internalType": "uint256",
          "name": "",
          "type": "uint256"
        }
      ],
      "stateMutability": "view",
      "type": "function"
    },
    {
      "inputs": [
        {
          "internalType": "address",
          "name": "",
          "type": "address"
        }
      ],
      "name": "playerWinnings",
      "outputs": [
        {
          "internalType": "uint256",
          "name": "",
          "type": "uint256"
        }
      ],
      "stateMutability": "view",
      "type": "function"
    },
    {
      "inputs": [],
      "name": "spin",
      "outputs": [],
      "stateMutability": "payable",
      "type": "function"
    },
    {
      "inputs": [],
      "name": "totalPayouts",
      "outputs": [
        {
          "internalType": "uint256",
          "name": "",
          "type": "uint256"
        }
      ],
      "stateMutability": "view",
      "type": "function"
    },
    {
      "inputs": [],
      "name": "totalSpins",
      "outputs": [
        {
          "internalType": "uint256",
          "name": "",
          "type": "uint256"
        }
      ],
      "stateMutability": "view",
      "type": "function"
    },
    {
      "stateMutability": "payable",
      "type": "receive"
    }
  ],
  "bytecode": "0x608060405234801561001057600080fd5b506040516108fc3803806108fc83398101604081905261002f91610067565b6001600081815581546001600160a01b039093166001600160a01b031993841617909155600280549092163317909155600355610097565b60006020828403121561007957600080fd5b81516001600160a01b038116811461009057600080fd5b9392505050565b610856806100a66000396000f3fe6080604052600436106100955760003560e01c80638da5cb5b116100595780638da5cb5b14610192578063901b2036146101ca578063bd237741146101e0578063f0acd7d5146101ea578063f1c6bdf8146101f257600080fd5b80631fc9cee8146100a1578063252f4d81146100e15780634089b1701461010e5780634fd66eae146101245780636b31ee011461017c57600080fd5b3661009c57005b600080fd5b3480156100ad57600080fd5b506100ce6100bc36600461072a565b60046020526000908152604090205481565b6040519081526020015b60405180910390f35b3480156100ed57600080fd5b506100ce6100fc36600461072a565b60056020526000908152604090205481565b34801561011a57600080fd5b506100ce60075481565b34801561013057600080fd5b5061016761013f36600461072a565b6001600160a01b03166000908152600460209081526040808320546005909252909120549091565b604080519283526020830191909152016100d8565b34801561018857600080fd5b506100ce60035481565b34801561019e57600080fd5b506002546101b2906001600160a01b031681565b6040516001600160a01b0390911681526020016100d8565b3480156101d657600080fd5b506100ce60065481565b6101e8610212565b005b6101e8610276565b3480156101fe57600080fd5b506001546101b2906001600160a01b031681565b6002546001600160a01b0316331461025d5760405162461bcd60e51b81526020600482015260096024820152682737ba1037bbb732b960b91b60448201526064015b60405180910390fd5b346003600082825461026f9190610770565b9091555050565b61027e610635565b600034116102ce5760405162461bcd60e51b815260206004820152601b60248201527f42657420616d6f756e74206d75737420626520706f73697469766500000000006044820152606401610254565b60015460405130602482015234916000916001600160a01b0390911690839060440160408051601f198184030181529181526020820180516001600160e01b031663b07ce02560e01b179052516103259190610783565b60006040518083038185875af1925050503d8060008114610362576040519150601f19603f3d011682016040523d82523d6000602084013e610367565b606091505b50509050806103b85760405162461bcd60e51b815260206004820152601960248201527f5061796d656e742070726f63657373696e67206661696c6564000000000000006044820152606401610254565b600654604080514260208083019190915244828401524660608084019190915233901b6bffffffffffffffffffffffff191660808301526094808301949094528251808303909401845260b49091019091528151910120600061041b828561068e565b336000908152600460205260408120805492935090610439836107b2565b90915550506006805490600061044e836107b2565b909155505080156105c1573360009081526005602052604081208054839290610478908490610770565b9250508190555080600760008282546104919190610770565b909155506104a290508460646107cb565b81106105085760035415610503576003546104bd9082610770565b6003546040805191825242602083015291925033917fb3c089216f23b7daf9ba89aed51ed7cd7a84a690165388c507a0da320840c29a910160405180910390a260006003555b61052a565b6105136064856107f8565b600360008282546105249190610770565b90915550505b604051600090339083908381818185875af1925050503d806000811461056c576040519150601f19603f3d011682016040523d82523d6000602084013e610571565b606091505b50509050806105bb5760405162461bcd60e51b815260206004820152601660248201527514185e5bdd5d081d1c985b9cd9995c8819985a5b195960521b6044820152606401610254565b506105e3565b6105cc6064856107f8565b600360008282546105dd9190610770565b90915550505b60408051858152602081018390524281830152905133917f28cb11395968b614477b15d18ed79471e761ec8b71047eda84c2675e98be8104919081900360600190a2505050506106336001600055565b565b6002600054036106875760405162461bcd60e51b815260206004820152601f60248201527f5265656e7472616e637947756172643a207265656e7472616e742063616c6c006044820152606401610254565b6002600055565b60008061069d6103e88561080c565b905060058110156106bb576106b38360646107cb565b915050610724565b60148110156106cf576106b38360146107cb565b60328110156106e3576106b383600a6107cb565b60648110156106f7576106b38360056107cb565b60c881101561070b576106b38360026107cb565b61019081101561071e5782915050610724565b60009150505b92915050565b60006020828403121561073c57600080fd5b81356001600160a01b038116811461075357600080fd5b9392505050565b634e487b7160e01b600052601160045260246000fd5b808201808211156107245761072461075a565b6000825160005b818110156107a4576020818601810151858301520161078a565b506000920191825250919050565b6000600182016107c4576107c461075a565b5060010190565b80820281158282048414176107245761072461075a565b634e487b7160e01b600052601260045260246000fd5b600082610807576108076107e2565b500490565b60008261081b5761081b6107e2565b50069056fea2646970667358221220b50cd3919a1fb968cf4b8b1179902bc367e1aeb7645944987aa22935e898e15364736f6c63430008130033",
  "linkReferences": {},
  "deployedLinkReferences": {}
}